{
  "contractName": "BitFinance",
  "abi": [
    {
      "constant": false,
      "inputs": [
        {
          "name": "delegate",
          "type": "address"
        }
      ],
      "name": "approveDelegate",
      "outputs": [],
      "payable": false,
      "stateMutability": "nonpayable",
      "type": "function"
    },
    {
      "constant": true,
      "inputs": [
        {
          "name": "orderHash",
          "type": "bytes32"
        }
      ],
      "name": "isOrderCancelled",
      "outputs": [
        {
          "name": "isCancelled",
          "type": "bool"
        }
      ],
      "payable": false,
      "stateMutability": "view",
      "type": "function"
    },
    {
      "constant": true,
      "inputs": [
        {
          "name": "user",
          "type": "address"
        },
        {
          "name": "marketID",
          "type": "uint16"
        }
      ],
      "name": "isAccountLiquidatable",
      "outputs": [
        {
          "name": "isLiquidatable",
          "type": "bool"
        }
      ],
      "payable": false,
      "stateMutability": "view",
      "type": "function"
    },
    {
      "constant": true,
      "inputs": [
        {
          "name": "asset",
          "type": "address"
        }
      ],
      "name": "getPoolCashableAmount",
      "outputs": [
        {
          "name": "cashableAmount",
          "type": "uint256"
        }
      ],
      "payable": false,
      "stateMutability": "view",
      "type": "function"
    },
    {
      "constant": true,
      "inputs": [
        {
          "name": "marketID",
          "type": "uint16"
        }
      ],
      "name": "getMarket",
      "outputs": [
        {
          "components": [
            {
              "name": "baseAsset",
              "type": "address"
            },
            {
              "name": "quoteAsset",
              "type": "address"
            },
            {
              "name": "liquidateRate",
              "type": "uint256"
            },
            {
              "name": "withdrawRate",
              "type": "uint256"
            },
            {
              "name": "auctionRatioStart",
              "type": "uint256"
            },
            {
              "name": "auctionRatioPerBlock",
              "type": "uint256"
            },
            {
              "name": "borrowEnable",
              "type": "bool"
            }
          ],
          "name": "market",
          "type": "tuple"
        }
      ],
      "payable": false,
      "stateMutability": "view",
      "type": "function"
    },
    {
      "constant": false,
      "inputs": [
        {
          "name": "user",
          "type": "address"
        },
        {
          "name": "marketID",
          "type": "uint16"
        }
      ],
      "name": "liquidateAccount",
      "outputs": [
        {
          "name": "hasAuction",
          "type": "bool"
        },
        {
          "name": "auctionID",
          "type": "uint32"
        }
      ],
      "payable": false,
      "stateMutability": "nonpayable",
      "type": "function"
    },
    {
      "constant": true,
      "inputs": [
        {
          "name": "marketID",
          "type": "uint16"
        },
        {
          "name": "asset",
          "type": "address"
        },
        {
          "name": "user",
          "type": "address"
        }
      ],
      "name": "getMarketTransferableAmount",
      "outputs": [
        {
          "name": "amount",
          "type": "uint256"
        }
      ],
      "payable": false,
      "stateMutability": "view",
      "type": "function"
    },
    {
      "constant": false,
      "inputs": [
        {
          "name": "marketID",
          "type": "uint16"
        },
        {
          "name": "newAuctionRatioStart",
          "type": "uint256"
        },
        {
          "name": "newAuctionRatioPerBlock",
          "type": "uint256"
        },
        {
          "name": "newLiquidateRate",
          "type": "uint256"
        },
        {
          "name": "newWithdrawRate",
          "type": "uint256"
        }
      ],
      "name": "updateMarket",
      "outputs": [],
      "payable": false,
      "stateMutability": "nonpayable",
      "type": "function"
    },
    {
      "constant": false,
      "inputs": [
        {
          "name": "auctionID",
          "type": "uint32"
        },
        {
          "name": "amount",
          "type": "uint256"
        }
      ],
      "name": "fillAuctionWithAmount",
      "outputs": [],
      "payable": false,
      "stateMutability": "nonpayable",
      "type": "function"
    },
    {
      "constant": true,
      "inputs": [
        {
          "name": "auctionID",
          "type": "uint32"
        }
      ],
      "name": "getAuctionDetails",
      "outputs": [
        {
          "components": [
            {
              "name": "borrower",
              "type": "address"
            },
            {
              "name": "marketID",
              "type": "uint16"
            },
            {
              "name": "debtAsset",
              "type": "address"
            },
            {
              "name": "collateralAsset",
              "type": "address"
            },
            {
              "name": "leftDebtAmount",
              "type": "uint256"
            },
            {
              "name": "leftCollateralAmount",
              "type": "uint256"
            },
            {
              "name": "ratio",
              "type": "uint256"
            },
            {
              "name": "price",
              "type": "uint256"
            },
            {
              "name": "finished",
              "type": "bool"
            }
          ],
          "name": "details",
          "type": "tuple"
        }
      ],
      "payable": false,
      "stateMutability": "view",
      "type": "function"
    },
    {
      "constant": true,
      "inputs": [
        {
          "name": "assetAddress",
          "type": "address"
        }
      ],
      "name": "getAsset",
      "outputs": [
        {
          "components": [
            {
              "name": "lendingPoolToken",
              "type": "address"
            },
            {
              "name": "priceOracle",
              "type": "address"
            },
            {
              "name": "interestModel",
              "type": "address"
            }
          ],
          "name": "asset",
          "type": "tuple"
        }
      ],
      "payable": false,
      "stateMutability": "view",
      "type": "function"
    },
    {
      "constant": true,
      "inputs": [
        {
          "name": "asset",
          "type": "address"
        },
        {
          "name": "user",
          "type": "address"
        }
      ],
      "name": "getAmountSupplied",
      "outputs": [
        {
          "name": "amount",
          "type": "uint256"
        }
      ],
      "payable": false,
      "stateMutability": "view",
      "type": "function"
    },
    {
      "constant": true,
      "inputs": [],
      "name": "getHydroTokenAddress",
      "outputs": [
        {
          "name": "BitFinanceTokenAddress",
          "type": "address"
        }
      ],
      "payable": false,
      "stateMutability": "view",
      "type": "function"
    },
    {
      "constant": false,
      "inputs": [],
      "name": "exitIncentiveSystem",
      "outputs": [],
      "payable": false,
      "stateMutability": "nonpayable",
      "type": "function"
    },
    {
      "constant": false,
      "inputs": [
        {
          "name": "asset",
          "type": "address"
        },
        {
          "name": "oracleAddress",
          "type": "address"
        },
        {
          "name": "interestModelAddress",
          "type": "address"
        },
        {
          "name": "poolTokenName",
          "type": "string"
        },
        {
          "name": "poolTokenSymbol",
          "type": "string"
        },
        {
          "name": "poolTokenDecimals",
          "type": "uint8"
        }
      ],
      "name": "createAsset",
      "outputs": [],
      "payable": false,
      "stateMutability": "nonpayable",
      "type": "function"
    },
    {
      "constant": true,
      "inputs": [
        {
          "name": "relayer",
          "type": "address"
        }
      ],
      "name": "canMatchOrdersFrom",
      "outputs": [
        {
          "name": "canMatch",
          "type": "bool"
        }
      ],
      "payable": false,
      "stateMutability": "view",
      "type": "function"
    },
    {
      "constant": true,
      "inputs": [
        {
          "name": "asset",
          "type": "address"
        },
        {
          "name": "extraBorrowAmount",
          "type": "uint256"
        }
      ],
      "name": "getInterestRates",
      "outputs": [
        {
          "name": "borrowInterestRate",
          "type": "uint256"
        },
        {
          "name": "supplyInterestRate",
          "type": "uint256"
        }
      ],
      "payable": false,
      "stateMutability": "view",
      "type": "function"
    },
    {
      "constant": true,
      "inputs": [
        {
          "name": "user",
          "type": "address"
        }
      ],
      "name": "getDiscountedRate",
      "outputs": [
        {
          "name": "rate",
          "type": "uint256"
        }
      ],
      "payable": false,
      "stateMutability": "view",
      "type": "function"
    },
    {
      "constant": true,
      "inputs": [
        {
          "name": "user",
          "type": "address"
        },
        {
          "name": "marketID",
          "type": "uint16"
        }
      ],
      "name": "getAccountDetails",
      "outputs": [
        {
          "components": [
            {
              "name": "liquidatable",
              "type": "bool"
            },
            {
              "name": "status",
              "type": "uint8"
            },
            {
              "name": "debtsTotalUSDValue",
              "type": "uint256"
            },
            {
              "name": "balancesTotalUSDValue",
              "type": "uint256"
            }
          ],
          "name": "details",
          "type": "tuple"
        }
      ],
      "payable": false,
      "stateMutability": "view",
      "type": "function"
    },
    {
      "constant": true,
      "inputs": [
        {
          "name": "orderHash",
          "type": "bytes32"
        }
      ],
      "name": "getOrderFilledAmount",
      "outputs": [
        {
          "name": "amount",
          "type": "uint256"
        }
      ],
      "payable": false,
      "stateMutability": "view",
      "type": "function"
    },
    {
      "constant": true,
      "inputs": [],
      "name": "getCurrentAuctions",
      "outputs": [
        {
          "name": "",
          "type": "uint32[]"
        }
      ],
      "payable": false,
      "stateMutability": "view",
      "type": "function"
    },
    {
      "constant": true,
      "inputs": [
        {
          "name": "assetAddress",
          "type": "address"
        }
      ],
      "name": "getAssetOraclePrice",
      "outputs": [
        {
          "name": "price",
          "type": "uint256"
        }
      ],
      "payable": false,
      "stateMutability": "view",
      "type": "function"
    },
    {
      "constant": true,
      "inputs": [
        {
          "name": "asset",
          "type": "address"
        }
      ],
      "name": "getInsuranceBalance",
      "outputs": [
        {
          "name": "amount",
          "type": "uint256"
        }
      ],
      "payable": false,
      "stateMutability": "view",
      "type": "function"
    },
    {
      "constant": true,
      "inputs": [
        {
          "name": "asset",
          "type": "address"
        }
      ],
      "name": "getTotalSupply",
      "outputs": [
        {
          "name": "amount",
          "type": "uint256"
        }
      ],
      "payable": false,
      "stateMutability": "view",
      "type": "function"
    },
    {
      "constant": false,
      "inputs": [],
      "name": "renounceOwnership",
      "outputs": [],
      "payable": false,
      "stateMutability": "nonpayable",
      "type": "function"
    },
    {
      "constant": false,
      "inputs": [
        {
          "name": "asset",
          "type": "address"
        },
        {
          "name": "oracleAddress",
          "type": "address"
        },
        {
          "name": "interestModelAddress",
          "type": "address"
        }
      ],
      "name": "updateAsset",
      "outputs": [],
      "payable": false,
      "stateMutability": "nonpayable",
      "type": "function"
    },
    {
      "constant": true,
      "inputs": [
        {
          "name": "hash",
          "type": "bytes32"
        },
        {
          "name": "signerAddress",
          "type": "address"
        },
        {
          "components": [
            {
              "name": "config",
              "type": "bytes32"
            },
            {
              "name": "r",
              "type": "bytes32"
            },
            {
              "name": "s",
              "type": "bytes32"
            }
          ],
          "name": "signature",
          "type": "tuple"
        }
      ],
      "name": "isValidSignature",
      "outputs": [
        {
          "name": "isValid",
          "type": "bool"
        }
      ],
      "payable": false,
      "stateMutability": "pure",
      "type": "function"
    },
    {
      "constant": false,
      "inputs": [
        {
          "components": [
            {
              "name": "actionType",
              "type": "uint8"
            },
            {
              "name": "encodedParams",
              "type": "bytes"
            }
          ],
          "name": "actions",
          "type": "tuple[]"
        }
      ],
      "name": "batch",
      "outputs": [],
      "payable": true,
      "stateMutability": "payable",
      "type": "function"
    },
    {
      "constant": true,
      "inputs": [
        {
          "name": "asset",
          "type": "address"
        }
      ],
      "name": "getTotalBorrow",
      "outputs": [
        {
          "name": "amount",
          "type": "uint256"
        }
      ],
      "payable": false,
      "stateMutability": "view",
      "type": "function"
    },
    {
      "constant": false,
      "inputs": [
        {
          "components": [
            {
              "name": "baseAsset",
              "type": "address"
            },
            {
              "name": "quoteAsset",
              "type": "address"
            },
            {
              "name": "liquidateRate",
              "type": "uint256"
            },
            {
              "name": "withdrawRate",
              "type": "uint256"
            },
            {
              "name": "auctionRatioStart",
              "type": "uint256"
            },
            {
              "name": "auctionRatioPerBlock",
              "type": "uint256"
            },
            {
              "name": "borrowEnable",
              "type": "bool"
            }
          ],
          "name": "market",
          "type": "tuple"
        }
      ],
      "name": "createMarket",
      "outputs": [],
      "payable": false,
      "stateMutability": "nonpayable",
      "type": "function"
    },
    {
      "constant": true,
      "inputs": [],
      "name": "owner",
      "outputs": [
        {
          "name": "",
          "type": "address"
        }
      ],
      "payable": false,
      "stateMutability": "view",
      "type": "function"
    },
    {
      "constant": true,
      "inputs": [
        {
          "name": "asset",
          "type": "address"
        },
        {
          "name": "user",
          "type": "address"
        },
        {
          "name": "marketID",
          "type": "uint16"
        }
      ],
      "name": "getAmountBorrowed",
      "outputs": [
        {
          "name": "amount",
          "type": "uint256"
        }
      ],
      "payable": false,
      "stateMutability": "view",
      "type": "function"
    },
    {
      "constant": true,
      "inputs": [],
      "name": "isOwner",
      "outputs": [
        {
          "name": "",
          "type": "bool"
        }
      ],
      "payable": false,
      "stateMutability": "view",
      "type": "function"
    },
    {
      "constant": true,
      "inputs": [
        {
          "name": "relayer",
          "type": "address"
        }
      ],
      "name": "isParticipant",
      "outputs": [
        {
          "name": "result",
          "type": "bool"
        }
      ],
      "payable": false,
      "stateMutability": "view",
      "type": "function"
    },
    {
      "constant": true,
      "inputs": [],
      "name": "getAllMarketsCount",
      "outputs": [
        {
          "name": "count",
          "type": "uint256"
        }
      ],
      "payable": false,
      "stateMutability": "view",
      "type": "function"
    },
    {
      "constant": false,
      "inputs": [
        {
          "components": [
            {
              "components": [
                {
                  "name": "trader",
                  "type": "address"
                },
                {
                  "name": "baseAssetAmount",
                  "type": "uint256"
                },
                {
                  "name": "quoteAssetAmount",
                  "type": "uint256"
                },
                {
                  "name": "gasTokenAmount",
                  "type": "uint256"
                },
                {
                  "name": "data",
                  "type": "bytes32"
                },
                {
                  "components": [
                    {
                      "name": "config",
                      "type": "bytes32"
                    },
                    {
                      "name": "r",
                      "type": "bytes32"
                    },
                    {
                      "name": "s",
                      "type": "bytes32"
                    }
                  ],
                  "name": "signature",
                  "type": "tuple"
                }
              ],
              "name": "takerOrderParam",
              "type": "tuple"
            },
            {
              "components": [
                {
                  "name": "trader",
                  "type": "address"
                },
                {
                  "name": "baseAssetAmount",
                  "type": "uint256"
                },
                {
                  "name": "quoteAssetAmount",
                  "type": "uint256"
                },
                {
                  "name": "gasTokenAmount",
                  "type": "uint256"
                },
                {
                  "name": "data",
                  "type": "bytes32"
                },
                {
                  "components": [
                    {
                      "name": "config",
                      "type": "bytes32"
                    },
                    {
                      "name": "r",
                      "type": "bytes32"
                    },
                    {
                      "name": "s",
                      "type": "bytes32"
                    }
                  ],
                  "name": "signature",
                  "type": "tuple"
                }
              ],
              "name": "makerOrderParams",
              "type": "tuple[]"
            },
            {
              "name": "baseAssetFilledAmounts",
              "type": "uint256[]"
            },
            {
              "components": [
                {
                  "name": "baseAsset",
                  "type": "address"
                },
                {
                  "name": "quoteAsset",
                  "type": "address"
                },
                {
                  "name": "relayer",
                  "type": "address"
                }
              ],
              "name": "orderAddressSet",
              "type": "tuple"
            }
          ],
          "name": "params",
          "type": "tuple"
        }
      ],
      "name": "matchOrders",
      "outputs": [],
      "payable": false,
      "stateMutability": "nonpayable",
      "type": "function"
    },
    {
      "constant": false,
      "inputs": [
        {
          "name": "newInitiatorRewardRatio",
          "type": "uint256"
        }
      ],
      "name": "updateAuctionInitiatorRewardRatio",
      "outputs": [],
      "payable": false,
      "stateMutability": "nonpayable",
      "type": "function"
    },
    {
      "constant": true,
      "inputs": [
        {
          "name": "asset",
          "type": "address"
        }
      ],
      "name": "getIndex",
      "outputs": [
        {
          "name": "supplyIndex",
          "type": "uint256"
        },
        {
          "name": "borrowIndex",
          "type": "uint256"
        }
      ],
      "payable": false,
      "stateMutability": "view",
      "type": "function"
    },
    {
      "constant": false,
      "inputs": [
        {
          "components": [
            {
              "name": "trader",
              "type": "address"
            },
            {
              "name": "relayer",
              "type": "address"
            },
            {
              "name": "baseAsset",
              "type": "address"
            },
            {
              "name": "quoteAsset",
              "type": "address"
            },
            {
              "name": "baseAssetAmount",
              "type": "uint256"
            },
            {
              "name": "quoteAssetAmount",
              "type": "uint256"
            },
            {
              "name": "gasTokenAmount",
              "type": "uint256"
            },
            {
              "name": "data",
              "type": "bytes32"
            }
          ],
          "name": "order",
          "type": "tuple"
        }
      ],
      "name": "cancelOrder",
      "outputs": [],
      "payable": false,
      "stateMutability": "nonpayable",
      "type": "function"
    },
    {
      "constant": false,
      "inputs": [],
      "name": "joinIncentiveSystem",
      "outputs": [],
      "payable": false,
      "stateMutability": "nonpayable",
      "type": "function"
    },
    {
      "constant": false,
      "inputs": [
        {
          "name": "newInsuranceRatio",
          "type": "uint256"
        }
      ],
      "name": "updateInsuranceRatio",
      "outputs": [],
      "payable": false,
      "stateMutability": "nonpayable",
      "type": "function"
    },
    {
      "constant": false,
      "inputs": [
        {
          "name": "newConfig",
          "type": "bytes32"
        }
      ],
      "name": "updateDiscountConfig",
      "outputs": [],
      "payable": false,
      "stateMutability": "nonpayable",
      "type": "function"
    },
    {
      "constant": false,
      "inputs": [
        {
          "name": "marketID",
          "type": "uint16"
        },
        {
          "name": "usability",
          "type": "bool"
        }
      ],
      "name": "setMarketBorrowUsability",
      "outputs": [],
      "payable": false,
      "stateMutability": "nonpayable",
      "type": "function"
    },
    {
      "constant": true,
      "inputs": [],
      "name": "getAuctionsCount",
      "outputs": [
        {
          "name": "count",
          "type": "uint32"
        }
      ],
      "payable": false,
      "stateMutability": "view",
      "type": "function"
    },
    {
      "constant": true,
      "inputs": [
        {
          "name": "marketID",
          "type": "uint16"
        },
        {
          "name": "asset",
          "type": "address"
        },
        {
          "name": "user",
          "type": "address"
        }
      ],
      "name": "marketBalanceOf",
      "outputs": [
        {
          "name": "balance",
          "type": "uint256"
        }
      ],
      "payable": false,
      "stateMutability": "view",
      "type": "function"
    },
    {
      "constant": false,
      "inputs": [
        {
          "name": "newOwner",
          "type": "address"
        }
      ],
      "name": "transferOwnership",
      "outputs": [],
      "payable": false,
      "stateMutability": "nonpayable",
      "type": "function"
    },
    {
      "constant": true,
      "inputs": [
        {
          "name": "asset",
          "type": "address"
        },
        {
          "name": "user",
          "type": "address"
        }
      ],
      "name": "balanceOf",
      "outputs": [
        {
          "name": "balance",
          "type": "uint256"
        }
      ],
      "payable": false,
      "stateMutability": "view",
      "type": "function"
    },
    {
      "constant": false,
      "inputs": [
        {
          "name": "delegate",
          "type": "address"
        }
      ],
      "name": "revokeDelegate",
      "outputs": [],
      "payable": false,
      "stateMutability": "nonpayable",
      "type": "function"
    },
    {
      "inputs": [
        {
          "name": "_hotTokenAddress",
          "type": "address"
        }
      ],
      "payable": false,
      "stateMutability": "nonpayable",
      "type": "constructor"
    },
    {
      "payable": true,
      "stateMutability": "payable",
      "type": "fallback"
    },
    {
      "anonymous": false,
      "inputs": [
        {
          "indexed": true,
          "name": "previousOwner",
          "type": "address"
        },
        {
          "indexed": true,
          "name": "newOwner",
          "type": "address"
        }
      ],
      "name": "OwnershipTransferred",
      "type": "event"
    }
  ],
  "bytecode": "0x60806040523480156200001157600080fd5b5060405160208062005dc38339810180604052620000339190810190620000d9565b600080546001600160a01b03191633178082556040516001600160a01b039190911691907f8be0079c531659141344cd1fd0a4f28419497f9722a3daafe3b4186f6b6457e0908290a3601380546001600160a01b0319166001600160a01b03929092169190911790557f043c000027106400004e205a000075305000009c4046000000000000000000006010556200012e565b8051620000d38162000114565b92915050565b600060208284031215620000ec57600080fd5b6000620000fa8484620000c6565b949350505050565b60006001600160a01b038216620000d3565b6200011f8162000102565b81146200012b57600080fd5b50565b615c85806200013e6000396000f3fe6080604052600436106102935760003560e01c8063715018a61161015a578063a6fc9191116100c1578063ddf1f0f41161007a578063ddf1f0f414610813578063e45c187914610833578063ee68495514610855578063f2fde38b14610875578063f7888aec14610895578063fa352c00146108b557610293565b8063a6fc91911461075e578063b31610db1461077e578063b6b3618e1461079e578063b875bdf1146107be578063bb6d5838146107d3578063c747fcc0146107f357610293565b80638da5cb5b116101135780638da5cb5b146106bf5780638ea17c7b146106d45780638f32d59b146106f4578063929066f5146107095780639c61a3dd146107295780639f0bf0a71461073e57610293565b8063715018a614610617578063762a48621461062c5780637e6ef7fc1461064c5780638059cf3b1461066c5780638538d14e1461067f57806386e4d9731461069f57610293565b8063325b7b03116101fe57806353bab42e116101b757806353bab42e1461054857806355559a86146105755780635be53e74146105955780635dae042d146105b7578063637b93ed146105d757806368da10ae146105f757610293565b8063325b7b03146104835780633560c5cd146104a55780633b481b0a146104ba5780633e5893be146104da57806343239e9b146104fa5780634376abf11461052857610293565b80631a8cd123116102505780631a8cd123146103a957806321028767146103c95780632a2b1240146103e95780632d6a60251461040957806330b8b2c614610436578063316e5b1e1461046357610293565b806306df453e146102a95780630c511d11146102cb5780630f8eeeb014610301578063101424d91461032157806313a300131461034e578063168ba56c1461037b575b6102a660016102a06108d5565b346108da565b50005b3480156102b557600080fd5b506102c96102c436600461428d565b61093a565b005b3480156102d757600080fd5b506102eb6102e63660046144fb565b610948565b6040516102f89190615527565b60405180910390f35b34801561030d57600080fd5b506102eb61031c366004614436565b61095d565b34801561032d57600080fd5b5061034161033c36600461428d565b61097e565b6040516102f89190615a89565b34801561035a57600080fd5b5061036e61036936600461462a565b610a5d565b6040516102f891906157e0565b34801561038757600080fd5b5061039b610396366004614436565b610ae7565b6040516102f8929190615535565b3480156103b557600080fd5b506103416103c4366004614648565b610b8e565b3480156103d557600080fd5b506102c96103e4366004614699565b610bbc565b3480156103f557600080fd5b506102c961040436600461474a565b610c68565b34801561041557600080fd5b5061042961042436600461472c565b610cf1565b6040516102f891906157c3565b34801561044257600080fd5b5061045661045136600461428d565b610d98565b6040516102f891906157b5565b34801561046f57600080fd5b5061034161047e3660046142ab565b610df3565b34801561048f57600080fd5b50610498610e0c565b6040516102f891906154fa565b3480156104b157600080fd5b506102c9610e1b565b3480156104c657600080fd5b506102c96104d5366004614332565b610e27565b3480156104e657600080fd5b506102eb6104f536600461428d565b610ed3565b34801561050657600080fd5b5061051a610515366004614466565b610ee0565b6040516102f8929190615a97565b34801561053457600080fd5b5061034161054336600461428d565b610efa565b34801561055457600080fd5b50610568610563366004614436565b610f07565b6040516102f891906157d2565b34801561058157600080fd5b506103416105903660046144fb565b610f26565b3480156105a157600080fd5b506105aa610f38565b6040516102f89190615516565b3480156105c357600080fd5b506103416105d236600461428d565b610fbb565b3480156105e357600080fd5b506103416105f236600461428d565b610ff0565b34801561060357600080fd5b5061034161061236600461428d565b611019565b34801561062357600080fd5b506102c9611031565b34801561063857600080fd5b506102c96106473660046142e5565b6110a2565b34801561065857600080fd5b506102eb610667366004614519565b61113f565b6102c961067a366004614496565b61115a565b34801561068b57600080fd5b5061034161069a36600461428d565b6111cc565b3480156106ab57600080fd5b506102c96106ba36600461457b565b6111e4565b3480156106cb57600080fd5b50610498611248565b3480156106e057600080fd5b506103416106ef3660046143f3565b611257565b34801561070057600080fd5b506102eb61127d565b34801561071557600080fd5b506102eb61072436600461428d565b61128e565b34801561073557600080fd5b5061034161129b565b34801561074a57600080fd5b506102c9610759366004614599565b6112a5565b34801561076a57600080fd5b506102c96107793660046144fb565b6112b0565b34801561078a57600080fd5b5061051a61079936600461428d565b611314565b3480156107aa57600080fd5b506102c96107b93660046145ce565b61132b565b3480156107ca57600080fd5b506102c9611344565b3480156107df57600080fd5b506102c96107ee3660046144fb565b61134e565b3480156107ff57600080fd5b506102c961080e3660046144fb565b6113b2565b34801561081f57600080fd5b506102c961082e366004614669565b611416565b34801561083f57600080fd5b5061084861147c565b6040516102f89190615aa5565b34801561086157600080fd5b50610341610870366004614648565b611488565b34801561088157600080fd5b506102c961089036600461428d565b6114b6565b3480156108a157600080fd5b506103416108b03660046142ab565b611561565b3480156108c157600080fd5b506102c96108d036600461428d565b611571565b600e90565b6000806108e56108d5565b6001600160a01b0316846001600160a01b03161415610905575081610911565b6109118433308661157c565b610925858561091f336115fd565b8661162d565b6109303385856116c3565b90505b9392505050565b610945600182611713565b50565b60009081526012602052604090205460ff1690565b600061096a600183611751565b6109766001848461177c565b519392505050565b60006109886108d5565b6001600160a01b0316826001600160a01b031614156109c357506001600160a01b038116600090815260036020526040902054303103610a58565b6001600160a01b03821660008181526003602052604090819020549051600160e01b6370a082310281529091906370a0823190610a04903090600401615508565b60206040518083038186803b158015610a1c57600080fd5b505afa158015610a30573d6000803e3d6000fd5b505050506040513d601f19601f82011682018060405250610a54919081019061470e565b0390505b919050565b610a6561398e565b610a70600183611751565b5061ffff16600090815260056020818152604092839020835160e08101855281546001600160a01b0390811682526001830154169281019290925260028101549382019390935260038301546060820152600483015460808201529082015460a082015260069091015460ff16151560c082015290565b600080610af5600184611751565b604051600160e21b63090a15a302815273__Auctions______________________________90632428568c90610b349060019088908890600401615943565b604080518083038186803b158015610b4b57600080fd5b505af4158015610b5f573d6000803e3d6000fd5b505050506040513d601f19601f82011682018060405250610b8391908101906144cb565b909590945092505050565b6000610b9b600185611751565b610ba760018585611962565b610bb460018584866119d8565b949350505050565b610bc461127d565b610bec57604051600160e51b62461bcd028152600401610be390615735565b60405180910390fd5b604051600160e01b63db9ad4c702815273__OperationsComponent___________________9063db9ad4c790610c3190600190899089908990899089906004016159f9565b60006040518083038186803b158015610c4957600080fd5b505af4158015610c5d573d6000803e3d6000fd5b505050505050505050565b610c73600183611b3c565b610c7e600183611b6c565b604051600160e01b634a02549102815273__Auctions______________________________90634a02549190610cbd9060019086908690600401615a61565b60006040518083038186803b158015610cd557600080fd5b505af4158015610ce9573d6000803e3d6000fd5b505050505050565b610cf96139df565b610d04600183611b3c565b604051600160e01b63fc1d5a3302815273__Auctions______________________________9063fc1d5a3390610d41906001908690600401615a53565b6101206040518083038186803b158015610d5a57600080fd5b505af4158015610d6e573d6000803e3d6000fd5b505050506040513d601f19601f82011682018060405250610d92919081019061455c565b92915050565b610da0613a2b565b610dab600183611bbc565b506001600160a01b0390811660009081526002602081815260409283902083516060810185528154861681526001820154861692810192909252909101549092169082015290565b6000610e00600184611bbc565b61093360018484611be5565b6013546001600160a01b031690565b610e256001611c12565b565b610e2f61127d565b610e4e57604051600160e51b62461bcd028152600401610be390615735565b604051600160e31b6313cafdf102815273__OperationsComponent___________________90639e57ef8890610e99906001908c908c908c908c908c908c908c908c906004016158c9565b60006040518083038186803b158015610eb157600080fd5b505af4158015610ec5573d6000803e3d6000fd5b505050505050505050505050565b6000610d92600183611c37565b600080610eee600185611bbc565b610b8360018585611c7e565b6000610d92600183611db1565b610f0f613a4b565b610f1a600183611751565b6109336001848461177c565b60009081526011602052604090205490565b601880546040805160208084028201810190925282815260609390929091830182828015610fb157602002820191906000526020600020906000905b82829054906101000a900463ffffffff1663ffffffff1681526020019060040190602082600301049283019260010382029150808411610f745790505b5050505050905090565b6000610fc8600183611bbc565b6001600160a01b03808316600090815260026020526040902060010154610d92911683611e99565b6000610ffd600183611bbc565b506001600160a01b031660009081526008602052604090205490565b6000611026600183611bbc565b610d92600183611ee9565b61103961127d565b61105857604051600160e51b62461bcd028152600401610be390615735565b600080546040516001600160a01b03909116907f8be0079c531659141344cd1fd0a4f28419497f9722a3daafe3b4186f6b6457e0908390a3600080546001600160a01b0319169055565b6110aa61127d565b6110c957604051600160e51b62461bcd028152600401610be390615735565b604051600160e01b632241a75b02815273__OperationsComponent___________________90632241a75b9061110a90600190879087908790600401615894565b60006040518083038186803b15801561112257600080fd5b505af4158015611136573d6000803e3d6000fd5b50505050505050565b6000610bb484846111553686900386018661460c565b611f04565b604051600160e61b6303d5fb8902815273__BatchActions__________________________9063f57ee24090611199906001908590349060040161596b565b60006040518083038186803b1580156111b157600080fd5b505af41580156111c5573d6000803e3d6000fd5b5050505050565b60006111d9600183611bbc565b610d92600183612013565b6111ec61127d565b61120b57604051600160e51b62461bcd028152600401610be390615735565b604051600160e11b630893a49102815273__OperationsComponent___________________906311274922906111999060019085906004016159b5565b6000546001600160a01b031690565b6000611264600183611751565b61127060018386611962565b610bb4600185858561202e565b6000546001600160a01b0316331490565b6000610d92600183612087565b60015461ffff1690565b6109456001826120aa565b6112b861127d565b6112d757604051600160e51b62461bcd028152600401610be390615735565b604051600160e01b63fd9dbeeb02815273__OperationsComponent___________________9063fd9dbeeb9061119990600190859060040161599a565b600080611322600184612333565b91509150915091565b610945600161133f368490038401846145ed565b612449565b610e2560016124a6565b61135661127d565b61137557604051600160e51b62461bcd028152600401610be390615735565b604051600160e01b63e78e90d702815273__OperationsComponent___________________9063e78e90d79061119990600190859060040161599a565b6113ba61127d565b6113d957604051600160e51b62461bcd028152600401610be390615735565b604051600160e01b635b23795502815273__OperationsComponent___________________90635b2379559061119990600190859060040161599a565b61141e61127d565b61143d57604051600160e51b62461bcd028152600401610be390615735565b604051600160e01b637fd4687102815273__OperationsComponent___________________90637fd4687190610cbd90600190869086906004016159d1565b60165463ffffffff1690565b6000611495600185611751565b6114a160018585611962565b610bb460016114b084876124c8565b856124ff565b6114be61127d565b6114dd57604051600160e51b62461bcd028152600401610be390615735565b6001600160a01b03811661150657604051600160e51b62461bcd028152600401610be3906156f5565b600080546040516001600160a01b03808516939216917f8be0079c531659141344cd1fd0a4f28419497f9722a3daafe3b4186f6b6457e091a3600080546001600160a01b0319166001600160a01b0392909216919091179055565b600061093360016114b0846115fd565b610945600182612536565b60008051600451602451604451600160e01b6323b872dd026000528760045286602452856044526020600060646000808d5af1600051856000528460045283602452826044526000811160203d141660003d141760018314169650505050505050806111c557604051600160e51b62461bcd028152600401610be3906155c5565b611605613a74565b5060408051606081018252600080825260208201526001600160a01b03929092169082015290565b600061163f838663ffffffff61256d16565b6001600160a01b03851660009081526020829052604090205490915061166b908363ffffffff6125db16565b6001600160a01b0385166000908152602083815260408083209390935560028801905220546116a0908363ffffffff61260316565b6001600160a01b0390941660009081526002909501602052505060409092205550565b816001600160a01b0316836001600160a01b03167f5548c837ab068cf56a2c2479df0882a4922fd203edb7517321831d95078c5f62836040516117069190615a89565b60405180910390a3505050565b33600081815260138401602090815260408083206001600160a01b03861684529091529020805460ff1916600117905561174d9082612655565b5050565b815461ffff9081169082161061174d57604051600160e51b62461bcd028152600401610be390615795565b611784613a4b565b6001600160a01b0383166000908152600385016020908152604080832061ffff8616845282528083206004880183529220825490918401906601000000000000900460ff1660018111156117d457fe5b908160018111156117e157fe5b90525080546001808301546001600160a01b0392831660008181528a840160205260408120909301549093918216929161181c911684611e99565b6001600160a01b0380841660009081526001808d0160205260408220015492935091611849911684611e99565b905060006118598b868c8c61202e565b905060006118698c868d8d61202e565b9050611873612699565b61189b611886848763ffffffff6126a516565b611896848763ffffffff6126a516565b6125db565b816118a257fe5b0460408a01526118b0612699565b6001600160a01b038716600090815260018a01602052604090205461190a906118df908763ffffffff6126a516565b6001600160a01b038816600090815260018c016020526040902054611896908763ffffffff6126a516565b8161191157fe5b0460608a015260008960200151600181111561192957fe5b141561194e57611941896040015188600201546126e2565b60608a0151108952611953565b600089525b50505050505050509392505050565b61ffff821660009081526004840160205260409020546001600160a01b03828116911614806119b4575061ffff821660009081526004840160205260409020600101546001600160a01b038281169116145b6119d357604051600160e51b62461bcd028152600401610be3906156a5565b505050565b60006119e2613a4b565b6119ed86858761177c565b6001600160a01b0380861660009081526003808a016020908152604080842061ffff8c16808652908352818520958a16855260019095018252808420548187015195855260048d01909252832090910154939450929091611a4d916126e2565b90508260600151811115611a675760009350505050610bb4565b60608301516001600160a01b0380871660009081526001808c016020526040808320909101549051600160e01b6341976e090281529385900393919216906341976e0990611ab9908a906004016154fa565b60206040518083038186803b158015611ad157600080fd5b505afa158015611ae5573d6000803e3d6000fd5b505050506040513d601f19601f82011682018060405250611b09919081019061470e565b90506000611b178383612700565b905084811115611b2f57849650505050505050610bb4565b9550610bb4945050505050565b601582015463ffffffff9081169082161061174d57604051600160e51b62461bcd028152600401610be390615675565b600063ffffffff82166000908152601684016020526040902054640100000000900460ff166001811115611b9c57fe5b1461174d57604051600160e51b62461bcd028152600401610be390615595565b611bc6828261271e565b61174d57604051600160e51b62461bcd028152600401610be3906155d5565b600080611bf28585612333565b509050611c09611c03868686612744565b826127d8565b95945050505050565b3360008181526014830160205260409020805460ff1916600117905561094590612802565b6000336001600160a01b03831614806109335750506001600160a01b031660009081526013919091016020908152604080832033845290915290205460ff16151560011490565b600080600080611c8e8787612333565b915091506000611c9f888885612839565b905080611cb6575060009350839250611da9915050565b6000611cd387611cc78b8b8761284e565b9063ffffffff6125db16565b90506000611cff83611cf3611ce6612699565b859063ffffffff6126a516565b9063ffffffff61287316565b6001600160a01b03808b16600090815260018d016020526040902060020154919250611d2c9116826128a0565b9650611d36612699565b600302871115611d5b57604051600160e51b62461bcd028152600401610be390615725565b6000611d6783896126e2565b90506000611d9382611d8e8e60060160000154611d82612699565b9063ffffffff6128de16565b6127d8565b9050611d9f8186612700565b9750505050505050505b935093915050565b60128201546000908190611dce906001600160a01b031684612909565b905080611de557611ddd612950565b915050610d92565b600f84015460f881901c6000611e0984670de0b6b3a764000063ffffffff61287316565b935060005b82811015611e4f576008600260058302010284901b60e01c915081851015611e47576008600660058302010284901b60f81c9550611e4f565b600101611e0e565b5084611e65578260011a60f81b60f81c60ff1694505b611e6d612950565b851115611e8f57604051600160e51b62461bcd028152600401610be3906155b5565b5050505092915050565b6000600160e01b6341976e09028180611ebc86846001600160a01b038816612955565b9150915080611ee057604051600160e51b62461bcd028152600401610be390615605565b50949350505050565b600080611ef68484612333565b509050610bb4848483612839565b8051600090600181901a60f890811b811c91839190821a811b901c82611fa857600187604051602001611f3791906154ad565b60405160208183030381529060405280519060200120828760200151886040015160405160008152602001604052604051611f759493929190615550565b6020604051602081039080840390855afa158015611f97573d6000803e3d6000fd5b505050602060405103519150611ffa565b60ff831660011415611fdf57600187828760200151886040015160405160008152602001604052604051611f759493929190615550565b604051600160e51b62461bcd028152600401610be390615635565b506001600160a01b038581169116149150509392505050565b6000806120208484612333565b915050610bb484848361284e565b60008061203b8686612333565b6001600160a01b038087166000908152600e8a016020908152604080832061ffff8a1684528252808320938b168352929052205490925061207d9150826126e2565b9695505050505050565b6001600160a01b03166000908152601491909101602052604090205460ff161590565b6120bc82826060015160400151611c37565b6120db57604051600160e51b62461bcd028152600401610be390615755565b80516120e69061298a565b1561210657604051600160e51b62461bcd028152600401610be3906156d5565b600061211a83836060015160400151612087565b9050600061212d848460000151846129a9565b9050612137613a96565b61214a85856000015186606001516129c7565b9050606084602001515160405190808252806020026020018201604052801561218d57816020015b61217a613aba565b8152602001906001900390816121725790505b50905060005b856020015151811015612303576121c0866020015182815181106121b357fe5b6020026020010151612b3c565b156121e057604051600160e51b62461bcd028152600401610be390615765565b612200866020015182815181106121f357fe5b6020026020010151612b4b565b151561220f8760000151612b4b565b1515141561223257604051600160e51b62461bcd028152600401610be390615775565b61225786600001518760200151838151811061224a57fe5b6020026020010151612b5a565b61225f613a96565b612285888860200151848151811061227357fe5b602002602001015189606001516129c7565b90506122c9888860000151868a6020015186815181106122a157fe5b6020026020010151858c6040015188815181106122ba57fe5b60200260200101518b8d612bd8565b8383815181106122d557fe5b602090810291909101810191909152818101519151600090815260108a019091526040902055600101612193565b50602080830151835160009081526010890190925260409091205584516060860151610ce9918891849190612e68565b6001600160a01b0381166000908152600a830160205260408120548190819061236390429063ffffffff6128de16565b6001600160a01b0385166000908152600b87016020526040812054919250906123a8906301e133809061239c908563ffffffff6126a516565b9063ffffffff61323116565b6001600160a01b0386166000908152600c88016020526040812054919250906123e1906301e1338090611cf3908663ffffffff6126a516565b6001600160a01b03871660009081526008890160205260409020549091506124119061240c8461325e565b6126e2565b6001600160a01b038716600090815260098901602052604090205490945061243c90611d8e8361325e565b94505050505b9250929050565b80516001600160a01b0316331461247557604051600160e51b62461bcd028152600401610be390615645565b600061248082613278565b60008181526011850160205260409020805460ff1916600117905590506119d38161328b565b3360008181526014830160205260409020805460ff19169055610945906132b9565b6124d0613a74565b50604080516060810182526001815261ffff90921660208301526001600160a01b039092169181019190915290565b600080612512848663ffffffff61256d16565b6001600160a01b038416600090815260209190915260409020549150509392505050565b33600081815260138401602090815260408083206001600160a01b03861684529091529020805460ff1916905561174d90826132f0565b6000808351600181111561257d57fe5b14156125a557506040808301516001600160a01b031660009081526005830160205220610d92565b506040808301516001600160a01b031660009081526003830160209081528282208186015161ffff168352905220600101610d92565b60008282018381101561093357604051600160e51b62461bcd028152600401610be390615745565b60006001600160ff1b0382111561262f57604051600160e51b62461bcd028152600401610be390615715565b8282018381121561093357604051600160e51b62461bcd028152600401610be390615715565b806001600160a01b0316826001600160a01b03167f7fa92f6e23fcdb0b7a7001ea137560a8ebee9b8302d16e3b37c64ae7116b69ad60405160405180910390a35050565b670de0b6b3a764000090565b6000826126b457506000610d92565b828202828482816126c157fe5b041461093357604051600160e51b62461bcd028152600401610be390615785565b6000610933670de0b6b3a764000061239c858563ffffffff6126a516565b600061093382611cf385670de0b6b3a764000063ffffffff6126a516565b6001600160a01b0390811660009081526001928301602052604090209091015416151590565b6001600160a01b038083166000908152600185016020526040808220549051600160e01b6370a08231028152919216906370a08231906127889085906004016154fa565b60206040518083038186803b1580156127a057600080fd5b505afa1580156127b4573d6000803e3d6000fd5b505050506040513d601f19601f82011682018060405250610bb4919081019061470e565b6000670de0b6b3a76400006127f3848463ffffffff6126a516565b816127fa57fe5b049392505050565b6040516001600160a01b038216907f9bdfcd96a99ab6dad403b4ef4562bb3471fdeaab5e699160abf7c3f2cbe6680590600090a250565b6000610bb46128488585613334565b836127d8565b6001600160a01b0382166000908152600d84016020526040812054610bb490836126e2565b600080821161289757604051600160e51b62461bcd028152600401610be390615665565b8183816127fa57fe5b6000600160e01b6369e8a15f0281806128ba868487612955565b9150915080611ee057604051600160e51b62461bcd028152600401610be3906155f5565b60008282111561290357604051600160e51b62461bcd028152600401610be3906156c5565b50900390565b6000600160e01b6370a0823102818061292c86846001600160a01b038816612955565b9150915080611ee057604051600160e51b62461bcd028152600401610be390615655565b606490565b600080604051805160048201518683528560048401526020836024858b5afa8351928452600490930152969095509350505050565b608081015160009060165b1a60f81b60f81c60ff166001149050919050565b6000806129b5846133c3565b9050611c0985856000015183866133d0565b6129cf613a96565b60026129da84613404565b146129fa57604051600160e51b62461bcd028152600401610be3906155e5565b612a02613b3c565b612a0c848461340e565b9050612a1781613278565b8083526000908152601086016020908152604090912054908301526002612a3d85613475565b158015612a5257508160800151836020015110155b15612a615760035b9050612abf565b612a6a85613475565b8015612a7e57508160a00151836020015110155b15612a8a576003612a5a565b612a9385613491565b4210612aa0576000612a5a565b8251600090815260118701602052604090205460ff1615612abf575060015b60ff8116600214612ae557604051600160e51b62461bcd028152600401610be3906155a5565b8251855160a0870151612af9929190611f04565b612b1857604051600160e51b62461bcd028152600401610be390615625565b612b218561349e565b60408401819052612b3390879061351f565b50509392505050565b60808101516000906002612995565b60808101516000906001612995565b6000612b77826020015184604001516126a590919063ffffffff16565b90506000612b96836040015185602001516126a590919063ffffffff16565b9050612ba184612b4b565b612bae5780821015612bb3565b808211155b612bd257604051600160e51b62461bcd028152600401610be3906156e5565b50505050565b612be0613aba565b6101008101849052612bf28685613547565b6101208201526040808801516101608301528501516101408201526020870151612c2157606088015160e08201525b6020850151612c3557606086015160c08201525b612c3e88613475565b612c8d576101008101516020880151612c5c9163ffffffff6125db16565b60208089018290528901511015612c8857604051600160e51b62461bcd028152600401610be390615705565b612cd4565b6101208101516020880151612ca79163ffffffff6125db16565b6020880181905260408901511015612cd457604051600160e51b62461bcd028152600401610be390615705565b6101008101516020860151612cee9163ffffffff6125db16565b60208087018290528701511015612d1a57604051600160e51b62461bcd028152600401610be390615615565b85516001600160a01b0390811682528851166020820152612d3a88612b4b565b15612d545780516001600160a01b03166040820152612d68565b60208101516001600160a01b031660408201525b6000612d738761355c565b90508015612ddd5760006060830152612dd3612db7612d90612950565b612dab612d9b612950565b620186a09063ffffffff6126a516565b9063ffffffff6126a516565b611cf383612dab888761012001516126a590919063ffffffff16565b6080830152612e32565b6000612de88861357b565b600060808501819052895191925090612e04908d9084886133d0565b9050612e2a612e14612d9b612950565b610120860151611cf3908463ffffffff6126a516565b606085015250505b612e56612e40612d9b612950565b610120840151611cf3908763ffffffff6126a516565b60a08301525098975050505050505050565b6000612e7383612b4b565b90506000612e7f613a74565b5060408051606081018252600080825260208201819052858301516001600160a01b031692820192909252905b86518110156131e357612f5688866000015186612ee157898481518110612ecf57fe5b60200260200101516101400151612efb565b898481518110612eed57fe5b602002602001015161016001515b87612f1e578a8581518110612f0c57fe5b60200260200101516101600151612f38565b8a8581518110612f2a57fe5b602002602001015161014001515b8b8681518110612f4457fe5b60200260200101516101000151613588565b60008415612fdd57612fd6888381518110612f6d57fe5b602002602001015160800151611d828a8581518110612f8857fe5b602002602001015160c00151611cc78c8781518110612fa357fe5b6020026020010151606001518d8881518110612fbb57fe5b602002602001015161012001516125db90919063ffffffff16565b9050613058565b613055888381518110612fec57fe5b602002602001015160800151611cc78a858151811061300757fe5b602002602001015160c00151611d828c878151811061302257fe5b6020026020010151606001518d888151811061303a57fe5b602002602001015161012001516128de90919063ffffffff16565b90505b6130e189876020015187613084578a858151811061307257fe5b6020026020010151610160015161309e565b8a858151811061309057fe5b602002602001015161014001515b886130c1578b86815181106130af57fe5b602002602001015161014001516130db565b8b86815181106130cd57fe5b602002602001015161016001515b85613588565b613103898984815181106130f157fe5b6020026020010151610140015161365e565b61314888838151811061311257fe5b602002602001015160600151611cc78a858151811061312d57fe5b602002602001015160a00151876125db90919063ffffffff16565b935061318f88838151811061315957fe5b602002602001015160e00151611cc78a858151811061317457fe5b602002602001015160c00151876125db90919063ffffffff16565b93506131bb8883815181106131a057fe5b602002602001015160800151856128de90919063ffffffff16565b93506131da8883815181106131cc57fe5b602002602001015187613686565b50600101612eac565b5061320e878560200151886000815181106131fa57fe5b602002602001015161016001518486613588565b611136878760008151811061321f57fe5b6020026020010151610160015161365e565b60008061323e8484612873565b90508281028403801561325657506001019050610d92565b509050610d92565b6000610d9282670de0b6b3a764000063ffffffff6125db16565b6000610d92613286836136ff565b613741565b60405181907fdfcfd7b1e4d40c282e16bfdfa04bba6792f850249f83ed258c3fecc3c5962fbc90600090a250565b6040516001600160a01b038216907fc3dd8edec722273de2ffd31b47b4f106689ae891ac1bfddf7ae6190589ab0f6790600090a250565b806001600160a01b0316826001600160a01b03167fa6568d7ca1ae4c87043ca12f90308b8ef94330ee3a047c2101e1a40812d26c9860405160405180910390a35050565b6001600160a01b0380821660009081526001840160209081526040808320548151600160e01b6318160ddd0281529151939416926318160ddd92600480840193919291829003018186803b15801561338b57600080fd5b505afa15801561339f573d6000803e3d6000fd5b505050506040513d601f19601f82011682018060405250610933919081019061470e565b6080015160501b60f01c90565b600081156133f9576133f26133e58686611db1565b849063ffffffff6126a516565b9050610bb4565b6133f26133e5612950565b6080015160f81c90565b613416613b3c565b82516001600160a01b03908116825260208085015160808085019190915260408087015160a086015260608088015160c0870152919096015160e085015284518316868501528482015183169084015292909301519092169082015290565b600061348082612b4b565b158015610d925750610d9282612b3c565b6080015160181b60d81c90565b6134a6613a74565b60008060b88460800151901b6001600160f81b031916600160f81b14156134dc575050608082015160019060c01b60f01c6134e3565b5060009050805b60405180606001604052808360018111156134fa57fe5b815261ffff909216602083015293516001600160a01b03166040909101525090919050565b60018151600181111561352e57fe5b141561174d5761174d828260200151836040015161380f565b60006109338360400151846020015184613873565b608081015160009060601b60f01c61093381613576612950565b6138b3565b6080015160401b60f01c90565b6135938584866138c9565b61359e8583866138c9565b60006135b0848763ffffffff61256d16565b905060006135c4848863ffffffff61256d16565b6001600160a01b03871660009081526020849052604090205490915083111561360257604051600160e51b62461bcd028152600401610be3906156b5565b6001600160a01b0386166000908152602083815260408083208054879003905590839052902054613639908463ffffffff6125db16565b6001600160a01b03909616600090815260209190915260409020949094555050505050565b60018151600181111561366d57fe5b141561174d5761174d82826040015183602001516138fb565b7f6bf96fcc2cec9e08b082506ebbc10114578a497ff1ea436628ba8996b750677c81836000015184602001518560400151866060015187608001518860a001518960c001518a60e001518b61010001518c61012001516040516136f39b9a999897969594939291906157ee565b60405180910390a15050565b600080604051602001613711906154e4565b60408051601f19818403810182529290915280516020909101209301805193815261012081209390525090919050565b6000604051602001613752906154ef565b60408051601f1981840301815282825280516020918201208383018352601384527f42697446696e616e63652050726f746f636f6c000000000000000000000000009382019390935290516137ca92917f8cecbb4fdec90c7c4de7da8d8ac1533b1fb39a8f76f76c0133754f9daf3bbe7a9101615487565b60405160208183030381529060405280519060200120826040516020016137f29291906154cd565b604051602081830303815290604052805190602001209050919050565b60006001600160a01b0382166000908152600385016020908152604080832061ffff871684529091529020546601000000000000900460ff16600181111561385357fe5b146119d357604051600160e51b62461bcd028152600401610be390615585565b6000613880848484613927565b156138a057604051600160e51b62461bcd028152600401610be390615685565b610bb46138ad85846126a5565b84612873565b60008183106138c25781610933565b5090919050565b6001825160018111156138d857fe5b14156119d3576138ec838360200151611751565b6119d383836020015183611962565b61390683838361177c565b51156119d357604051600160e51b62461bcd028152600401610be390615695565b600061393384836126a5565b61395161394961394387866126a5565b8661395b565b6103e86126a5565b1015949350505050565b60008161397d57604051600160e51b62461bcd028152600401610be3906157a5565b81838161398657fe5b069392505050565b6040518060e0016040528060006001600160a01b0316815260200160006001600160a01b03168152602001600081526020016000815260200160008152602001600081526020016000151581525090565b6040805161012081018252600080825260208201819052918101829052606081018290526080810182905260a0810182905260c0810182905260e0810182905261010081019190915290565b604080516060810182526000808252602082018190529181019190915290565b604080516080810190915260008082526020820190815260200160008152602001600081525090565b6040805160608101909152806000815260006020820181905260409091015290565b6040805160a08101825260008082526020820152908101613ab5613a74565b905290565b60405180610200016040528060006001600160a01b0316815260200160006001600160a01b0316815260200160006001600160a01b0316815260200160008152602001600081526020016000815260200160008152602001600081526020016000815260200160008152602001613b2f613a74565b8152602001613ab5613a74565b6040805161010081018252600080825260208201819052918101829052606081018290526080810182905260a0810182905260c0810182905260e081019190915290565b8035610d9281615bfd565b8051610d9281615bfd565b600082601f830112613ba757600080fd5b8135613bba613bb582615ada565b615ab3565b81815260209384019390925082018360005b83811015611e8f5781358601613be28882613d99565b8452506020928301929190910190600101613bcc565b600082601f830112613c0957600080fd5b8135613c17613bb582615ada565b9150818183526020840193506020810190508385610100840282011115613c3d57600080fd5b60005b83811015611e8f5781613c538882614078565b8452506020909201916101009190910190600101613c40565b600082601f830112613c7d57600080fd5b8135613c8b613bb582615ada565b91508181835260208401935060208101905083856020840282011115613cb057600080fd5b60005b83811015611e8f5781613cc68882613cf2565b8452506020928301929190910190600101613cb3565b8035610d9281615c11565b8051610d9281615c11565b8035610d9281615c1a565b600082601f830112613d0e57600080fd5b8135613d1c613bb582615afb565b91508082526020830160208301858383011115613d3857600080fd5b613d43838284615ba7565b50505092915050565b8035610d9281615c23565b60008083601f840112613d6957600080fd5b50813567ffffffffffffffff811115613d8157600080fd5b60208301915083600182028301111561244257600080fd5b600060408284031215613dab57600080fd5b613db56040615ab3565b90506000613dc38484613d4c565b825250602082013567ffffffffffffffff811115613de057600080fd5b613dec84828501613cfd565b60208301525092915050565b60006101208284031215613e0b57600080fd5b613e16610120615ab3565b90506000613e248484613b8b565b8252506020613e3584848301614256565b6020830152506040613e4984828501613b8b565b6040830152506060613e5d84828501613b8b565b6060830152506080613e7184828501614261565b60808301525060a0613e8584828501614261565b60a08301525060c0613e9984828501614261565b60c08301525060e0613ead84828501614261565b60e083015250610100613ec284828501613ce7565b6101008301525092915050565b600060e08284031215613ee157600080fd5b613eeb60e0615ab3565b90506000613ef98484613b80565b8252506020613f0a84848301613b80565b6020830152506040613f1e84828501613cf2565b6040830152506060613f3284828501613cf2565b6060830152506080613f4684828501613cf2565b60808301525060a0613f5a84828501613cf2565b60a08301525060c0613f6e84828501613cdc565b60c08301525092915050565b60006101a08284031215613f8d57600080fd5b613f976080615ab3565b90506000613fa58484614078565b82525061010082013567ffffffffffffffff811115613fc357600080fd5b613fcf84828501613bf8565b60208301525061012082013567ffffffffffffffff811115613ff057600080fd5b613ffc84828501613c6c565b6040830152506101406140118482850161401d565b60608301525092915050565b60006060828403121561402f57600080fd5b6140396060615ab3565b905060006140478484613b80565b825250602061405884848301613b80565b602083015250604061406c84828501613b80565b60408301525092915050565b6000610100828403121561408b57600080fd5b61409560c0615ab3565b905060006140a38484613b80565b82525060206140b484848301613cf2565b60208301525060406140c884828501613cf2565b60408301525060606140dc84828501613cf2565b60608301525060806140f084828501613cf2565b60808301525060a0614104848285016141fc565b60a08301525092915050565b6000610100828403121561412357600080fd5b50919050565b6000610100828403121561413c57600080fd5b614147610100615ab3565b905060006141558484613b80565b825250602061416684848301613b80565b602083015250604061417a84828501613b80565b604083015250606061418e84828501613b80565b60608301525060806141a284828501613cf2565b60808301525060a06141b684828501613cf2565b60a08301525060c06141ca84828501613cf2565b60c08301525060e06141de84828501613cf2565b60e08301525092915050565b60006060828403121561412357600080fd5b60006060828403121561420e57600080fd5b6142186060615ab3565b905060006142268484613cf2565b825250602061423784848301613cf2565b602083015250604061406c84828501613cf2565b8035610d9281615c30565b8051610d9281615c30565b8051610d9281615c1a565b8035610d9281615c39565b8051610d9281615c39565b8035610d9281615c42565b60006020828403121561429f57600080fd5b6000610bb48484613b80565b600080604083850312156142be57600080fd5b60006142ca8585613b80565b92505060206142db85828601613b80565b9150509250929050565b6000806000606084860312156142fa57600080fd5b60006143068686613b80565b935050602061431786828701613b80565b925050604061432886828701613b80565b9150509250925092565b60008060008060008060008060c0898b03121561434e57600080fd5b600061435a8b8b613b80565b985050602061436b8b828c01613b80565b975050604061437c8b828c01613b80565b965050606089013567ffffffffffffffff81111561439957600080fd5b6143a58b828c01613d57565b9550955050608089013567ffffffffffffffff8111156143c457600080fd5b6143d08b828c01613d57565b935093505060a06143e38b828c01614282565b9150509295985092959890939650565b60008060006060848603121561440857600080fd5b60006144148686613b80565b935050602061442586828701613b80565b92505060406143288682870161424b565b6000806040838503121561444957600080fd5b60006144558585613b80565b92505060206142db8582860161424b565b6000806040838503121561447957600080fd5b60006144858585613b80565b92505060206142db85828601613cf2565b6000602082840312156144a857600080fd5b813567ffffffffffffffff8111156144bf57600080fd5b610bb484828501613b96565b600080604083850312156144de57600080fd5b60006144ea8585613ce7565b92505060206142db85828601614277565b60006020828403121561450d57600080fd5b6000610bb48484613cf2565b600080600060a0848603121561452e57600080fd5b600061453a8686613cf2565b935050602061454b86828701613b80565b9250506040614328868287016141ea565b6000610120828403121561456f57600080fd5b6000610bb48484613df8565b600060e0828403121561458d57600080fd5b6000610bb48484613ecf565b6000602082840312156145ab57600080fd5b813567ffffffffffffffff8111156145c257600080fd5b610bb484828501613f7a565b600061010082840312156145e157600080fd5b6000610bb48484614110565b6000610100828403121561460057600080fd5b6000610bb48484614129565b60006060828403121561461e57600080fd5b6000610bb484846141fc565b60006020828403121561463c57600080fd5b6000610bb4848461424b565b60008060006060848603121561465d57600080fd5b6000614306868661424b565b6000806040838503121561467c57600080fd5b6000614688858561424b565b92505060206142db85828601613cdc565b600080600080600060a086880312156146b157600080fd5b60006146bd888861424b565b95505060206146ce88828901613cf2565b94505060406146df88828901613cf2565b93505060606146f088828901613cf2565b925050608061470188828901613cf2565b9150509295509295909350565b60006020828403121561472057600080fd5b6000610bb48484614261565b60006020828403121561473e57600080fd5b6000610bb4848461426c565b6000806040838503121561475d57600080fd5b6000614485858561426c565b60006109338383615255565b60006147818383615475565b505060200190565b61479281615b7f565b82525050565b61479281615b36565b60006147ac82615b29565b6147b68185615b2d565b9350836020820285016147c885615b23565b8060005b8581101561480257848403895281516147e58582614769565b94506147f083615b23565b60209a909a01999250506001016147cc565b5091979650505050505050565b600061481a82615b29565b6148248185615b2d565b935061482f83615b23565b8060005b8381101561485d5781516148478882614775565b975061485283615b23565b925050600101614833565b509495945050505050565b61479281615b41565b61479281615b46565b61479261488682615b46565b615b46565b600061489682615b29565b6148a08185615b2d565b93506148b0818560208601615bb3565b6148b981615bdf565b9093019392505050565b61479281615b86565b61479281615b91565b61479281615b9c565b60006148ea8385615b2d565b93506148f7838584615ba7565b6148b983615bdf565b600061490d602e83615b2d565b7f43414e5f4e4f545f4f5045524154455f4c49515549444154494e475f434f4c4c81527f41544552414c5f4143434f554e54000000000000000000000000000000000000602082015260400192915050565b600061496c601883615b2d565b7f41554354494f4e5f414c52454144595f46494e49534845440000000000000000815260200192915050565b60006149a5601583615b2d565b7f4f524445525f49535f4e4f545f46494c4c41424c450000000000000000000000815260200192915050565b60006149de600e83615b2d565b7f444953434f554e545f4552524f52000000000000000000000000000000000000815260200192915050565b6000614a17601c83610a58565b7f19457468657265756d205369676e6564204d6573736167653a0a3332000000008152601c0192915050565b6000614a50601983615b2d565b7f544f4b454e5f5452414e534645525f46524f4d5f4552524f5200000000000000815260200192915050565b6000614a89600f83615b2d565b7f41535345545f4e4f545f45584953540000000000000000000000000000000000815260200192915050565b6000614ac2601b83615b2d565b7f4f524445525f56455253494f4e5f4e4f545f535550504f525445440000000000815260200192915050565b6000614afb600283610a58565b600160f01b61190102815260020192915050565b6000614b1c602d83615b2d565b7f415353454d424c595f43414c4c5f4745545f424f52524f575f494e544552455381527f545f524154455f4641494c454400000000000000000000000000000000000000602082015260400192915050565b6000614b7b602483615b2d565b7f415353454d424c595f43414c4c5f4745545f41535345545f50524943455f46418152600160e21b631253115102602082015260400192915050565b6000614bc4601683615b2d565b7f4d414b45525f4f524445525f4f5645525f4d4154434800000000000000000000815260200192915050565b6000614bfd601783615b2d565b7f494e56414c49445f4f524445525f5349474e4154555245000000000000000000815260200192915050565b6000614c36601383615b2d565b7f494e56414c49445f5349474e5f4d4554484f4400000000000000000000000000815260200192915050565b6000614c6f600e83615b2d565b7f494e56414c49445f545241444552000000000000000000000000000000000000815260200192915050565b6000614ca8602483615b2d565b7f415353454d424c595f43414c4c5f4745545f484f545f42414c414e43455f46418152600160e21b631253115102602082015260400192915050565b6000614cf1600e83615b2d565b7f4449564944494e475f4552524f52000000000000000000000000000000000000815260200192915050565b6000614d2a601183615b2d565b7f41554354494f4e5f4e4f545f4558495354000000000000000000000000000000815260200192915050565b6000614d63600e83615b2d565b7f524f554e44494e475f4552524f52000000000000000000000000000000000000815260200192915050565b6000614d9c601f83615b2d565b7f434f4c4c41544552414c5f4143434f554e545f4c4951554944415441424c4500815260200192915050565b6000614dd5601b83615b2d565b7f41535345545f4e4f545f42454c4f4e47535f544f5f4d41524b45540000000000815260200192915050565b6000614e0e601b83615b2d565b7f5452414e534645525f42414c414e43455f4e4f545f454e4f5547480000000000815260200192915050565b6000614e47600983615b2d565b600160b91b6829aaa12fa2a92927a902815260200192915050565b6000614e6f609f83610a58565b7f4f726465722861646472657373207472616465722c616464726573732072656c81527f617965722c61646472657373206261736541737365742c61646472657373207160208201527f756f746541737365742c75696e7432353620626173654173736574416d6f756e60408201527f742c75696e743235362071756f74654173736574416d6f756e742c75696e743260608201527f353620676173546f6b656e416d6f756e742c62797465733332206461746129006080820152609f0192915050565b6000614f40602083615b2d565b7f4d414b45525f4f4e4c595f4f524445525f43414e4e4f545f42455f54414b4552815260200192915050565b6000614f79600d83615b2d565b7f494e56414c49445f4d4154434800000000000000000000000000000000000000815260200192915050565b6000614fb2600d83615b2d565b7f494e56414c49445f4f574e455200000000000000000000000000000000000000815260200192915050565b6000614feb601683615b2d565b7f54414b45525f4f524445525f4f5645525f4d4154434800000000000000000000815260200192915050565b6000615024601983610a58565b7f454950373132446f6d61696e28737472696e67206e616d652900000000000000815260190192915050565b600061505d601083615b2d565b7f494e543235365f4144445f4552524f5200000000000000000000000000000000815260200192915050565b6000615096602083615b2d565b7f424f52524f575f494e5445524553545f524154455f4558434545445f33303025815260200192915050565b60006150cf600983615b2d565b600160b91b682727aa2fa7aba722a902815260200192915050565b60006150f7600983615b2d565b600160b91b6820a2222fa2a92927a902815260200192915050565b600061511f600e83615b2d565b7f494e56414c49445f53454e444552000000000000000000000000000000000000815260200192915050565b6000615158602383615b2d565b7f4d414b45525f4f524445525f43414e5f4e4f545f42455f4d41524b45545f4f528152600160e91b622222a902602082015260400192915050565b60006151a0600c83615b2d565b7f494e56414c49445f534944450000000000000000000000000000000000000000815260200192915050565b60006151d9600983615b2d565b600160b91b6826aaa62fa2a92927a902815260200192915050565b6000615201601083615b2d565b7f4d41524b45545f4e4f545f455849535400000000000000000000000000000000815260200192915050565b600061523a600983615b2d565b600160b91b6826a7a22fa2a92927a902815260200192915050565b8051600090604084019061526985826148cc565b5060208301518482036020860152611c09828261488b565b8051606083019061529284826148c3565b5060208201516152a560208501826148c3565b506040820151612bd260408501826148c3565b80516101208301906152ca8482614798565b5060208201516152dd602085018261546c565b5060408201516152f06040850182614798565b5060608201516153036060850182614798565b5060808201516153166080850182614871565b5060a082015161532960a0850182614871565b5060c082015161533c60c0850182614871565b5060e082015161534f60e0850182614871565b50610100820151612bd2610100850182614868565b805160808301906153758482614868565b50602082015161538860208501826148d5565b50604082015161539b6040850182614871565b506060820151612bd26060850182614871565b805160e08301906153bf8482614798565b5060208201516153d26020850182614798565b5060408201516153e56040850182614871565b5060608201516153f86060850182614871565b50608082015161540b6080850182614871565b5060a082015161541e60a0850182614871565b5060c0820151612bd260c0850182614868565b805160608301906154428482614798565b5060208201516154556020850182614798565b506040820151612bd26040850182614798565b9052565b61479281615b5d565b61479281615b70565b61479281615b79565b6000615493828561487a565b6020820191506154a3828461487a565b5060200192915050565b60006154b882614a0a565b91506154c4828461487a565b50602001919050565b60006154d882614aee565b9150615493828561487a565b6000610d9282614e62565b6000610d9282615017565b60208101610d928284614798565b60208101610d928284614789565b60208082528101610933818461480f565b60208101610d928284614868565b604081016155438285614868565b6109336020830184615475565b6080810161555e8287614871565b61556b602083018661547e565b6155786040830185614871565b611c096060830184614871565b60208082528101610d9281614900565b60208082528101610d928161495f565b60208082528101610d9281614998565b60208082528101610d92816149d1565b60208082528101610d9281614a43565b60208082528101610d9281614a7c565b60208082528101610d9281614ab5565b60208082528101610d9281614b0f565b60208082528101610d9281614b6e565b60208082528101610d9281614bb7565b60208082528101610d9281614bf0565b60208082528101610d9281614c29565b60208082528101610d9281614c62565b60208082528101610d9281614c9b565b60208082528101610d9281614ce4565b60208082528101610d9281614d1d565b60208082528101610d9281614d56565b60208082528101610d9281614d8f565b60208082528101610d9281614dc8565b60208082528101610d9281614e01565b60208082528101610d9281614e3a565b60208082528101610d9281614f33565b60208082528101610d9281614f6c565b60208082528101610d9281614fa5565b60208082528101610d9281614fde565b60208082528101610d9281615050565b60208082528101610d9281615089565b60208082528101610d92816150c2565b60208082528101610d92816150ea565b60208082528101610d9281615112565b60208082528101610d928161514b565b60208082528101610d9281615193565b60208082528101610d92816151cc565b60208082528101610d92816151f4565b60208082528101610d928161522d565b60608101610d928284615281565b6101208101610d9282846152b8565b60808101610d928284615364565b60e08101610d9282846153ae565b6101a081016157fd828e615431565b61580a606083018d614798565b615817608083018c614798565b61582460a083018b614798565b61583160c083018a614871565b61583e60e0830189614871565b61584c610100830188614871565b61585a610120830187614871565b615868610140830186614871565b615876610160830185614871565b615884610180830184614871565b9c9b505050505050505050505050565b608081016158a28287615468565b6158af6020830186614798565b6158bc6040830185614798565b611c096060830184614798565b60e081016158d7828c615468565b6158e4602083018b614798565b6158f1604083018a614798565b6158fe6060830189614798565b81810360808301526159118187896148de565b905081810360a08301526159268185876148de565b905061593560c083018461547e565b9a9950505050505050505050565b606081016159518286615468565b61595e6020830185614798565b610bb4604083018461546c565b606081016159798286615468565b818103602083015261598b81856147a1565b9050610bb46040830184614871565b604081016159a88285615468565b6109336020830184614871565b61010081016159c48285615468565b61093360208301846153ae565b606081016159df8286615468565b6159ec602083018561546c565b610bb46040830184614868565b60c08101615a078289615468565b615a14602083018861546c565b615a216040830187614871565b615a2e6060830186614871565b615a3b6080830185614871565b615a4860a0830184614871565b979650505050505050565b604081016155438285615468565b60608101615a6f8286615468565b615a7c6020830185615475565b610bb46040830184614871565b60208101610d928284614871565b604081016159a88285614871565b60208101610d928284615475565b60405181810167ffffffffffffffff81118282101715615ad257600080fd5b604052919050565b600067ffffffffffffffff821115615af157600080fd5b5060209081020190565b600067ffffffffffffffff821115615b1257600080fd5b506020601f91909101601f19160190565b60200190565b5190565b90815260200190565b6000610d9282615b64565b151590565b90565b80610a5881615be9565b80610a5881615bf3565b61ffff1690565b6001600160a01b031690565b63ffffffff1690565b60ff1690565b6000610d92825b6000610d9282615b36565b6000610d9282615b49565b6000610d9282615b53565b82818337506000910152565b60005b83811015615bce578181015183820152602001615bb6565b83811115612bd25750506000910152565b601f01601f191690565b6007811061094557fe5b6002811061094557fe5b615c0681615b36565b811461094557600080fd5b615c0681615b41565b615c0681615b46565b6007811061094557600080fd5b615c0681615b5d565b615c0681615b70565b615c0681615b7956fea265627a7a72305820b5fa9257367a2c905d69e86a828ec717c08310707afd8705ee557fa7525e0b896c6578706572696d656e74616cf50037",
  "source": "/*\n\n    Copyright 2019 The BitFinance Protocol\n\n    Licensed under the Apache License, Version 2.0 (the \"License\");\n    you may not use this file except in compliance with the License.\n    You may obtain a copy of the License at\n\n        http://www.apache.org/licenses/LICENSE-2.0\n\n    Unless required by applicable law or agreed to in writing, software\n    distributed under the License is distributed on an \"AS IS\" BASIS,\n    WITHOUT WARRANTIES OR CONDITIONS OF ANY KIND, either express or implied.\n    See the License for the specific language governing permissions and\n    limitations under the License.\n\n*/\n\npragma solidity 0.5.8;\npragma experimental ABIEncoderV2;\n\nimport \"./GlobalStore.sol\";\nimport \"./ExternalFunctions.sol\";\nimport \"./Operations.sol\";\n\n/**\n * Multi defi features in one contract\n *   1) Exchange (hybird mode, on-chain settlement, off-chain matching)\n *   2) Funding (lending and borrowing)\n *   3) Margin Trading\n */\ncontract BitFinance is GlobalStore, ExternalFunctions, Operations {\n    constructor(\n        address _hotTokenAddress\n    )\n        public\n    {\n        state.exchange.hotTokenAddress = _hotTokenAddress;\n        state.exchange.discountConfig = 0x043c000027106400004e205a000075305000009c404600000000000000000000;\n    }\n}",
  "sourcePath": "/Users/mikovainio/WebstormProjects/bitfinance-protocol/contracts/BitFinance.sol",
  "compiler": {
    "name": "solc",
    "version": "0.5.8+commit.23d335f2.Emscripten.clang"
  },
  "schemaVersion": "3.0.11",
  "updatedAt": "2020-03-02T16:59:52.992Z",
  "devdoc": {
    "methods": {
      "isOwner()": {
        "return": "true if `msg.sender` is the owner of the contract. "
      },
      "owner()": {
        "return": "the address of the owner. "
      },
      "renounceOwnership()": {
        "details": "Allows the current owner to relinquish control of the contract."
      },
      "transferOwnership(address)": {
        "details": "Allows the current owner to transfer control of the contract to a newOwner.",
        "params": {
          "newOwner": "The address to transfer ownership to."
        }
      },
      "updateDiscountConfig(bytes32)": {
        "params": {
          "newConfig": "A data blob representing the new discount config. Details on format above."
        }
      }
    }
  },
  "userdoc": {
    "methods": {
      "approveDelegate(address)": {
        "notice": "////////////////////"
      },
      "balanceOf(address,address)": {
        "notice": "/////////////////////"
      },
      "batch((uint8,bytes)[])": {
        "notice": "/////////////////////////"
      },
      "cancelOrder((address,address,address,address,uint256,uint256,uint256,bytes32))": {
        "notice": "/////////////////////"
      },
      "getAllMarketsCount()": {
        "notice": "////////////////////"
      },
      "getPoolCashableAmount(address)": {
        "notice": "////////////////////////"
      },
      "isAccountLiquidatable(address,uint16)": {
        "notice": "///////////////////////////////"
      },
      "isValidSignature(bytes32,address,(bytes32,bytes32,bytes32))": {
        "notice": "/////////////////////"
      },
      "renounceOwnership()": {
        "notice": "Renouncing to ownership will leave the contract without an owner. It will not be possible to call the functions with the `onlyOwner` modifier anymore."
      }
    },
    "notice": "Multi defi features in one contract  1) Exchange (hybird mode, on-chain settlement, off-chain matching)  2) Funding (lending and borrowing)  3) Margin Trading"
  }
}