{
  "contractName": "ConstPriceOracle",
  "abi": [
    {
      "inputs": [
        {
          "name": "_asset",
          "type": "address"
        },
        {
          "name": "_price",
          "type": "uint256"
        }
      ],
      "payable": false,
      "stateMutability": "nonpayable",
      "type": "constructor"
    },
    {
      "constant": true,
      "inputs": [
        {
          "name": "_asset",
          "type": "address"
        }
      ],
      "name": "getPrice",
      "outputs": [
        {
          "name": "",
          "type": "uint256"
        }
      ],
      "payable": false,
      "stateMutability": "view",
      "type": "function"
    }
  ],
  "bytecode": "0x608060405234801561001057600080fd5b50604051604080610297833981018060405261002f9190810190610074565b600080546001600160a01b0319166001600160a01b0393909316929092179091556001556100e2565b8051610063816100c2565b92915050565b8051610063816100d9565b6000806040838503121561008757600080fd5b60006100938585610058565b92505060206100a485828601610069565b9150509250929050565b60006001600160a01b038216610063565b90565b6100cb816100ae565b81146100d657600080fd5b50565b6100cb816100bf565b6101a6806100f16000396000f3fe608060405234801561001057600080fd5b506004361061002b5760003560e01c806341976e0914610030575b600080fd5b61004361003e3660046100ac565b610059565b604051610050919061012a565b60405180910390f35b600080546001600160a01b0383811691161461009357604051600160e51b62461bcd02815260040161008a9061011a565b60405180910390fd5b505060015490565b80356100a681610155565b92915050565b6000602082840312156100be57600080fd5b60006100ca848461009b565b949350505050565b60006100df600f83610138565b7f41535345545f4e4f545f4d415443480000000000000000000000000000000000815260200192915050565b61011481610152565b82525050565b602080825281016100a6816100d2565b602081016100a6828461010b565b90815260200190565b60006001600160a01b0382166100a6565b90565b61015e81610141565b811461016957600080fd5b5056fea265627a7a7230582094fc5416fee73f3850341da9ca679154fd8e486009629c28a5697dc75564662b6c6578706572696d656e74616cf50037",
  "source": "/*\n\n    Copyright 2019 The BitFinance Protocol\n\n    Licensed under the Apache License, Version 2.0 (the \"License\");\n    you may not use this file except in compliance with the License.\n    You may obtain a copy of the License at\n\n        http://www.apache.org/licenses/LICENSE-2.0\n\n    Unless required by applicable law or agreed to in writing, software\n    distributed under the License is distributed on an \"AS IS\" BASIS,\n    WITHOUT WARRANTIES OR CONDITIONS OF ANY KIND, either express or implied.\n    See the License for the specific language governing permissions and\n    limitations under the License.\n\n*/\n\npragma solidity ^0.5.8;\npragma experimental ABIEncoderV2;\n\n/**\n * Price Oracle for some stabilized assets\n */\ncontract ConstPriceOracle {\n\n    address asset;\n    uint256 price;\n\n    constructor(\n        address _asset,\n        uint256 _price\n    )\n        public\n    {\n        asset = _asset;\n        price = _price;\n    }\n\n    function getPrice(\n        address _asset\n    )\n        external\n        view\n        returns (uint256)\n    {\n        require(asset == _asset, \"ASSET_NOT_MATCH\");\n        return price;\n    }\n}",
  "sourcePath": "/Users/mikovainio/WebstormProjects/bitfinance-protocol/contracts/oracle/ConstPriceOracle.sol",
  "compiler": {
    "name": "solc",
    "version": "0.5.8+commit.23d335f2.Emscripten.clang"
  },
  "schemaVersion": "3.0.11",
  "updatedAt": "2020-03-02T16:59:53.601Z",
  "devdoc": {
    "methods": {}
  },
  "userdoc": {
    "methods": {},
    "notice": "Price Oracle for some stabilized assets"
  }
}