{
  "contractName": "DaiPriceOracle",
  "abi": [
    {
      "constant": true,
      "inputs": [],
      "name": "makerDaoOracle",
      "outputs": [
        {
          "name": "",
          "type": "address"
        }
      ],
      "payable": false,
      "stateMutability": "view",
      "type": "function"
    },
    {
      "constant": true,
      "inputs": [],
      "name": "uniswapMinETHAmount",
      "outputs": [
        {
          "name": "",
          "type": "uint256"
        }
      ],
      "payable": false,
      "stateMutability": "view",
      "type": "function"
    },
    {
      "constant": true,
      "inputs": [],
      "name": "Eth2Dai",
      "outputs": [
        {
          "name": "",
          "type": "address"
        }
      ],
      "payable": false,
      "stateMutability": "view",
      "type": "function"
    },
    {
      "constant": false,
      "inputs": [],
      "name": "renounceOwnership",
      "outputs": [],
      "payable": false,
      "stateMutability": "nonpayable",
      "type": "function"
    },
    {
      "constant": true,
      "inputs": [],
      "name": "owner",
      "outputs": [
        {
          "name": "",
          "type": "address"
        }
      ],
      "payable": false,
      "stateMutability": "view",
      "type": "function"
    },
    {
      "constant": true,
      "inputs": [],
      "name": "isOwner",
      "outputs": [
        {
          "name": "",
          "type": "bool"
        }
      ],
      "payable": false,
      "stateMutability": "view",
      "type": "function"
    },
    {
      "constant": true,
      "inputs": [],
      "name": "price",
      "outputs": [
        {
          "name": "",
          "type": "uint256"
        }
      ],
      "payable": false,
      "stateMutability": "view",
      "type": "function"
    },
    {
      "constant": true,
      "inputs": [],
      "name": "WETH",
      "outputs": [
        {
          "name": "",
          "type": "address"
        }
      ],
      "payable": false,
      "stateMutability": "view",
      "type": "function"
    },
    {
      "constant": true,
      "inputs": [],
      "name": "eth2daiETHAmount",
      "outputs": [
        {
          "name": "",
          "type": "uint256"
        }
      ],
      "payable": false,
      "stateMutability": "view",
      "type": "function"
    },
    {
      "constant": true,
      "inputs": [],
      "name": "eth2daiMaxSpread",
      "outputs": [
        {
          "name": "",
          "type": "uint256"
        }
      ],
      "payable": false,
      "stateMutability": "view",
      "type": "function"
    },
    {
      "constant": true,
      "inputs": [],
      "name": "UNISWAP",
      "outputs": [
        {
          "name": "",
          "type": "address"
        }
      ],
      "payable": false,
      "stateMutability": "view",
      "type": "function"
    },
    {
      "constant": true,
      "inputs": [],
      "name": "DAI",
      "outputs": [
        {
          "name": "",
          "type": "address"
        }
      ],
      "payable": false,
      "stateMutability": "view",
      "type": "function"
    },
    {
      "constant": true,
      "inputs": [],
      "name": "maxPrice",
      "outputs": [
        {
          "name": "",
          "type": "uint256"
        }
      ],
      "payable": false,
      "stateMutability": "view",
      "type": "function"
    },
    {
      "constant": true,
      "inputs": [],
      "name": "minPrice",
      "outputs": [
        {
          "name": "",
          "type": "uint256"
        }
      ],
      "payable": false,
      "stateMutability": "view",
      "type": "function"
    },
    {
      "constant": false,
      "inputs": [
        {
          "name": "newOwner",
          "type": "address"
        }
      ],
      "name": "transferOwnership",
      "outputs": [],
      "payable": false,
      "stateMutability": "nonpayable",
      "type": "function"
    },
    {
      "inputs": [
        {
          "name": "_minPrice",
          "type": "uint256"
        },
        {
          "name": "_maxPrice",
          "type": "uint256"
        }
      ],
      "payable": false,
      "stateMutability": "nonpayable",
      "type": "constructor"
    },
    {
      "anonymous": false,
      "inputs": [
        {
          "indexed": false,
          "name": "newPrice",
          "type": "uint256"
        }
      ],
      "name": "UpdatePrice",
      "type": "event"
    },
    {
      "anonymous": false,
      "inputs": [
        {
          "indexed": true,
          "name": "previousOwner",
          "type": "address"
        },
        {
          "indexed": true,
          "name": "newOwner",
          "type": "address"
        }
      ],
      "name": "OwnershipTransferred",
      "type": "event"
    },
    {
      "constant": true,
      "inputs": [
        {
          "name": "asset",
          "type": "address"
        }
      ],
      "name": "getPrice",
      "outputs": [
        {
          "name": "",
          "type": "uint256"
        }
      ],
      "payable": false,
      "stateMutability": "view",
      "type": "function"
    },
    {
      "constant": false,
      "inputs": [
        {
          "name": "_price",
          "type": "uint256"
        }
      ],
      "name": "adminSetPrice",
      "outputs": [],
      "payable": false,
      "stateMutability": "nonpayable",
      "type": "function"
    },
    {
      "constant": false,
      "inputs": [
        {
          "name": "_minPrice",
          "type": "uint256"
        },
        {
          "name": "_maxPrice",
          "type": "uint256"
        }
      ],
      "name": "adminSetParams",
      "outputs": [],
      "payable": false,
      "stateMutability": "nonpayable",
      "type": "function"
    },
    {
      "constant": false,
      "inputs": [],
      "name": "updatePrice",
      "outputs": [
        {
          "name": "",
          "type": "bool"
        }
      ],
      "payable": false,
      "stateMutability": "nonpayable",
      "type": "function"
    },
    {
      "constant": true,
      "inputs": [],
      "name": "peek",
      "outputs": [
        {
          "name": "_price",
          "type": "uint256"
        }
      ],
      "payable": false,
      "stateMutability": "view",
      "type": "function"
    },
    {
      "constant": true,
      "inputs": [],
      "name": "getEth2DaiPrice",
      "outputs": [
        {
          "name": "",
          "type": "uint256"
        }
      ],
      "payable": false,
      "stateMutability": "view",
      "type": "function"
    },
    {
      "constant": true,
      "inputs": [],
      "name": "getUniswapPrice",
      "outputs": [
        {
          "name": "",
          "type": "uint256"
        }
      ],
      "payable": false,
      "stateMutability": "view",
      "type": "function"
    },
    {
      "constant": true,
      "inputs": [],
      "name": "getMakerDaoPrice",
      "outputs": [
        {
          "name": "",
          "type": "uint256"
        }
      ],
      "payable": false,
      "stateMutability": "view",
      "type": "function"
    }
  ],
  "bytecode": "0x60806040523480156200001157600080fd5b50604051604080620013168339810180604052620000339190810190620000e4565b600080546001600160a01b03191633178082556040516001600160a01b039190911691907f8be0079c531659141344cd1fd0a4f28419497f9722a3daafe3b4186f6b6457e0908290a380821115620000c2576040517f08c379a0000000000000000000000000000000000000000000000000000000008152600401620000b9906200015e565b60405180910390fd5b60029190915560035562000196565b8051620000de816200017c565b92915050565b60008060408385031215620000f857600080fd5b6000620001068585620000d1565b92505060206200011985828601620000d1565b9150509250929050565b600062000132600c8362000170565b7f57524f4e475f504152414d530000000000000000000000000000000000000000815260200192915050565b60208082528101620000de8162000123565b90815260200190565b90565b620001878162000179565b81146200019357600080fd5b50565b61117080620001a66000396000f3fe608060405234801561001057600080fd5b506004361061014d5760003560e01c80638f32d59b116100c3578063c745d9e71161007c578063c745d9e71461022f578063d1051fbc14610237578063e0bab4c41461024a578063e38d6b5c14610252578063e45be8eb1461025a578063f2fde38b146102625761014d565b80638f32d59b146101ff578063a035b1fe14610207578063ad5c46481461020f578063b53e3a4d14610217578063b8d57df21461021f578063ba01a3df146102275761014d565b806341976e091161011557806341976e09146101aa57806359e02dd7146101bd578063673a7e28146101c5578063715018a6146101da57806375f54abc146101e25780638da5cb5b146101ea5761014d565b80630cc3be2f146101525780630d89e2b71461016757806328431282146101855780632b6e19231461019a5780633878d425146101a2575b600080fd5b610165610160366004610de3565b610275565b005b61016f6102f3565b60405161017c9190611041565b60405180910390f35b61018d61030b565b60405161017c91906110cf565b61018d610318565b61016f610415565b61018d6101b8366004610d65565b61042d565b61018d610476565b6101cd6104fb565b60405161017c9190611033565b6101656105ba565b61018d61062b565b6101f26106d1565b60405161017c9190610ffd565b6101cd6106e0565b61018d6106f1565b6101f26106f7565b61018d61070f565b61018d61071b565b61018d610b24565b6101f2610b2f565b610165610245366004610e1f565b610b47565b61016f610b9c565b61018d610bb4565b61018d610bba565b610165610270366004610d65565b610bc0565b61027d6106e0565b6102a557604051600160e51b62461bcd02815260040161029c9061109f565b60405180910390fd5b6102ad6104fb565b6102b75760018190555b7f1a15ab7124a4e1ce00837351261771caf1691cd7d85ed3a0ac3157a1ee1a38056001546040516102e891906110cf565b60405180910390a150565b73729d19f657bd0614b4985cf1d82531c67569197b81565b686c6b935b8bbd40000081565b604051600160e01b6370a082310281526000907309cabec1ead1c0ba254b09efb3ee13841712be1480319183917389d24a6b4ccb1b6faa2625fe562bdd9a23260359916370a082319161036d91600401610ffd565b60206040518083038186803b15801561038557600080fd5b505afa158015610399573d6000803e3d6000fd5b505050506040513d601f19601f820116820180604052506103bd9190810190610e01565b905060006103e9836103dd84670de0b6b3a764000063ffffffff610c6b16565b9063ffffffff610cb116565b9050686c6b935b8bbd4000008310156104085760009350505050610412565b9250610412915050565b90565b7339755357759ce0d7f32dc8dc45414cca409ae24e81565b60006001600160a01b0382167389d24a6b4ccb1b6faa2625fe562bdd9a232603591461046e57604051600160e51b62461bcd02815260040161029c9061104f565b505060015490565b60008061048161062b565b90508061048e5750610412565b600061049861071b565b905080156104bc57610408816103dd84670de0b6b3a764000063ffffffff610c6b16565b60006104c6610318565b905080156104f5576104ea816103dd85670de0b6b3a764000063ffffffff610c6b16565b935061041292505050565b50505090565b60006105056106e0565b61052457604051600160e51b62461bcd02815260040161029c9061109f565b600061052e610476565b90508061053f576000915050610412565b600154811415610553576001915050610412565b6003548111156105665750600354610575565b60025481101561057557506002545b60018190556040517f1a15ab7124a4e1ce00837351261771caf1691cd7d85ed3a0ac3157a1ee1a3805906105aa9083906110cf565b60405180910390a1600191505090565b6105c26106e0565b6105e157604051600160e51b62461bcd02815260040161029c9061109f565b600080546040516001600160a01b03909116907f8be0079c531659141344cd1fd0a4f28419497f9722a3daafe3b4186f6b6457e0908390a3600080546001600160a01b0319169055565b600080600073729d19f657bd0614b4985cf1d82531c67569197b6001600160a01b03166359e02dd76040518163ffffffff1660e01b8152600401604080518083038186803b15801561067c57600080fd5b505afa158015610690573d6000803e3d6000fd5b505050506040513d601f19601f820116820180604052506106b49190810190610da9565b9150915080156106c657509050610412565b600092505050610412565b6000546001600160a01b031690565b6000546001600160a01b0316331490565b60015481565b73c02aaa39b223fe8d0a0e5c4f27ead9083c756cc281565b678ac7230489e8000081565b60007339755357759ce0d7f32dc8dc45414cca409ae24e6001600160a01b031663c2b6b58c6040518163ffffffff1660e01b815260040160206040518083038186803b15801561076a57600080fd5b505afa15801561077e573d6000803e3d6000fd5b505050506040513d601f19601f820116820180604052506107a29190810190610d8b565b8061082f57507339755357759ce0d7f32dc8dc45414cca409ae24e6001600160a01b031663f582d2936040518163ffffffff1660e01b815260040160206040518083038186803b1580156107f557600080fd5b505afa158015610809573d6000803e3d6000fd5b505050506040513d601f19601f8201168201806040525061082d9190810190610d8b565b155b806108bc57507339755357759ce0d7f32dc8dc45414cca409ae24e6001600160a01b03166301492a0b6040518163ffffffff1660e01b815260040160206040518083038186803b15801561088257600080fd5b505afa158015610896573d6000803e3d6000fd5b505050506040513d601f19601f820116820180604052506108ba9190810190610d8b565b155b156108c957506000610412565b604051600160e11b630a2513a90281526000907339755357759ce0d7f32dc8dc45414cca409ae24e9063144a27529061093a907389d24a6b4ccb1b6faa2625fe562bdd9a232603599073c02aaa39b223fe8d0a0e5c4f27ead9083c756cc290678ac7230489e800009060040161100b565b60206040518083038186803b15801561095257600080fd5b505afa158015610966573d6000803e3d6000fd5b505050506040513d601f19601f8201168201806040525061098a9190810190610e01565b6040517fff1fd9740000000000000000000000000000000000000000000000000000000081529091506000907339755357759ce0d7f32dc8dc45414cca409ae24e9063ff1fd97490610a14907389d24a6b4ccb1b6faa2625fe562bdd9a232603599073c02aaa39b223fe8d0a0e5c4f27ead9083c756cc290678ac7230489e800009060040161100b565b60206040518083038186803b158015610a2c57600080fd5b505afa158015610a40573d6000803e3d6000fd5b505050506040513d601f19601f82011682018060405250610a649190810190610e01565b90506000610a8c678ac7230489e800006103dd85670de0b6b3a764000063ffffffff610c6b16565b90506000610ab4678ac7230489e800006103dd85670de0b6b3a764000063ffffffff610c6b16565b90506000610ae4670de0b6b3a7640000610ad8856103dd868463ffffffff610c6b16565b9063ffffffff610ce616565b905066470de4df820000811115610b0357600095505050505050610412565b610b1860026103dd858563ffffffff610d1116565b95505050505050610412565b66470de4df82000081565b7309cabec1ead1c0ba254b09efb3ee13841712be1481565b610b4f6106e0565b610b6e57604051600160e51b62461bcd02815260040161029c9061109f565b80821115610b9157604051600160e51b62461bcd02815260040161029c9061107f565b600291909155600355565b7389d24a6b4ccb1b6faa2625fe562bdd9a2326035981565b60035481565b60025481565b610bc86106e0565b610be757604051600160e51b62461bcd02815260040161029c9061109f565b6001600160a01b038116610c1057604051600160e51b62461bcd02815260040161029c9061108f565b600080546040516001600160a01b03808516939216917f8be0079c531659141344cd1fd0a4f28419497f9722a3daafe3b4186f6b6457e091a3600080546001600160a01b0319166001600160a01b0392909216919091179055565b600082610c7a57506000610cab565b82820282848281610c8757fe5b0414610ca857604051600160e51b62461bcd02815260040161029c906110bf565b90505b92915050565b6000808211610cd557604051600160e51b62461bcd02815260040161029c9061105f565b818381610cde57fe5b049392505050565b600082821115610d0b57604051600160e51b62461bcd02815260040161029c9061106f565b50900390565b600082820183811015610ca857604051600160e51b62461bcd02815260040161029c906110af565b8035610cab8161110d565b8051610cab81611124565b8051610cab8161112d565b8035610cab8161112d565b600060208284031215610d7757600080fd5b6000610d838484610d39565b949350505050565b600060208284031215610d9d57600080fd5b6000610d838484610d44565b60008060408385031215610dbc57600080fd5b6000610dc88585610d4f565b9250506020610dd985828601610d44565b9150509250929050565b600060208284031215610df557600080fd5b6000610d838484610d5a565b600060208284031215610e1357600080fd5b6000610d838484610d4f565b60008060408385031215610e3257600080fd5b6000610e3e8585610d5a565b9250506020610dd985828601610d5a565b610e58816110e6565b82525050565b610e58816110f1565b610e5881611102565b6000610e7d600f836110dd565b7f41535345545f4e4f545f4d415443480000000000000000000000000000000000815260200192915050565b6000610eb6600e836110dd565b7f4449564944494e475f4552524f52000000000000000000000000000000000000815260200192915050565b6000610eef6009836110dd565b600160b91b6829aaa12fa2a92927a902815260200192915050565b6000610f17600c836110dd565b7f57524f4e475f504152414d530000000000000000000000000000000000000000815260200192915050565b6000610f50600d836110dd565b7f494e56414c49445f4f574e455200000000000000000000000000000000000000815260200192915050565b6000610f896009836110dd565b600160b91b682727aa2fa7aba722a902815260200192915050565b6000610fb16009836110dd565b600160b91b6820a2222fa2a92927a902815260200192915050565b6000610fd96009836110dd565b600160b91b6826aaa62fa2a92927a902815260200192915050565b610e5881610412565b60208101610cab8284610e4f565b606081016110198286610e4f565b6110266020830185610e4f565b610d836040830184610ff4565b60208101610cab8284610e5e565b60208101610cab8284610e67565b60208082528101610cab81610e70565b60208082528101610cab81610ea9565b60208082528101610cab81610ee2565b60208082528101610cab81610f0a565b60208082528101610cab81610f43565b60208082528101610cab81610f7c565b60208082528101610cab81610fa4565b60208082528101610cab81610fcc565b60208101610cab8284610ff4565b90815260200190565b6000610cab826110f6565b151590565b6001600160a01b031690565b6000610cab826110e6565b611116816110e6565b811461112157600080fd5b50565b611116816110f1565b6111168161041256fea265627a7a7230582010ee0a538eb68dae5fc116118db07896f520fc91c1b990a577eb5cff48c7be546c6578706572696d656e74616cf50037",
  "source": "/*\n\n    Copyright 2019 The BitFinance Protocol\n\n    Licensed under the Apache License, Version 2.0 (the \"License\");\n    you may not use this file except in compliance with the License.\n    You may obtain a copy of the License at\n\n        http://www.apache.org/licenses/LICENSE-2.0\n\n    Unless required by applicable law or agreed to in writing, software\n    distributed under the License is distributed on an \"AS IS\" BASIS,\n    WITHOUT WARRANTIES OR CONDITIONS OF ANY KIND, either express or implied.\n    See the License for the specific language governing permissions and\n    limitations under the License.\n\n*/\n\npragma solidity ^0.5.8;\npragma experimental ABIEncoderV2;\n\nimport \"../lib/SafeMath.sol\";\nimport \"../lib/Ownable.sol\";\nimport \"../interfaces/IStandardToken.sol\";\nimport \"../interfaces/IEth2Dai.sol\";\nimport \"../interfaces/IMakerDaoOracle.sol\";\n\n/**\n * Dai USD price oracle for mainnet\n */\ncontract DaiPriceOracle is Ownable{\n    using SafeMath for uint256;\n\n    uint256 public price;\n\n    uint256 constant ONE = 10**18;\n\n    IMakerDaoOracle public constant makerDaoOracle = IMakerDaoOracle(0x729D19f657BD0614b4985Cf1D82531c67569197B);\n    IStandardToken public constant DAI = IStandardToken(0x89d24A6b4CcB1B6fAA2625fE562bDD9a23260359);\n    IEth2Dai public constant Eth2Dai = IEth2Dai(0x39755357759cE0d7f32dC8dC45414CCa409AE24e);\n\n    address public constant UNISWAP = 0x09cabEC1eAd1c0Ba254B09efb3EE13841712bE14;\n    address public constant WETH = 0xC02aaA39b223FE8D0A0e5C4F27eAD9083C756Cc2;\n    uint256 public constant eth2daiETHAmount = 10 ether;\n    uint256 public constant eth2daiMaxSpread = 2 * ONE / 100; // 2.00%\n    uint256 public constant uniswapMinETHAmount = 2000 ether;\n\n    event UpdatePrice(uint256 newPrice);\n\n    uint256 public minPrice;\n    uint256 public maxPrice;\n\n    constructor (\n        uint256 _minPrice,\n        uint256 _maxPrice\n    )\n        public\n    {\n        require(_minPrice <= _maxPrice, \"WRONG_PARAMS\");\n        minPrice = _minPrice;\n        maxPrice = _maxPrice;\n    }\n\n    function getPrice(\n        address asset\n    )\n        external\n        view\n        returns (uint256)\n    {\n        require(asset == address(DAI), \"ASSET_NOT_MATCH\");\n        return price;\n    }\n\n    function adminSetPrice(\n        uint256 _price\n    )\n        external\n        onlyOwner\n    {\n        if (!updatePrice()){\n            price = _price;\n        }\n\n        emit UpdatePrice(price);\n    }\n\n    function adminSetParams(\n        uint256 _minPrice,\n        uint256 _maxPrice\n    )\n        external\n        onlyOwner\n    {\n        require(_minPrice <= _maxPrice, \"WRONG_PARAMS\");\n        minPrice = _minPrice;\n        maxPrice = _maxPrice;\n    }\n\n    function updatePrice()\n        public\n        onlyOwner\n        returns (bool)\n    {\n        uint256 _price = peek();\n\n        if (_price == 0) {\n            return false;\n        }\n\n        if (_price == price) {\n            return true;\n        }\n\n        if (_price > maxPrice) {\n            _price = maxPrice;\n        } else if (_price < minPrice) {\n            _price = minPrice;\n        }\n\n        price = _price;\n        emit UpdatePrice(price);\n\n        return true;\n    }\n\n    function peek()\n        public\n        view\n        returns (uint256 _price)\n    {\n        uint256 makerDaoPrice = getMakerDaoPrice();\n\n        if (makerDaoPrice == 0) {\n            return _price;\n        }\n\n        uint256 eth2daiPrice = getEth2DaiPrice();\n\n        if (eth2daiPrice > 0) {\n            _price = makerDaoPrice.mul(ONE).div(eth2daiPrice);\n            return _price;\n        }\n\n        uint256 uniswapPrice = getUniswapPrice();\n\n        if (uniswapPrice > 0) {\n            _price = makerDaoPrice.mul(ONE).div(uniswapPrice);\n            return _price;\n        }\n\n        return _price;\n    }\n\n    function getEth2DaiPrice()\n        public\n        view\n        returns (uint256)\n    {\n        if (Eth2Dai.isClosed() || !Eth2Dai.buyEnabled() || !Eth2Dai.matchingEnabled()) {\n            return 0;\n        }\n\n        uint256 bidDai = Eth2Dai.getBuyAmount(address(DAI), WETH, eth2daiETHAmount);\n        uint256 askDai = Eth2Dai.getPayAmount(address(DAI), WETH, eth2daiETHAmount);\n\n        uint256 bidPrice = bidDai.mul(ONE).div(eth2daiETHAmount);\n        uint256 askPrice = askDai.mul(ONE).div(eth2daiETHAmount);\n\n        uint256 spread = askPrice.mul(ONE).div(bidPrice).sub(ONE);\n\n        if (spread > eth2daiMaxSpread) {\n            return 0;\n        } else {\n            return bidPrice.add(askPrice).div(2);\n        }\n    }\n\n    function getUniswapPrice()\n        public\n        view\n        returns (uint256)\n    {\n        uint256 ethAmount = UNISWAP.balance;\n        uint256 daiAmount = DAI.balanceOf(UNISWAP);\n        uint256 uniswapPrice = daiAmount.mul(10**18).div(ethAmount);\n\n        if (ethAmount < uniswapMinETHAmount) {\n            return 0;\n        } else {\n            return uniswapPrice;\n        }\n    }\n\n    function getMakerDaoPrice()\n        public\n        view\n        returns (uint256)\n    {\n        (bytes32 value, bool has) = makerDaoOracle.peek();\n\n        if (has) {\n            return uint256(value);\n        } else {\n            return 0;\n        }\n    }\n}\n",
  "sourcePath": "/Users/mikovainio/WebstormProjects/bitfinance-protocol/contracts/oracle/DaiPriceOracle.sol",
  "compiler": {
    "name": "solc",
    "version": "0.5.8+commit.23d335f2.Emscripten.clang"
  },
  "schemaVersion": "3.0.11",
  "updatedAt": "2020-03-02T16:59:53.602Z",
  "devdoc": {
    "methods": {
      "isOwner()": {
        "return": "true if `msg.sender` is the owner of the contract. "
      },
      "owner()": {
        "return": "the address of the owner. "
      },
      "renounceOwnership()": {
        "details": "Allows the current owner to relinquish control of the contract."
      },
      "transferOwnership(address)": {
        "details": "Allows the current owner to transfer control of the contract to a newOwner.",
        "params": {
          "newOwner": "The address to transfer ownership to."
        }
      }
    }
  },
  "userdoc": {
    "methods": {
      "renounceOwnership()": {
        "notice": "Renouncing to ownership will leave the contract without an owner. It will not be possible to call the functions with the `onlyOwner` modifier anymore."
      }
    },
    "notice": "Dai USD price oracle for mainnet"
  }
}