{
  "contractName": "EthPriceOracle",
  "abi": [
    {
      "constant": true,
      "inputs": [],
      "name": "makerDaoOracle",
      "outputs": [
        {
          "name": "",
          "type": "address"
        }
      ],
      "payable": false,
      "stateMutability": "view",
      "type": "function"
    },
    {
      "constant": false,
      "inputs": [],
      "name": "renounceOwnership",
      "outputs": [],
      "payable": false,
      "stateMutability": "nonpayable",
      "type": "function"
    },
    {
      "constant": true,
      "inputs": [],
      "name": "owner",
      "outputs": [
        {
          "name": "",
          "type": "address"
        }
      ],
      "payable": false,
      "stateMutability": "view",
      "type": "function"
    },
    {
      "constant": true,
      "inputs": [],
      "name": "isOwner",
      "outputs": [
        {
          "name": "",
          "type": "bool"
        }
      ],
      "payable": false,
      "stateMutability": "view",
      "type": "function"
    },
    {
      "constant": true,
      "inputs": [],
      "name": "sparePrice",
      "outputs": [
        {
          "name": "",
          "type": "uint256"
        }
      ],
      "payable": false,
      "stateMutability": "view",
      "type": "function"
    },
    {
      "constant": false,
      "inputs": [
        {
          "name": "newOwner",
          "type": "address"
        }
      ],
      "name": "transferOwnership",
      "outputs": [],
      "payable": false,
      "stateMutability": "nonpayable",
      "type": "function"
    },
    {
      "constant": true,
      "inputs": [],
      "name": "sparePriceBlockNumber",
      "outputs": [
        {
          "name": "",
          "type": "uint256"
        }
      ],
      "payable": false,
      "stateMutability": "view",
      "type": "function"
    },
    {
      "anonymous": false,
      "inputs": [
        {
          "indexed": false,
          "name": "price",
          "type": "uint256"
        },
        {
          "indexed": false,
          "name": "blockNumber",
          "type": "uint256"
        }
      ],
      "name": "PriceFeed",
      "type": "event"
    },
    {
      "anonymous": false,
      "inputs": [
        {
          "indexed": true,
          "name": "previousOwner",
          "type": "address"
        },
        {
          "indexed": true,
          "name": "newOwner",
          "type": "address"
        }
      ],
      "name": "OwnershipTransferred",
      "type": "event"
    },
    {
      "constant": true,
      "inputs": [
        {
          "name": "_asset",
          "type": "address"
        }
      ],
      "name": "getPrice",
      "outputs": [
        {
          "name": "",
          "type": "uint256"
        }
      ],
      "payable": false,
      "stateMutability": "view",
      "type": "function"
    },
    {
      "constant": false,
      "inputs": [
        {
          "name": "newSparePrice",
          "type": "uint256"
        },
        {
          "name": "blockNumber",
          "type": "uint256"
        }
      ],
      "name": "feed",
      "outputs": [],
      "payable": false,
      "stateMutability": "nonpayable",
      "type": "function"
    }
  ],
  "bytecode": "0x60806040819052600080546001600160a01b03191633178082556001600160a01b0316917f8be0079c531659141344cd1fd0a4f28419497f9722a3daafe3b4186f6b6457e0908290a3610639806100576000396000f3fe608060405234801561001057600080fd5b50600436106100935760003560e01c80638da5cb5b116100665780638da5cb5b146101215780638f32d59b14610129578063e2b4fd5014610145578063f2fde38b1461014d578063ffd031281461017357610093565b80630d89e2b71461009857806341976e09146100bc5780636d6aa5bb146100f4578063715018a614610119575b600080fd5b6100a061017b565b604080516001600160a01b039092168252519081900360200190f35b6100e2600480360360208110156100d257600080fd5b50356001600160a01b0316610193565b60408051918252519081900360200190f35b6101176004803603604081101561010a57600080fd5b50803590602001356102f6565b005b610117610448565b6100a06104dd565b6101316104ec565b604080519115158252519081900360200190f35b6100e26104fd565b6101176004803603602081101561016357600080fd5b50356001600160a01b0316610503565b6100e2610607565b73729d19f657bd0614b4985cf1d82531c67569197b81565b6000600e6001600160a01b038316146101f65760408051600160e51b62461bcd02815260206004820152600f60248201527f41535345545f4e4f545f4d415443480000000000000000000000000000000000604482015290519081900360640190fd5b60008073729d19f657bd0614b4985cf1d82531c67569197b6001600160a01b03166359e02dd76040518163ffffffff1660e01b8152600401604080518083038186803b15801561024557600080fd5b505afa158015610259573d6000803e3d6000fd5b505050506040513d604081101561026f57600080fd5b5080516020909101519092509050801561028b575090506102f1565b6101f4600254430311156102e95760408051600160e51b62461bcd02815260206004820152600e60248201527f4f5241434c455f4f46464c494e45000000000000000000000000000000000000604482015290519081900360640190fd5b600154925050505b919050565b6102fe6104ec565b6103415760408051600160e51b62461bcd0281526020600482015260096024820152600160b91b682727aa2fa7aba722a902604482015290519081900360640190fd5b600082116103995760408051600160e51b62461bcd02815260206004820152601960248201527f50524943455f4d5553545f475245415445525f5448414e5f3000000000000000604482015290519081900360640190fd5b4381111580156103ab57506002548110155b6103ff5760408051600160e51b62461bcd02815260206004820152601160248201527f424c4f434b4e554d4245525f57524f4e47000000000000000000000000000000604482015290519081900360640190fd5b60018290556002819055604080518381526020810183905281517f4771fd008104ebb997a015445d17943eac52c60cdc6df59839c5a3d0c3e40c55929181900390910190a15050565b6104506104ec565b6104935760408051600160e51b62461bcd0281526020600482015260096024820152600160b91b682727aa2fa7aba722a902604482015290519081900360640190fd5b600080546040516001600160a01b03909116907f8be0079c531659141344cd1fd0a4f28419497f9722a3daafe3b4186f6b6457e0908390a3600080546001600160a01b0319169055565b6000546001600160a01b031690565b6000546001600160a01b0316331490565b60015481565b61050b6104ec565b61054e5760408051600160e51b62461bcd0281526020600482015260096024820152600160b91b682727aa2fa7aba722a902604482015290519081900360640190fd5b6001600160a01b0381166105ac5760408051600160e51b62461bcd02815260206004820152600d60248201527f494e56414c49445f4f574e455200000000000000000000000000000000000000604482015290519081900360640190fd5b600080546040516001600160a01b03808516939216917f8be0079c531659141344cd1fd0a4f28419497f9722a3daafe3b4186f6b6457e091a3600080546001600160a01b0319166001600160a01b0392909216919091179055565b6002548156fea165627a7a723058201959f3a0a93791727ac2c1d1b4d5624876e0613fbf80bae83a6959ceaa3decc30029",
  "source": "/*\n\n    Copyright 2019 The BitFinance Protocol\n\n    Licensed under the Apache License, Version 2.0 (the \"License\");\n    you may not use this file except in compliance with the License.\n    You may obtain a copy of the License at\n\n        http://www.apache.org/licenses/LICENSE-2.0\n\n    Unless required by applicable law or agreed to in writing, software\n    distributed under the License is distributed on an \"AS IS\" BASIS,\n    WITHOUT WARRANTIES OR CONDITIONS OF ANY KIND, either express or implied.\n    See the License for the specific language governing permissions and\n    limitations under the License.\n\n*/\n\npragma solidity ^0.5.8;\n\nimport \"../interfaces/IMakerDaoOracle.sol\";\nimport \"../lib/Ownable.sol\";\n\n/**\n * Eth USD price oracle for mainnet\n */\ncontract EthPriceOracle is Ownable {\n\n    uint256 public sparePrice;\n    uint256 public sparePriceBlockNumber;\n\n    IMakerDaoOracle public constant makerDaoOracle = IMakerDaoOracle(0x729D19f657BD0614b4985Cf1D82531c67569197B);\n\n    event PriceFeed(\n        uint256 price,\n        uint256 blockNumber\n    );\n\n    function getPrice(\n        address _asset\n    )\n        external\n        view\n        returns (uint256)\n    {\n        require(_asset == 0x000000000000000000000000000000000000000E, \"ASSET_NOT_MATCH\");\n        (bytes32 value, bool has) = makerDaoOracle.peek();\n        if (has) {\n            return uint256(value);\n        } else {\n            require(block.number - sparePriceBlockNumber <= 500, \"ORACLE_OFFLINE\");\n            return sparePrice;\n        }\n    }\n\n    function feed(\n        uint256 newSparePrice,\n        uint256 blockNumber\n    )\n        external\n        onlyOwner\n    {\n        require(newSparePrice > 0, \"PRICE_MUST_GREATER_THAN_0\");\n        require(blockNumber <= block.number && blockNumber >= sparePriceBlockNumber, \"BLOCKNUMBER_WRONG\");\n        sparePrice = newSparePrice;\n        sparePriceBlockNumber = blockNumber;\n\n        emit PriceFeed(newSparePrice, blockNumber);\n    }\n\n}",
  "sourcePath": "/Users/mikovainio/WebstormProjects/bitfinance-protocol/contracts/oracle/EthPriceOracle.sol",
  "compiler": {
    "name": "solc",
    "version": "0.5.8+commit.23d335f2.Emscripten.clang"
  },
  "schemaVersion": "3.0.11",
  "updatedAt": "2020-03-02T16:59:53.629Z",
  "devdoc": {
    "methods": {
      "isOwner()": {
        "return": "true if `msg.sender` is the owner of the contract. "
      },
      "owner()": {
        "return": "the address of the owner. "
      },
      "renounceOwnership()": {
        "details": "Allows the current owner to relinquish control of the contract."
      },
      "transferOwnership(address)": {
        "details": "Allows the current owner to transfer control of the contract to a newOwner.",
        "params": {
          "newOwner": "The address to transfer ownership to."
        }
      }
    }
  },
  "userdoc": {
    "methods": {
      "renounceOwnership()": {
        "notice": "Renouncing to ownership will leave the contract without an owner. It will not be possible to call the functions with the `onlyOwner` modifier anymore."
      }
    },
    "notice": "Eth USD price oracle for mainnet"
  }
}