{
  "contractName": "ExternalFunctions",
  "abi": [
    {
      "payable": true,
      "stateMutability": "payable",
      "type": "fallback"
    },
    {
      "constant": false,
      "inputs": [
        {
          "components": [
            {
              "name": "actionType",
              "type": "uint8"
            },
            {
              "name": "encodedParams",
              "type": "bytes"
            }
          ],
          "name": "actions",
          "type": "tuple[]"
        }
      ],
      "name": "batch",
      "outputs": [],
      "payable": true,
      "stateMutability": "payable",
      "type": "function"
    },
    {
      "constant": true,
      "inputs": [
        {
          "name": "hash",
          "type": "bytes32"
        },
        {
          "name": "signerAddress",
          "type": "address"
        },
        {
          "components": [
            {
              "name": "config",
              "type": "bytes32"
            },
            {
              "name": "r",
              "type": "bytes32"
            },
            {
              "name": "s",
              "type": "bytes32"
            }
          ],
          "name": "signature",
          "type": "tuple"
        }
      ],
      "name": "isValidSignature",
      "outputs": [
        {
          "name": "isValid",
          "type": "bool"
        }
      ],
      "payable": false,
      "stateMutability": "pure",
      "type": "function"
    },
    {
      "constant": true,
      "inputs": [],
      "name": "getAllMarketsCount",
      "outputs": [
        {
          "name": "count",
          "type": "uint256"
        }
      ],
      "payable": false,
      "stateMutability": "view",
      "type": "function"
    },
    {
      "constant": true,
      "inputs": [
        {
          "name": "assetAddress",
          "type": "address"
        }
      ],
      "name": "getAsset",
      "outputs": [
        {
          "components": [
            {
              "name": "lendingPoolToken",
              "type": "address"
            },
            {
              "name": "priceOracle",
              "type": "address"
            },
            {
              "name": "interestModel",
              "type": "address"
            }
          ],
          "name": "asset",
          "type": "tuple"
        }
      ],
      "payable": false,
      "stateMutability": "view",
      "type": "function"
    },
    {
      "constant": true,
      "inputs": [
        {
          "name": "assetAddress",
          "type": "address"
        }
      ],
      "name": "getAssetOraclePrice",
      "outputs": [
        {
          "name": "price",
          "type": "uint256"
        }
      ],
      "payable": false,
      "stateMutability": "view",
      "type": "function"
    },
    {
      "constant": true,
      "inputs": [
        {
          "name": "marketID",
          "type": "uint16"
        }
      ],
      "name": "getMarket",
      "outputs": [
        {
          "components": [
            {
              "name": "baseAsset",
              "type": "address"
            },
            {
              "name": "quoteAsset",
              "type": "address"
            },
            {
              "name": "liquidateRate",
              "type": "uint256"
            },
            {
              "name": "withdrawRate",
              "type": "uint256"
            },
            {
              "name": "auctionRatioStart",
              "type": "uint256"
            },
            {
              "name": "auctionRatioPerBlock",
              "type": "uint256"
            },
            {
              "name": "borrowEnable",
              "type": "bool"
            }
          ],
          "name": "market",
          "type": "tuple"
        }
      ],
      "payable": false,
      "stateMutability": "view",
      "type": "function"
    },
    {
      "constant": true,
      "inputs": [
        {
          "name": "user",
          "type": "address"
        },
        {
          "name": "marketID",
          "type": "uint16"
        }
      ],
      "name": "isAccountLiquidatable",
      "outputs": [
        {
          "name": "isLiquidatable",
          "type": "bool"
        }
      ],
      "payable": false,
      "stateMutability": "view",
      "type": "function"
    },
    {
      "constant": true,
      "inputs": [
        {
          "name": "user",
          "type": "address"
        },
        {
          "name": "marketID",
          "type": "uint16"
        }
      ],
      "name": "getAccountDetails",
      "outputs": [
        {
          "components": [
            {
              "name": "liquidatable",
              "type": "bool"
            },
            {
              "name": "status",
              "type": "uint8"
            },
            {
              "name": "debtsTotalUSDValue",
              "type": "uint256"
            },
            {
              "name": "balancesTotalUSDValue",
              "type": "uint256"
            }
          ],
          "name": "details",
          "type": "tuple"
        }
      ],
      "payable": false,
      "stateMutability": "view",
      "type": "function"
    },
    {
      "constant": true,
      "inputs": [],
      "name": "getAuctionsCount",
      "outputs": [
        {
          "name": "count",
          "type": "uint32"
        }
      ],
      "payable": false,
      "stateMutability": "view",
      "type": "function"
    },
    {
      "constant": true,
      "inputs": [],
      "name": "getCurrentAuctions",
      "outputs": [
        {
          "name": "",
          "type": "uint32[]"
        }
      ],
      "payable": false,
      "stateMutability": "view",
      "type": "function"
    },
    {
      "constant": true,
      "inputs": [
        {
          "name": "auctionID",
          "type": "uint32"
        }
      ],
      "name": "getAuctionDetails",
      "outputs": [
        {
          "components": [
            {
              "name": "borrower",
              "type": "address"
            },
            {
              "name": "marketID",
              "type": "uint16"
            },
            {
              "name": "debtAsset",
              "type": "address"
            },
            {
              "name": "collateralAsset",
              "type": "address"
            },
            {
              "name": "leftDebtAmount",
              "type": "uint256"
            },
            {
              "name": "leftCollateralAmount",
              "type": "uint256"
            },
            {
              "name": "ratio",
              "type": "uint256"
            },
            {
              "name": "price",
              "type": "uint256"
            },
            {
              "name": "finished",
              "type": "bool"
            }
          ],
          "name": "details",
          "type": "tuple"
        }
      ],
      "payable": false,
      "stateMutability": "view",
      "type": "function"
    },
    {
      "constant": false,
      "inputs": [
        {
          "name": "auctionID",
          "type": "uint32"
        },
        {
          "name": "amount",
          "type": "uint256"
        }
      ],
      "name": "fillAuctionWithAmount",
      "outputs": [],
      "payable": false,
      "stateMutability": "nonpayable",
      "type": "function"
    },
    {
      "constant": false,
      "inputs": [
        {
          "name": "user",
          "type": "address"
        },
        {
          "name": "marketID",
          "type": "uint16"
        }
      ],
      "name": "liquidateAccount",
      "outputs": [
        {
          "name": "hasAuction",
          "type": "bool"
        },
        {
          "name": "auctionID",
          "type": "uint32"
        }
      ],
      "payable": false,
      "stateMutability": "nonpayable",
      "type": "function"
    },
    {
      "constant": true,
      "inputs": [
        {
          "name": "asset",
          "type": "address"
        }
      ],
      "name": "getPoolCashableAmount",
      "outputs": [
        {
          "name": "cashableAmount",
          "type": "uint256"
        }
      ],
      "payable": false,
      "stateMutability": "view",
      "type": "function"
    },
    {
      "constant": true,
      "inputs": [
        {
          "name": "asset",
          "type": "address"
        }
      ],
      "name": "getIndex",
      "outputs": [
        {
          "name": "supplyIndex",
          "type": "uint256"
        },
        {
          "name": "borrowIndex",
          "type": "uint256"
        }
      ],
      "payable": false,
      "stateMutability": "view",
      "type": "function"
    },
    {
      "constant": true,
      "inputs": [
        {
          "name": "asset",
          "type": "address"
        }
      ],
      "name": "getTotalBorrow",
      "outputs": [
        {
          "name": "amount",
          "type": "uint256"
        }
      ],
      "payable": false,
      "stateMutability": "view",
      "type": "function"
    },
    {
      "constant": true,
      "inputs": [
        {
          "name": "asset",
          "type": "address"
        }
      ],
      "name": "getTotalSupply",
      "outputs": [
        {
          "name": "amount",
          "type": "uint256"
        }
      ],
      "payable": false,
      "stateMutability": "view",
      "type": "function"
    },
    {
      "constant": true,
      "inputs": [
        {
          "name": "asset",
          "type": "address"
        },
        {
          "name": "user",
          "type": "address"
        },
        {
          "name": "marketID",
          "type": "uint16"
        }
      ],
      "name": "getAmountBorrowed",
      "outputs": [
        {
          "name": "amount",
          "type": "uint256"
        }
      ],
      "payable": false,
      "stateMutability": "view",
      "type": "function"
    },
    {
      "constant": true,
      "inputs": [
        {
          "name": "asset",
          "type": "address"
        },
        {
          "name": "user",
          "type": "address"
        }
      ],
      "name": "getAmountSupplied",
      "outputs": [
        {
          "name": "amount",
          "type": "uint256"
        }
      ],
      "payable": false,
      "stateMutability": "view",
      "type": "function"
    },
    {
      "constant": true,
      "inputs": [
        {
          "name": "asset",
          "type": "address"
        },
        {
          "name": "extraBorrowAmount",
          "type": "uint256"
        }
      ],
      "name": "getInterestRates",
      "outputs": [
        {
          "name": "borrowInterestRate",
          "type": "uint256"
        },
        {
          "name": "supplyInterestRate",
          "type": "uint256"
        }
      ],
      "payable": false,
      "stateMutability": "view",
      "type": "function"
    },
    {
      "constant": true,
      "inputs": [
        {
          "name": "asset",
          "type": "address"
        }
      ],
      "name": "getInsuranceBalance",
      "outputs": [
        {
          "name": "amount",
          "type": "uint256"
        }
      ],
      "payable": false,
      "stateMutability": "view",
      "type": "function"
    },
    {
      "constant": false,
      "inputs": [
        {
          "name": "delegate",
          "type": "address"
        }
      ],
      "name": "approveDelegate",
      "outputs": [],
      "payable": false,
      "stateMutability": "nonpayable",
      "type": "function"
    },
    {
      "constant": false,
      "inputs": [
        {
          "name": "delegate",
          "type": "address"
        }
      ],
      "name": "revokeDelegate",
      "outputs": [],
      "payable": false,
      "stateMutability": "nonpayable",
      "type": "function"
    },
    {
      "constant": false,
      "inputs": [],
      "name": "joinIncentiveSystem",
      "outputs": [],
      "payable": false,
      "stateMutability": "nonpayable",
      "type": "function"
    },
    {
      "constant": false,
      "inputs": [],
      "name": "exitIncentiveSystem",
      "outputs": [],
      "payable": false,
      "stateMutability": "nonpayable",
      "type": "function"
    },
    {
      "constant": true,
      "inputs": [
        {
          "name": "relayer",
          "type": "address"
        }
      ],
      "name": "canMatchOrdersFrom",
      "outputs": [
        {
          "name": "canMatch",
          "type": "bool"
        }
      ],
      "payable": false,
      "stateMutability": "view",
      "type": "function"
    },
    {
      "constant": true,
      "inputs": [
        {
          "name": "relayer",
          "type": "address"
        }
      ],
      "name": "isParticipant",
      "outputs": [
        {
          "name": "result",
          "type": "bool"
        }
      ],
      "payable": false,
      "stateMutability": "view",
      "type": "function"
    },
    {
      "constant": true,
      "inputs": [
        {
          "name": "asset",
          "type": "address"
        },
        {
          "name": "user",
          "type": "address"
        }
      ],
      "name": "balanceOf",
      "outputs": [
        {
          "name": "balance",
          "type": "uint256"
        }
      ],
      "payable": false,
      "stateMutability": "view",
      "type": "function"
    },
    {
      "constant": true,
      "inputs": [
        {
          "name": "marketID",
          "type": "uint16"
        },
        {
          "name": "asset",
          "type": "address"
        },
        {
          "name": "user",
          "type": "address"
        }
      ],
      "name": "marketBalanceOf",
      "outputs": [
        {
          "name": "balance",
          "type": "uint256"
        }
      ],
      "payable": false,
      "stateMutability": "view",
      "type": "function"
    },
    {
      "constant": true,
      "inputs": [
        {
          "name": "marketID",
          "type": "uint16"
        },
        {
          "name": "asset",
          "type": "address"
        },
        {
          "name": "user",
          "type": "address"
        }
      ],
      "name": "getMarketTransferableAmount",
      "outputs": [
        {
          "name": "amount",
          "type": "uint256"
        }
      ],
      "payable": false,
      "stateMutability": "view",
      "type": "function"
    },
    {
      "constant": false,
      "inputs": [
        {
          "components": [
            {
              "name": "trader",
              "type": "address"
            },
            {
              "name": "relayer",
              "type": "address"
            },
            {
              "name": "baseAsset",
              "type": "address"
            },
            {
              "name": "quoteAsset",
              "type": "address"
            },
            {
              "name": "baseAssetAmount",
              "type": "uint256"
            },
            {
              "name": "quoteAssetAmount",
              "type": "uint256"
            },
            {
              "name": "gasTokenAmount",
              "type": "uint256"
            },
            {
              "name": "data",
              "type": "bytes32"
            }
          ],
          "name": "order",
          "type": "tuple"
        }
      ],
      "name": "cancelOrder",
      "outputs": [],
      "payable": false,
      "stateMutability": "nonpayable",
      "type": "function"
    },
    {
      "constant": true,
      "inputs": [
        {
          "name": "orderHash",
          "type": "bytes32"
        }
      ],
      "name": "isOrderCancelled",
      "outputs": [
        {
          "name": "isCancelled",
          "type": "bool"
        }
      ],
      "payable": false,
      "stateMutability": "view",
      "type": "function"
    },
    {
      "constant": false,
      "inputs": [
        {
          "components": [
            {
              "components": [
                {
                  "name": "trader",
                  "type": "address"
                },
                {
                  "name": "baseAssetAmount",
                  "type": "uint256"
                },
                {
                  "name": "quoteAssetAmount",
                  "type": "uint256"
                },
                {
                  "name": "gasTokenAmount",
                  "type": "uint256"
                },
                {
                  "name": "data",
                  "type": "bytes32"
                },
                {
                  "components": [
                    {
                      "name": "config",
                      "type": "bytes32"
                    },
                    {
                      "name": "r",
                      "type": "bytes32"
                    },
                    {
                      "name": "s",
                      "type": "bytes32"
                    }
                  ],
                  "name": "signature",
                  "type": "tuple"
                }
              ],
              "name": "takerOrderParam",
              "type": "tuple"
            },
            {
              "components": [
                {
                  "name": "trader",
                  "type": "address"
                },
                {
                  "name": "baseAssetAmount",
                  "type": "uint256"
                },
                {
                  "name": "quoteAssetAmount",
                  "type": "uint256"
                },
                {
                  "name": "gasTokenAmount",
                  "type": "uint256"
                },
                {
                  "name": "data",
                  "type": "bytes32"
                },
                {
                  "components": [
                    {
                      "name": "config",
                      "type": "bytes32"
                    },
                    {
                      "name": "r",
                      "type": "bytes32"
                    },
                    {
                      "name": "s",
                      "type": "bytes32"
                    }
                  ],
                  "name": "signature",
                  "type": "tuple"
                }
              ],
              "name": "makerOrderParams",
              "type": "tuple[]"
            },
            {
              "name": "baseAssetFilledAmounts",
              "type": "uint256[]"
            },
            {
              "components": [
                {
                  "name": "baseAsset",
                  "type": "address"
                },
                {
                  "name": "quoteAsset",
                  "type": "address"
                },
                {
                  "name": "relayer",
                  "type": "address"
                }
              ],
              "name": "orderAddressSet",
              "type": "tuple"
            }
          ],
          "name": "params",
          "type": "tuple"
        }
      ],
      "name": "matchOrders",
      "outputs": [],
      "payable": false,
      "stateMutability": "nonpayable",
      "type": "function"
    },
    {
      "constant": true,
      "inputs": [
        {
          "name": "user",
          "type": "address"
        }
      ],
      "name": "getDiscountedRate",
      "outputs": [
        {
          "name": "rate",
          "type": "uint256"
        }
      ],
      "payable": false,
      "stateMutability": "view",
      "type": "function"
    },
    {
      "constant": true,
      "inputs": [],
      "name": "getHydroTokenAddress",
      "outputs": [
        {
          "name": "BitFinanceTokenAddress",
          "type": "address"
        }
      ],
      "payable": false,
      "stateMutability": "view",
      "type": "function"
    },
    {
      "constant": true,
      "inputs": [
        {
          "name": "orderHash",
          "type": "bytes32"
        }
      ],
      "name": "getOrderFilledAmount",
      "outputs": [
        {
          "name": "amount",
          "type": "uint256"
        }
      ],
      "payable": false,
      "stateMutability": "view",
      "type": "function"
    }
  ],
  "bytecode": "0x608060405234801561001057600080fd5b506150dd806100206000396000f3fe60806040526004361061020f5760003560e01c80635be53e74116101185780639c61a3dd116100a0578063b875bdf11161006f578063b875bdf11461065b578063e45c187914610670578063ee68495514610692578063f7888aec146106b2578063fa352c00146106d25761020f565b80639c61a3dd146105e65780639f0bf0a7146105fb578063b31610db1461061b578063b6b3618e1461063b5761020f565b80637e6ef7fc116100e75780637e6ef7fc146105535780638059cf3b146105735780638538d14e146105865780638ea17c7b146105a6578063929066f5146105c65761020f565b80635be53e74146104d15780635dae042d146104f3578063637b93ed1461051357806368da10ae146105335761020f565b806330b8b2c61161019b5780633e5893be1161016a5780633e5893be1461041657806343239e9b146104365780634376abf11461046457806353bab42e1461048457806355559a86146104b15761020f565b806330b8b2c614610392578063316e5b1e146103bf578063325b7b03146103df5780633560c5cd146104015761020f565b806313a30013116101e257806313a30013146102ca578063168ba56c146102f75780631a8cd123146103255780632a2b1240146103455780632d6a6025146103655761020f565b806306df453e146102255780630c511d11146102475780630f8eeeb01461027d578063101424d91461029d575b610222600061021c6106f2565b346106f7565b50005b34801561023157600080fd5b50610245610240366004613a91565b610757565b005b34801561025357600080fd5b50610267610262366004613bfb565b610765565b6040516102749190614b03565b60405180910390f35b34801561028957600080fd5b50610267610298366004613b36565b61077a565b3480156102a957600080fd5b506102bd6102b8366004613a91565b61079b565b6040516102749190614edd565b3480156102d657600080fd5b506102ea6102e5366004613d0c565b61087a565b6040516102749190614d9c565b34801561030357600080fd5b50610317610312366004613b36565b610904565b604051610274929190614b11565b34801561033157600080fd5b506102bd610340366004613d2a565b6109ab565b34801561035157600080fd5b50610245610360366004613da9565b6109d9565b34801561037157600080fd5b50610385610380366004613d8b565b610a62565b6040516102749190614d7f565b34801561039e57600080fd5b506103b26103ad366004613a91565b610b09565b6040516102749190614d71565b3480156103cb57600080fd5b506102bd6103da366004613aaf565b610b63565b3480156103eb57600080fd5b506103f4610b7c565b6040516102749190614ad6565b34801561040d57600080fd5b50610245610b8b565b34801561042257600080fd5b50610267610431366004613a91565b610b97565b34801561044257600080fd5b50610456610451366004613b66565b610ba4565b604051610274929190614eeb565b34801561047057600080fd5b506102bd61047f366004613a91565b610bbe565b34801561049057600080fd5b506104a461049f366004613b36565b610bcb565b6040516102749190614d8e565b3480156104bd57600080fd5b506102bd6104cc366004613bfb565b610bea565b3480156104dd57600080fd5b506104e6610bfc565b6040516102749190614af2565b3480156104ff57600080fd5b506102bd61050e366004613a91565b610c7f565b34801561051f57600080fd5b506102bd61052e366004613a91565b610cb5565b34801561053f57600080fd5b506102bd61054e366004613a91565b610cde565b34801561055f57600080fd5b5061026761056e366004613c19565b610cf6565b610245610581366004613b96565b610d11565b34801561059257600080fd5b506102bd6105a1366004613a91565b610d83565b3480156105b257600080fd5b506102bd6105c1366004613ae9565b610d9b565b3480156105d257600080fd5b506102676105e1366004613a91565b610dc1565b3480156105f257600080fd5b506102bd610dce565b34801561060757600080fd5b50610245610616366004613c7b565b610dd8565b34801561062757600080fd5b50610456610636366004613a91565b610de3565b34801561064757600080fd5b50610245610656366004613cb0565b610dfa565b34801561066757600080fd5b50610245610e13565b34801561067c57600080fd5b50610685610e1d565b6040516102749190614f06565b34801561069e57600080fd5b506102bd6106ad366004613d2a565b610e29565b3480156106be57600080fd5b506102bd6106cd366004613aaf565b610e57565b3480156106de57600080fd5b506102456106ed366004613a91565b610e67565b600e90565b6000806107026106f2565b6001600160a01b0316846001600160a01b0316141561072257508161072e565b61072e84333086610e72565b610742858561073c33610efc565b86610f2c565b61074d338585610fc2565b90505b9392505050565b610762600082611012565b50565b60009081526011602052604090205460ff1690565b6000610787600083611050565b6107936000848461107b565b519392505050565b60006107a56106f2565b6001600160a01b0316826001600160a01b031614156107e057506001600160a01b038116600090815260026020526040902054303103610875565b6001600160a01b03821660008181526002602052604090819020549051600160e01b6370a082310281529091906370a0823190610821903090600401614ae4565b60206040518083038186803b15801561083957600080fd5b505afa15801561084d573d6000803e3d6000fd5b505050506040513d601f19601f820116820180604052506108719190810190613d6d565b0390505b919050565b610882613295565b61088d600083611050565b5061ffff16600090815260046020818152604092839020835160e08101855281546001600160a01b0390811682526001830154169281019290925260028101549382019390935260038301546060820152908201546080820152600582015460a082015260069091015460ff16151560c082015290565b600080610912600084611050565b604051600160e21b63090a15a302815273__Auctions______________________________90632428568c906109519060009088908890600401614e50565b604080518083038186803b15801561096857600080fd5b505af415801561097c573d6000803e3d6000fd5b505050506040513d601f19601f820116820180604052506109a09190810190613bcb565b909590945092505050565b60006109b8600085611050565b6109c460008585611261565b6109d160008584866112d7565b949350505050565b6109e460008361143b565b6109ef60008361146b565b604051600160e01b634a02549102815273__Auctions______________________________90634a02549190610a2e9060009086908690600401614eb5565b60006040518083038186803b158015610a4657600080fd5b505af4158015610a5a573d6000803e3d6000fd5b505050505050565b610a6a6132e6565b610a7560008361143b565b604051600160e01b63fc1d5a3302815273__Auctions______________________________9063fc1d5a3390610ab2906000908690600401614ea7565b6101206040518083038186803b158015610acb57600080fd5b505af4158015610adf573d6000803e3d6000fd5b505050506040513d601f19601f82011682018060405250610b039190810190613c5c565b92915050565b610b11613332565b610b1c6000836114bb565b506001600160a01b03908116600090815260016020818152604092839020835160608101855281548616815292810154851691830191909152600201549092169082015290565b6000610b706000846114bb565b610750600084846114e4565b6012546001600160a01b031690565b610b956000611511565b565b6000610b03600083611536565b600080610bb26000856114bb565b6109a06000858561157d565b6000610b036000836116b0565b610bd3613352565b610bde600083611050565b6107506000848461107b565b60009081526010602052604090205490565b601780546040805160208084028201810190925282815260609390929091830182828015610c7557602002820191906000526020600020906000905b82829054906101000a900463ffffffff1663ffffffff1681526020019060040190602082600301049283019260010382029150808411610c385790505b5050505050905090565b6000610c8c6000836114bb565b6001600160a01b0380831660009081526001602081905260409091200154610b03911683611798565b6000610cc26000836114bb565b506001600160a01b031660009081526007602052604090205490565b6000610ceb6000836114bb565b610b036000836117e8565b60006109d18484610d0c36869003860186613cee565b611803565b604051600160e61b6303d5fb8902815273__BatchActions__________________________9063f57ee24090610d509060009085903490600401614e78565b60006040518083038186803b158015610d6857600080fd5b505af4158015610d7c573d6000803e3d6000fd5b5050505050565b6000610d906000836114bb565b610b03600083611912565b6000610da8600083611050565b610db460008386611261565b6109d1600085858561192d565b6000610b03600083611986565b60005461ffff1690565b6107626000826119a9565b600080610df1600084611c32565b91509150915091565b6107626000610e0e36849003840184613ccf565b611d47565b610b956000611da4565b60155463ffffffff1690565b6000610e36600085611050565b610e4260008585611261565b6109d16000610e518487611dc6565b85611dfd565b60006107506000610e5184610efc565b610762600082611e34565b60008051600451602451604451600160e01b6323b872dd026000528760045286602452856044526020600060646000808d5af1600051856000528460045283602452826044526000811160203d141660003d14176001831416965050505050505080610d7c57604051600160e51b62461bcd028152600401610ef390614ba1565b60405180910390fd5b610f0461337b565b5060408051606081018252600080825260208201526001600160a01b03929092169082015290565b6000610f3e838663ffffffff611e6b16565b6001600160a01b038516600090815260208290526040902054909150610f6a908363ffffffff611ed916565b6001600160a01b038516600090815260208381526040808320939093556002880190522054610f9f908363ffffffff611f0116565b6001600160a01b0390941660009081526002909501602052505060409092205550565b816001600160a01b0316836001600160a01b03167f5548c837ab068cf56a2c2479df0882a4922fd203edb7517321831d95078c5f62836040516110059190614edd565b60405180910390a3505050565b33600081815260138401602090815260408083206001600160a01b03861684529091529020805460ff1916600117905561104c9082611f53565b5050565b815461ffff9081169082161061104c57604051600160e51b62461bcd028152600401610ef390614d51565b611083613352565b6001600160a01b0383166000908152600385016020908152604080832061ffff8616845282528083206004880183529220825490918401906601000000000000900460ff1660018111156110d357fe5b908160018111156110e057fe5b90525080546001808301546001600160a01b0392831660008181528a840160205260408120909301549093918216929161111b911684611798565b6001600160a01b0380841660009081526001808d0160205260408220015492935091611148911684611798565b905060006111588b868c8c61192d565b905060006111688c868d8d61192d565b9050611172611f97565b61119a611185848763ffffffff611fa316565b611195848763ffffffff611fa316565b611ed9565b816111a157fe5b0460408a01526111af611f97565b6001600160a01b038716600090815260018a016020526040902054611209906111de908763ffffffff611fa316565b6001600160a01b038816600090815260018c016020526040902054611195908763ffffffff611fa316565b8161121057fe5b0460608a015260008960200151600181111561122857fe5b141561124d5761124089604001518860020154611fe0565b60608a0151108952611252565b600089525b50505050505050509392505050565b61ffff821660009081526004840160205260409020546001600160a01b03828116911614806112b3575061ffff821660009081526004840160205260409020600101546001600160a01b038281169116145b6112d257604051600160e51b62461bcd028152600401610ef390614c81565b505050565b60006112e1613352565b6112ec86858761107b565b6001600160a01b0380861660009081526003808a016020908152604080842061ffff8c16808652908352818520958a16855260019095018252808420548187015195855260048d0190925283209091015493945092909161134c91611fe0565b9050826060015181111561136657600093505050506109d1565b60608301516001600160a01b0380871660009081526001808c016020526040808320909101549051600160e01b6341976e090281529385900393919216906341976e09906113b8908a90600401614ad6565b60206040518083038186803b1580156113d057600080fd5b505afa1580156113e4573d6000803e3d6000fd5b505050506040513d601f19601f820116820180604052506114089190810190613d6d565b905060006114168383611ffe565b90508481111561142e578496505050505050506109d1565b95506109d1945050505050565b601582015463ffffffff9081169082161061104c57604051600160e51b62461bcd028152600401610ef390614c51565b600063ffffffff82166000908152601684016020526040902054640100000000900460ff16600181111561149b57fe5b1461104c57604051600160e51b62461bcd028152600401610ef390614b71565b6114c5828261201c565b61104c57604051600160e51b62461bcd028152600401610ef390614bb1565b6000806114f18585611c32565b509050611508611502868686612042565b826120d6565b95945050505050565b3360008181526014830160205260409020805460ff1916600117905561076290612100565b6000336001600160a01b03831614806107505750506001600160a01b031660009081526013919091016020908152604080832033845290915290205460ff16151560011490565b60008060008061158d8787611c32565b91509150600061159e888885612137565b9050806115b55750600093508392506116a8915050565b60006115d2876115c68b8b8761214c565b9063ffffffff611ed916565b905060006115fe836115f26115e5611f97565b859063ffffffff611fa316565b9063ffffffff61217116565b6001600160a01b03808b16600090815260018d01602052604090206002015491925061162b91168261219e565b9650611635611f97565b60030287111561165a57604051600160e51b62461bcd028152600401610ef390614cf1565b60006116668389611fe0565b905060006116928261168d8e60060160000154611681611f97565b9063ffffffff6121dc16565b6120d6565b905061169e8186611ffe565b9750505050505050505b935093915050565b601282015460009081906116cd906001600160a01b031684612207565b9050806116e4576116dc61224e565b915050610b03565b600f84015460f881901c600061170884670de0b6b3a764000063ffffffff61217116565b935060005b8281101561174e576008600260058302010284901b60e01c915081851015611746576008600660058302010284901b60f81c955061174e565b60010161170d565b5084611764578260011a60f81b60f81c60ff1694505b61176c61224e565b85111561178e57604051600160e51b62461bcd028152600401610ef390614b91565b5050505092915050565b6000600160e01b6341976e090281806117bb86846001600160a01b038816612253565b91509150806117df57604051600160e51b62461bcd028152600401610ef390614be1565b50949350505050565b6000806117f58484611c32565b5090506109d1848483612137565b8051600090600181901a60f890811b811c91839190821a811b901c826118a7576001876040516020016118369190614a89565b604051602081830303815290604052805190602001208287602001518860400151604051600081526020016040526040516118749493929190614b2c565b6020604051602081039080840390855afa158015611896573d6000803e3d6000fd5b5050506020604051035191506118f9565b60ff8316600114156118de576001878287602001518860400151604051600081526020016040526040516118749493929190614b2c565b604051600160e51b62461bcd028152600401610ef390614c11565b506001600160a01b038581169116149150509392505050565b60008061191f8484611c32565b9150506109d184848361214c565b60008061193a8686611c32565b6001600160a01b038087166000908152600e8a016020908152604080832061ffff8a1684528252808320938b168352929052205490925061197c915082611fe0565b9695505050505050565b6001600160a01b03166000908152601491909101602052604090205460ff161590565b6119bb82826060015160400151611536565b6119da57604051600160e51b62461bcd028152600401610ef390614d11565b80516119e590612288565b15611a0557604051600160e51b62461bcd028152600401610ef390614cb1565b6000611a1983836060015160400151611986565b90506000611a2c848460000151846122a7565b9050611a3661339d565b611a4985856000015186606001516122c5565b90506060846020015151604051908082528060200260200182016040528015611a8c57816020015b611a796133c1565b815260200190600190039081611a715790505b50905060005b856020015151811015611c0257611abf86602001518281518110611ab257fe5b602002602001015161243a565b15611adf57604051600160e51b62461bcd028152600401610ef390614d21565b611aff86602001518281518110611af257fe5b6020026020010151612449565b1515611b0e8760000151612449565b15151415611b3157604051600160e51b62461bcd028152600401610ef390614d31565b611b56866000015187602001518381518110611b4957fe5b6020026020010151612458565b611b5e61339d565b611b848888602001518481518110611b7257fe5b602002602001015189606001516122c5565b9050611bc8888860000151868a602001518681518110611ba057fe5b6020026020010151858c604001518881518110611bb957fe5b60200260200101518b8d6124d6565b838381518110611bd457fe5b602090810291909101810191909152818101519151600090815260108a019091526040902055600101611a92565b50602080830151835160009081526010890190925260409091205584516060860151610a5a918891849190612766565b6001600160a01b0381166000908152600a8301602052604081205481908190611c6290429063ffffffff6121dc16565b6001600160a01b0385166000908152600b8701602052604081205491925090611ca7906301e1338090611c9b908563ffffffff611fa316565b9063ffffffff612b3816565b6001600160a01b0386166000908152600c8801602052604081205491925090611ce0906301e13380906115f2908663ffffffff611fa316565b6001600160a01b0387166000908152600889016020526040902054909150611d1090611d0b84612b65565b611fe0565b6001600160a01b0387166000908152600989016020526040902054909450611d3b9061168d83612b65565b94505050509250929050565b80516001600160a01b03163314611d7357604051600160e51b62461bcd028152600401610ef390614c21565b6000611d7e82612b7f565b60008181526011850160205260409020805460ff1916600117905590506112d281612b92565b3360008181526014830160205260409020805460ff1916905561076290612bc0565b611dce61337b565b50604080516060810182526001815261ffff90921660208301526001600160a01b039092169181019190915290565b600080611e10848663ffffffff611e6b16565b6001600160a01b038416600090815260209190915260409020549150509392505050565b33600081815260138401602090815260408083206001600160a01b03861684529091529020805460ff1916905561104c9082612bf7565b60008083516001811115611e7b57fe5b1415611ea357506040808301516001600160a01b031660009081526005830160205220610b03565b506040808301516001600160a01b031660009081526003830160209081528282208186015161ffff168352905220600101610b03565b60008282018381101561075057604051600160e51b62461bcd028152600401610ef390614d01565b60006001600160ff1b03821115611f2d57604051600160e51b62461bcd028152600401610ef390614ce1565b8282018381121561075057604051600160e51b62461bcd028152600401610ef390614ce1565b806001600160a01b0316826001600160a01b03167f7fa92f6e23fcdb0b7a7001ea137560a8ebee9b8302d16e3b37c64ae7116b69ad60405160405180910390a35050565b670de0b6b3a764000090565b600082611fb257506000610b03565b82820282848281611fbf57fe5b041461075057604051600160e51b62461bcd028152600401610ef390614d41565b6000610750670de0b6b3a7640000611c9b858563ffffffff611fa316565b6000610750826115f285670de0b6b3a764000063ffffffff611fa316565b6001600160a01b0390811660009081526001928301602052604090209091015416151590565b6001600160a01b038083166000908152600185016020526040808220549051600160e01b6370a08231028152919216906370a0823190612086908590600401614ad6565b60206040518083038186803b15801561209e57600080fd5b505afa1580156120b2573d6000803e3d6000fd5b505050506040513d601f19601f820116820180604052506109d19190810190613d6d565b6000670de0b6b3a76400006120f1848463ffffffff611fa316565b816120f857fe5b049392505050565b6040516001600160a01b038216907f9bdfcd96a99ab6dad403b4ef4562bb3471fdeaab5e699160abf7c3f2cbe6680590600090a250565b60006109d16121468585612c3b565b836120d6565b6001600160a01b0382166000908152600d840160205260408120546109d19083611fe0565b600080821161219557604051600160e51b62461bcd028152600401610ef390614c41565b8183816120f857fe5b6000600160e01b6369e8a15f0281806121b8868487612253565b91509150806117df57604051600160e51b62461bcd028152600401610ef390614bd1565b60008282111561220157604051600160e51b62461bcd028152600401610ef390614ca1565b50900390565b6000600160e01b6370a0823102818061222a86846001600160a01b038816612253565b91509150806117df57604051600160e51b62461bcd028152600401610ef390614c31565b606490565b600080604051805160048201518683528560048401526020836024858b5afa8351928452600490930152969095509350505050565b608081015160009060165b1a60f81b60f81c60ff166001149050919050565b6000806122b384612cca565b90506115088585600001518386612cd7565b6122cd61339d565b60026122d884612d0b565b146122f857604051600160e51b62461bcd028152600401610ef390614bc1565b612300613443565b61230a8484612d15565b905061231581612b7f565b808352600090815260108601602090815260409091205490830152600261233b85612d7c565b15801561235057508160800151836020015110155b1561235f5760035b90506123bd565b61236885612d7c565b801561237c57508160a00151836020015110155b15612388576003612358565b61239185612d98565b421061239e576000612358565b8251600090815260118701602052604090205460ff16156123bd575060015b60ff81166002146123e357604051600160e51b62461bcd028152600401610ef390614b81565b8251855160a08701516123f7929190611803565b61241657604051600160e51b62461bcd028152600401610ef390614c01565b61241f85612da5565b60408401819052612431908790612e26565b50509392505050565b60808101516000906002612293565b60808101516000906001612293565b600061247582602001518460400151611fa390919063ffffffff16565b9050600061249483604001518560200151611fa390919063ffffffff16565b905061249f84612449565b6124ac57808210156124b1565b808211155b6124d057604051600160e51b62461bcd028152600401610ef390614cc1565b50505050565b6124de6133c1565b61010081018490526124f08685612e4e565b610120820152604080880151610160830152850151610140820152602087015161251f57606088015160e08201525b602085015161253357606086015160c08201525b61253c88612d7c565b61258b57610100810151602088015161255a9163ffffffff611ed916565b6020808901829052890151101561258657604051600160e51b62461bcd028152600401610ef390614cd1565b6125d2565b61012081015160208801516125a59163ffffffff611ed916565b60208801819052604089015110156125d257604051600160e51b62461bcd028152600401610ef390614cd1565b61010081015160208601516125ec9163ffffffff611ed916565b6020808701829052870151101561261857604051600160e51b62461bcd028152600401610ef390614bf1565b85516001600160a01b039081168252885116602082015261263888612449565b156126525780516001600160a01b03166040820152612666565b60208101516001600160a01b031660408201525b600061267187612e63565b905080156126db57600060608301526126d16126b561268e61224e565b6126a961269961224e565b620186a09063ffffffff611fa316565b9063ffffffff611fa316565b6115f2836126a988876101200151611fa390919063ffffffff16565b6080830152612730565b60006126e688612e82565b600060808501819052895191925090612702908d908488612cd7565b905061272861271261269961224e565b6101208601516115f2908463ffffffff611fa316565b606085015250505b61275461273e61269961224e565b6101208401516115f2908763ffffffff611fa316565b60a08301525098975050505050505050565b600061277183612449565b9050600061277d61337b565b5060408051606081018252600080825260208201819052858301516001600160a01b031692820192909252905b8651811015612ae157612854888660000151866127df578984815181106127cd57fe5b602002602001015161014001516127f9565b8984815181106127eb57fe5b602002602001015161016001515b8761281c578a858151811061280a57fe5b60200260200101516101600151612836565b8a858151811061282857fe5b602002602001015161014001515b8b868151811061284257fe5b60200260200101516101000151612e8f565b600084156128db576128d488838151811061286b57fe5b6020026020010151608001516116818a858151811061288657fe5b602002602001015160c001516115c68c87815181106128a157fe5b6020026020010151606001518d88815181106128b957fe5b60200260200101516101200151611ed990919063ffffffff16565b9050612956565b6129538883815181106128ea57fe5b6020026020010151608001516115c68a858151811061290557fe5b602002602001015160c001516116818c878151811061292057fe5b6020026020010151606001518d888151811061293857fe5b602002602001015161012001516121dc90919063ffffffff16565b90505b6129df89876020015187612982578a858151811061297057fe5b6020026020010151610160015161299c565b8a858151811061298e57fe5b602002602001015161014001515b886129bf578b86815181106129ad57fe5b602002602001015161014001516129d9565b8b86815181106129cb57fe5b602002602001015161016001515b85612e8f565b612a01898984815181106129ef57fe5b60200260200101516101400151612f65565b612a46888381518110612a1057fe5b6020026020010151606001516115c68a8581518110612a2b57fe5b602002602001015160a0015187611ed990919063ffffffff16565b9350612a8d888381518110612a5757fe5b602002602001015160e001516115c68a8581518110612a7257fe5b602002602001015160c0015187611ed990919063ffffffff16565b9350612ab9888381518110612a9e57fe5b602002602001015160800151856121dc90919063ffffffff16565b9350612ad8888381518110612aca57fe5b602002602001015187612f8d565b506001016127aa565b50612b0c87856020015188600081518110612af857fe5b602002602001015161016001518486612e8f565b612b2f8787600081518110612b1d57fe5b60200260200101516101600151612f65565b50505050505050565b600080612b458484612171565b905082810284038015612b5d57506001019050610b03565b509050610b03565b6000610b0382670de0b6b3a764000063ffffffff611ed916565b6000610b03612b8d83613006565b613048565b60405181907fdfcfd7b1e4d40c282e16bfdfa04bba6792f850249f83ed258c3fecc3c5962fbc90600090a250565b6040516001600160a01b038216907fc3dd8edec722273de2ffd31b47b4f106689ae891ac1bfddf7ae6190589ab0f6790600090a250565b806001600160a01b0316826001600160a01b03167fa6568d7ca1ae4c87043ca12f90308b8ef94330ee3a047c2101e1a40812d26c9860405160405180910390a35050565b6001600160a01b0380821660009081526001840160209081526040808320548151600160e01b6318160ddd0281529151939416926318160ddd92600480840193919291829003018186803b158015612c9257600080fd5b505afa158015612ca6573d6000803e3d6000fd5b505050506040513d601f19601f820116820180604052506107509190810190613d6d565b6080015160501b60f01c90565b60008115612d0057612cf9612cec86866116b0565b849063ffffffff611fa316565b90506109d1565b612cf9612cec61224e565b6080015160f81c90565b612d1d613443565b82516001600160a01b03908116825260208085015160808085019190915260408087015160a086015260608088015160c0870152919096015160e085015284518316868501528482015183169084015292909301519092169082015290565b6000612d8782612449565b158015610b035750610b038261243a565b6080015160181b60d81c90565b612dad61337b565b60008060b88460800151901b6001600160f81b031916600160f81b1415612de3575050608082015160019060c01b60f01c612dea565b5060009050805b6040518060600160405280836001811115612e0157fe5b815261ffff909216602083015293516001600160a01b03166040909101525090919050565b600181516001811115612e3557fe5b141561104c5761104c8282602001518360400151613116565b6000610750836040015184602001518461317a565b608081015160009060601b60f01c61075081612e7d61224e565b6131ba565b6080015160401b60f01c90565b612e9a8584866131d0565b612ea58583866131d0565b6000612eb7848763ffffffff611e6b16565b90506000612ecb848863ffffffff611e6b16565b6001600160a01b038716600090815260208490526040902054909150831115612f0957604051600160e51b62461bcd028152600401610ef390614c91565b6001600160a01b0386166000908152602083815260408083208054879003905590839052902054612f40908463ffffffff611ed916565b6001600160a01b03909616600090815260209190915260409020949094555050505050565b600181516001811115612f7457fe5b141561104c5761104c8282604001518360200151613202565b7f6bf96fcc2cec9e08b082506ebbc10114578a497ff1ea436628ba8996b750677c81836000015184602001518560400151866060015187608001518860a001518960c001518a60e001518b61010001518c6101200151604051612ffa9b9a99989796959493929190614daa565b60405180910390a15050565b60008060405160200161301890614ac0565b60408051601f19818403810182529290915280516020909101209301805193815261012081209390525090919050565b600060405160200161305990614acb565b60408051601f1981840301815282825280516020918201208383018352601384527f42697446696e616e63652050726f746f636f6c000000000000000000000000009382019390935290516130d192917f8cecbb4fdec90c7c4de7da8d8ac1533b1fb39a8f76f76c0133754f9daf3bbe7a9101614a63565b60405160208183030381529060405280519060200120826040516020016130f9929190614aa9565b604051602081830303815290604052805190602001209050919050565b60006001600160a01b0382166000908152600385016020908152604080832061ffff871684529091529020546601000000000000900460ff16600181111561315a57fe5b146112d257604051600160e51b62461bcd028152600401610ef390614b61565b600061318784848461322e565b156131a757604051600160e51b62461bcd028152600401610ef390614c61565b6109d16131b48584611fa3565b84612171565b60008183106131c95781610750565b5090919050565b6001825160018111156131df57fe5b14156112d2576131f3838360200151611050565b6112d283836020015183611261565b61320d83838361107b565b51156112d257604051600160e51b62461bcd028152600401610ef390614c71565b600061323a8483611fa3565b61325861325061324a8786611fa3565b86613262565b6103e8611fa3565b1015949350505050565b60008161328457604051600160e51b62461bcd028152600401610ef390614d61565b81838161328d57fe5b069392505050565b6040518060e0016040528060006001600160a01b0316815260200160006001600160a01b03168152602001600081526020016000815260200160008152602001600081526020016000151581525090565b6040805161012081018252600080825260208201819052918101829052606081018290526080810182905260a0810182905260c0810182905260e0810182905261010081019190915290565b604080516060810182526000808252602082018190529181019190915290565b604080516080810190915260008082526020820190815260200160008152602001600081525090565b6040805160608101909152806000815260006020820181905260409091015290565b6040805160a081018252600080825260208201529081016133bc61337b565b905290565b60405180610200016040528060006001600160a01b0316815260200160006001600160a01b0316815260200160006001600160a01b031681526020016000815260200160008152602001600081526020016000815260200160008152602001600081526020016000815260200161343661337b565b81526020016133bc61337b565b6040805161010081018252600080825260208201819052918101829052606081018290526080810182905260a0810182905260c0810182905260e081019190915290565b8035610b038161505e565b8051610b038161505e565b600082601f8301126134ae57600080fd5b81356134c16134bc82614f3b565b614f14565b81815260209384019390925082018360005b8381101561178e57813586016134e98882613653565b84525060209283019291909101906001016134d3565b600082601f83011261351057600080fd5b813561351e6134bc82614f3b565b915081818352602084019350602081019050838561010084028201111561354457600080fd5b60005b8381101561178e578161355a8882613887565b8452506020909201916101009190910190600101613547565b600082601f83011261358457600080fd5b81356135926134bc82614f3b565b915081818352602084019350602081019050838560208402820111156135b757600080fd5b60005b8381101561178e57816135cd88826135ee565b84525060209283019291909101906001016135ba565b8051610b0381615072565b8035610b038161507b565b600082601f83011261360a57600080fd5b81356136186134bc82614f5c565b9150808252602083016020830185838301111561363457600080fd5b61363f838284615008565b50505092915050565b8035610b0381615084565b60006040828403121561366557600080fd5b61366f6040614f14565b9050600061367d8484613648565b825250602082013567ffffffffffffffff81111561369a57600080fd5b6136a6848285016135f9565b60208301525092915050565b600061012082840312156136c557600080fd5b6136d0610120614f14565b905060006136de8484613492565b82525060206136ef84848301613a65565b602083015250604061370384828501613492565b604083015250606061371784828501613492565b606083015250608061372b84828501613a70565b60808301525060a061373f84828501613a70565b60a08301525060c061375384828501613a70565b60c08301525060e061376784828501613a70565b60e08301525061010061377c848285016135e3565b6101008301525092915050565b60006101a0828403121561379c57600080fd5b6137a66080614f14565b905060006137b48484613887565b82525061010082013567ffffffffffffffff8111156137d257600080fd5b6137de848285016134ff565b60208301525061012082013567ffffffffffffffff8111156137ff57600080fd5b61380b84828501613573565b6040830152506101406138208482850161382c565b60608301525092915050565b60006060828403121561383e57600080fd5b6138486060614f14565b905060006138568484613487565b825250602061386784848301613487565b602083015250604061387b84828501613487565b60408301525092915050565b6000610100828403121561389a57600080fd5b6138a460c0614f14565b905060006138b28484613487565b82525060206138c3848483016135ee565b60208301525060406138d7848285016135ee565b60408301525060606138eb848285016135ee565b60608301525060806138ff848285016135ee565b60808301525060a061391384828501613a0b565b60a08301525092915050565b6000610100828403121561393257600080fd5b50919050565b6000610100828403121561394b57600080fd5b613956610100614f14565b905060006139648484613487565b825250602061397584848301613487565b602083015250604061398984828501613487565b604083015250606061399d84828501613487565b60608301525060806139b1848285016135ee565b60808301525060a06139c5848285016135ee565b60a08301525060c06139d9848285016135ee565b60c08301525060e06139ed848285016135ee565b60e08301525092915050565b60006060828403121561393257600080fd5b600060608284031215613a1d57600080fd5b613a276060614f14565b90506000613a3584846135ee565b8252506020613a46848483016135ee565b602083015250604061387b848285016135ee565b8035610b0381615091565b8051610b0381615091565b8051610b038161507b565b8035610b038161509a565b8051610b038161509a565b600060208284031215613aa357600080fd5b60006109d18484613487565b60008060408385031215613ac257600080fd5b6000613ace8585613487565b9250506020613adf85828601613487565b9150509250929050565b600080600060608486031215613afe57600080fd5b6000613b0a8686613487565b9350506020613b1b86828701613487565b9250506040613b2c86828701613a5a565b9150509250925092565b60008060408385031215613b4957600080fd5b6000613b558585613487565b9250506020613adf85828601613a5a565b60008060408385031215613b7957600080fd5b6000613b858585613487565b9250506020613adf858286016135ee565b600060208284031215613ba857600080fd5b813567ffffffffffffffff811115613bbf57600080fd5b6109d18482850161349d565b60008060408385031215613bde57600080fd5b6000613bea85856135e3565b9250506020613adf85828601613a86565b600060208284031215613c0d57600080fd5b60006109d184846135ee565b600080600060a08486031215613c2e57600080fd5b6000613c3a86866135ee565b9350506020613c4b86828701613487565b9250506040613b2c868287016139f9565b60006101208284031215613c6f57600080fd5b60006109d184846136b2565b600060208284031215613c8d57600080fd5b813567ffffffffffffffff811115613ca457600080fd5b6109d184828501613789565b60006101008284031215613cc357600080fd5b60006109d1848461391f565b60006101008284031215613ce257600080fd5b60006109d18484613938565b600060608284031215613d0057600080fd5b60006109d18484613a0b565b600060208284031215613d1e57600080fd5b60006109d18484613a5a565b600080600060608486031215613d3f57600080fd5b6000613d4b8686613a5a565b9350506020613d5c86828701613487565b9250506040613b2c86828701613487565b600060208284031215613d7f57600080fd5b60006109d18484613a70565b600060208284031215613d9d57600080fd5b60006109d18484613a7b565b60008060408385031215613dbc57600080fd5b6000613b858585613a7b565b60006107508383614831565b6000613de08383614a51565b505060200190565b613df181614fe0565b82525050565b613df181614f97565b6000613e0b82614f8a565b613e158185614f8e565b935083602082028501613e2785614f84565b8060005b85811015613e615784840389528151613e448582613dc8565b9450613e4f83614f84565b60209a909a0199925050600101613e2b565b5091979650505050505050565b6000613e7982614f8a565b613e838185614f8e565b9350613e8e83614f84565b8060005b83811015613ebc578151613ea68882613dd4565b9750613eb183614f84565b925050600101613e92565b509495945050505050565b613df181614fa2565b613df181614fa7565b613df1613ee582614fa7565b614fa7565b6000613ef582614f8a565b613eff8185614f8e565b9350613f0f818560208601615014565b613f1881615040565b9093019392505050565b613df181614fe7565b613df181614ff2565b613df181614ffd565b6000613f4a602e83614f8e565b7f43414e5f4e4f545f4f5045524154455f4c49515549444154494e475f434f4c4c81527f41544552414c5f4143434f554e54000000000000000000000000000000000000602082015260400192915050565b6000613fa9601883614f8e565b7f41554354494f4e5f414c52454144595f46494e49534845440000000000000000815260200192915050565b6000613fe2601583614f8e565b7f4f524445525f49535f4e4f545f46494c4c41424c450000000000000000000000815260200192915050565b600061401b600e83614f8e565b7f444953434f554e545f4552524f52000000000000000000000000000000000000815260200192915050565b6000614054601c83610875565b7f19457468657265756d205369676e6564204d6573736167653a0a3332000000008152601c0192915050565b600061408d601983614f8e565b7f544f4b454e5f5452414e534645525f46524f4d5f4552524f5200000000000000815260200192915050565b60006140c6600f83614f8e565b7f41535345545f4e4f545f45584953540000000000000000000000000000000000815260200192915050565b60006140ff601b83614f8e565b7f4f524445525f56455253494f4e5f4e4f545f535550504f525445440000000000815260200192915050565b6000614138600283610875565b600160f01b61190102815260020192915050565b6000614159602d83614f8e565b7f415353454d424c595f43414c4c5f4745545f424f52524f575f494e544552455381527f545f524154455f4641494c454400000000000000000000000000000000000000602082015260400192915050565b60006141b8602483614f8e565b7f415353454d424c595f43414c4c5f4745545f41535345545f50524943455f46418152600160e21b631253115102602082015260400192915050565b6000614201601683614f8e565b7f4d414b45525f4f524445525f4f5645525f4d4154434800000000000000000000815260200192915050565b600061423a601783614f8e565b7f494e56414c49445f4f524445525f5349474e4154555245000000000000000000815260200192915050565b6000614273601383614f8e565b7f494e56414c49445f5349474e5f4d4554484f4400000000000000000000000000815260200192915050565b60006142ac600e83614f8e565b7f494e56414c49445f545241444552000000000000000000000000000000000000815260200192915050565b60006142e5602483614f8e565b7f415353454d424c595f43414c4c5f4745545f484f545f42414c414e43455f46418152600160e21b631253115102602082015260400192915050565b600061432e600e83614f8e565b7f4449564944494e475f4552524f52000000000000000000000000000000000000815260200192915050565b6000614367601183614f8e565b7f41554354494f4e5f4e4f545f4558495354000000000000000000000000000000815260200192915050565b60006143a0600e83614f8e565b7f524f554e44494e475f4552524f52000000000000000000000000000000000000815260200192915050565b60006143d9601f83614f8e565b7f434f4c4c41544552414c5f4143434f554e545f4c4951554944415441424c4500815260200192915050565b6000614412601b83614f8e565b7f41535345545f4e4f545f42454c4f4e47535f544f5f4d41524b45540000000000815260200192915050565b600061444b601b83614f8e565b7f5452414e534645525f42414c414e43455f4e4f545f454e4f5547480000000000815260200192915050565b6000614484600983614f8e565b600160b91b6829aaa12fa2a92927a902815260200192915050565b60006144ac609f83610875565b7f4f726465722861646472657373207472616465722c616464726573732072656c81527f617965722c61646472657373206261736541737365742c61646472657373207160208201527f756f746541737365742c75696e7432353620626173654173736574416d6f756e60408201527f742c75696e743235362071756f74654173736574416d6f756e742c75696e743260608201527f353620676173546f6b656e416d6f756e742c62797465733332206461746129006080820152609f0192915050565b600061457d602083614f8e565b7f4d414b45525f4f4e4c595f4f524445525f43414e4e4f545f42455f54414b4552815260200192915050565b60006145b6600d83614f8e565b7f494e56414c49445f4d4154434800000000000000000000000000000000000000815260200192915050565b60006145ef601683614f8e565b7f54414b45525f4f524445525f4f5645525f4d4154434800000000000000000000815260200192915050565b6000614628601983610875565b7f454950373132446f6d61696e28737472696e67206e616d652900000000000000815260190192915050565b6000614661601083614f8e565b7f494e543235365f4144445f4552524f5200000000000000000000000000000000815260200192915050565b600061469a602083614f8e565b7f424f52524f575f494e5445524553545f524154455f4558434545445f33303025815260200192915050565b60006146d3600983614f8e565b600160b91b6820a2222fa2a92927a902815260200192915050565b60006146fb600e83614f8e565b7f494e56414c49445f53454e444552000000000000000000000000000000000000815260200192915050565b6000614734602383614f8e565b7f4d414b45525f4f524445525f43414e5f4e4f545f42455f4d41524b45545f4f528152600160e91b622222a902602082015260400192915050565b600061477c600c83614f8e565b7f494e56414c49445f534944450000000000000000000000000000000000000000815260200192915050565b60006147b5600983614f8e565b600160b91b6826aaa62fa2a92927a902815260200192915050565b60006147dd601083614f8e565b7f4d41524b45545f4e4f545f455849535400000000000000000000000000000000815260200192915050565b6000614816600983614f8e565b600160b91b6826a7a22fa2a92927a902815260200192915050565b805160009060408401906148458582613f2b565b50602083015184820360208601526115088282613eea565b8051606083019061486e8482613f22565b5060208201516148816020850182613f22565b5060408201516124d06040850182613f22565b80516101208301906148a68482613df7565b5060208201516148b96020850182614a48565b5060408201516148cc6040850182613df7565b5060608201516148df6060850182613df7565b5060808201516148f26080850182613ed0565b5060a082015161490560a0850182613ed0565b5060c082015161491860c0850182613ed0565b5060e082015161492b60e0850182613ed0565b506101008201516124d0610100850182613ec7565b805160808301906149518482613ec7565b5060208201516149646020850182613f34565b5060408201516149776040850182613ed0565b5060608201516124d06060850182613ed0565b805160e083019061499b8482613df7565b5060208201516149ae6020850182613df7565b5060408201516149c16040850182613ed0565b5060608201516149d46060850182613ed0565b5060808201516149e76080850182613ed0565b5060a08201516149fa60a0850182613ed0565b5060c08201516124d060c0850182613ec7565b80516060830190614a1e8482613df7565b506020820151614a316020850182613df7565b5060408201516124d06040850182613df7565b9052565b613df181614fbe565b613df181614fd1565b613df181614fda565b6000614a6f8285613ed9565b602082019150614a7f8284613ed9565b5060200192915050565b6000614a9482614047565b9150614aa08284613ed9565b50602001919050565b6000614ab48261412b565b9150614a6f8285613ed9565b6000610b038261449f565b6000610b038261461b565b60208101610b038284613df7565b60208101610b038284613de8565b602080825281016107508184613e6e565b60208101610b038284613ec7565b60408101614b1f8285613ec7565b6107506020830184614a51565b60808101614b3a8287613ed0565b614b476020830186614a5a565b614b546040830185613ed0565b6115086060830184613ed0565b60208082528101610b0381613f3d565b60208082528101610b0381613f9c565b60208082528101610b0381613fd5565b60208082528101610b038161400e565b60208082528101610b0381614080565b60208082528101610b03816140b9565b60208082528101610b03816140f2565b60208082528101610b038161414c565b60208082528101610b03816141ab565b60208082528101610b03816141f4565b60208082528101610b038161422d565b60208082528101610b0381614266565b60208082528101610b038161429f565b60208082528101610b03816142d8565b60208082528101610b0381614321565b60208082528101610b038161435a565b60208082528101610b0381614393565b60208082528101610b03816143cc565b60208082528101610b0381614405565b60208082528101610b038161443e565b60208082528101610b0381614477565b60208082528101610b0381614570565b60208082528101610b03816145a9565b60208082528101610b03816145e2565b60208082528101610b0381614654565b60208082528101610b038161468d565b60208082528101610b03816146c6565b60208082528101610b03816146ee565b60208082528101610b0381614727565b60208082528101610b038161476f565b60208082528101610b03816147a8565b60208082528101610b03816147d0565b60208082528101610b0381614809565b60608101610b03828461485d565b6101208101610b038284614894565b60808101610b038284614940565b60e08101610b03828461498a565b6101a08101614db9828e614a0d565b614dc6606083018d613df7565b614dd3608083018c613df7565b614de060a083018b613df7565b614ded60c083018a613ed0565b614dfa60e0830189613ed0565b614e08610100830188613ed0565b614e16610120830187613ed0565b614e24610140830186613ed0565b614e32610160830185613ed0565b614e40610180830184613ed0565b9c9b505050505050505050505050565b60608101614e5e8286614a44565b614e6b6020830185613df7565b6109d16040830184614a48565b60608101614e868286614a44565b8181036020830152614e988185613e00565b90506109d16040830184613ed0565b60408101614b1f8285614a44565b60608101614ec38286614a44565b614ed06020830185614a51565b6109d16040830184613ed0565b60208101610b038284613ed0565b60408101614ef98285613ed0565b6107506020830184613ed0565b60208101610b038284614a51565b60405181810167ffffffffffffffff81118282101715614f3357600080fd5b604052919050565b600067ffffffffffffffff821115614f5257600080fd5b5060209081020190565b600067ffffffffffffffff821115614f7357600080fd5b506020601f91909101601f19160190565b60200190565b5190565b90815260200190565b6000610b0382614fc5565b151590565b90565b806108758161504a565b8061087581615054565b61ffff1690565b6001600160a01b031690565b63ffffffff1690565b60ff1690565b6000610b03825b6000610b0382614f97565b6000610b0382614faa565b6000610b0382614fb4565b82818337506000910152565b60005b8381101561502f578181015183820152602001615017565b838111156124d05750506000910152565b601f01601f191690565b6007811061076257fe5b6002811061076257fe5b61506781614f97565b811461076257600080fd5b61506781614fa2565b61506781614fa7565b6007811061076257600080fd5b61506781614fbe565b61506781614fd156fea265627a7a72305820acc2d5ac17f3faca3c83d0061a71b7ceaca19c2db98f9ae56e450044823288376c6578706572696d656e74616cf50037",
  "source": "/*\n\n    Copyright 2019 The BitFinance Protocol\n\n    Licensed under the Apache License, Version 2.0 (the \"License\");\n    you may not use this file except in compliance with the License.\n    You may obtain a copy of the License at\n\n        http://www.apache.org/licenses/LICENSE-2.0\n\n    Unless required by applicable law or agreed to in writing, software\n    distributed under the License is distributed on an \"AS IS\" BASIS,\n    WITHOUT WARRANTIES OR CONDITIONS OF ANY KIND, either express or implied.\n    See the License for the specific language governing permissions and\n    limitations under the License.\n\n*/\n\npragma solidity ^0.5.8;\npragma experimental ABIEncoderV2;\n\nimport \"./GlobalStore.sol\";\n\nimport \"./exchange/Exchange.sol\";\nimport \"./exchange/Relayer.sol\";\n\nimport \"./funding/LendingPool.sol\";\nimport \"./funding/CollateralAccounts.sol\";\nimport \"./funding/BatchActions.sol\";\nimport \"./funding/Auctions.sol\";\n\nimport \"./lib/Transfer.sol\";\nimport \"./lib/Types.sol\";\nimport \"./lib/Consts.sol\";\nimport \"./lib/Requires.sol\";\nimport \"./lib/SafeMath.sol\";\n\nimport \"./interfaces/IStandardToken.sol\";\n\n/**\n * A collection of wrappers for all external methods in the protocol\n */\ncontract ExternalFunctions is GlobalStore {\n\n    ////////////////////////////\n    // Batch Actions Function //\n    ////////////////////////////\n\n    function batch(\n        BatchActions.Action[] memory actions\n    )\n        public\n        payable\n    {\n        BatchActions.batch(state, actions, msg.value);\n    }\n\n    ////////////////////////\n    // Signature Function //\n    ////////////////////////\n\n    function isValidSignature(\n        bytes32 hash,\n        address signerAddress,\n        Types.Signature calldata signature\n    )\n        external\n        pure\n        returns (bool isValid)\n    {\n        isValid = Signature.isValidSignature(hash, signerAddress, signature);\n    }\n\n    ///////////////////////\n    // Markets Functions //\n    ///////////////////////\n\n    function getAllMarketsCount()\n        external\n        view\n        returns (uint256 count)\n    {\n        count = state.marketsCount;\n    }\n\n    function getAsset(address assetAddress)\n        external\n        view returns (Types.Asset memory asset)\n    {\n        Requires.requireAssetExist(state, assetAddress);\n        asset = state.assets[assetAddress];\n    }\n\n    function getAssetOraclePrice(address assetAddress)\n        external\n        view\n        returns (uint256 price)\n    {\n        Requires.requireAssetExist(state, assetAddress);\n        price = AssemblyCall.getAssetPriceFromPriceOracle(\n            address(state.assets[assetAddress].priceOracle),\n            assetAddress\n        );\n    }\n\n    function getMarket(uint16 marketID)\n        external\n        view\n        returns (Types.Market memory market)\n    {\n        Requires.requireMarketIDExist(state, marketID);\n        market = state.markets[marketID];\n    }\n\n    //////////////////////////////////\n    // Collateral Account Functions //\n    //////////////////////////////////\n\n    function isAccountLiquidatable(\n        address user,\n        uint16 marketID\n    )\n        external\n        view\n        returns (bool isLiquidatable)\n    {\n        Requires.requireMarketIDExist(state, marketID);\n        isLiquidatable = CollateralAccounts.getDetails(state, user, marketID).liquidatable;\n    }\n\n    function getAccountDetails(\n        address user,\n        uint16 marketID\n    )\n        external\n        view\n        returns (Types.CollateralAccountDetails memory details)\n    {\n        Requires.requireMarketIDExist(state, marketID);\n        details = CollateralAccounts.getDetails(state, user, marketID);\n    }\n\n    function getAuctionsCount()\n        external\n        view\n        returns (uint32 count)\n    {\n        count = state.auction.auctionsCount;\n    }\n\n    function getCurrentAuctions()\n        external\n        view\n        returns (uint32[] memory)\n    {\n        return state.auction.currentAuctions;\n    }\n\n    function getAuctionDetails(uint32 auctionID)\n        external\n        view\n        returns (Types.AuctionDetails memory details)\n    {\n        Requires.requireAuctionExist(state, auctionID);\n        details = Auctions.getAuctionDetails(state, auctionID);\n    }\n\n    function fillAuctionWithAmount(\n        uint32 auctionID,\n        uint256 amount\n    )\n        external\n    {\n        Requires.requireAuctionExist(state, auctionID);\n        Requires.requireAuctionNotFinished(state, auctionID);\n        Auctions.fillAuctionWithAmount(state, auctionID, amount);\n    }\n\n    function liquidateAccount(\n        address user,\n        uint16 marketID\n    )\n        external\n        returns (bool hasAuction, uint32 auctionID)\n    {\n        Requires.requireMarketIDExist(state, marketID);\n        (hasAuction, auctionID) = Auctions.liquidate(state, user, marketID);\n    }\n\n    ///////////////////////////\n    // LendingPool Functions //\n    ///////////////////////////\n\n    function getPoolCashableAmount(address asset)\n        external\n        view\n        returns (uint256 cashableAmount)\n    {\n        if (asset == Consts.ETHEREUM_TOKEN_ADDRESS()) {\n            cashableAmount = address(this).balance - uint256(state.cash[asset]);\n        } else {\n            cashableAmount = IStandardToken(asset).balanceOf(address(this)) - uint256(state.cash[asset]);\n        }\n    }\n\n    function getIndex(address asset)\n        external\n        view\n        returns (uint256 supplyIndex, uint256 borrowIndex)\n    {\n        return LendingPool.getCurrentIndex(state, asset);\n    }\n\n    function getTotalBorrow(address asset)\n        external\n        view\n        returns (uint256 amount)\n    {\n        Requires.requireAssetExist(state, asset);\n        amount = LendingPool.getTotalBorrow(state, asset);\n    }\n\n    function getTotalSupply(address asset)\n        external\n        view\n        returns (uint256 amount)\n    {\n        Requires.requireAssetExist(state, asset);\n        amount = LendingPool.getTotalSupply(state, asset);\n    }\n\n    function getAmountBorrowed(\n        address asset,\n        address user,\n        uint16 marketID\n    )\n        external\n        view\n        returns (uint256 amount)\n    {\n        Requires.requireMarketIDExist(state, marketID);\n        Requires.requireMarketIDAndAssetMatch(state, marketID, asset);\n        amount = LendingPool.getAmountBorrowed(state, asset, user, marketID);\n    }\n\n    function getAmountSupplied(\n        address asset,\n        address user\n    )\n        external\n        view\n        returns (uint256 amount)\n    {\n        Requires.requireAssetExist(state, asset);\n        amount = LendingPool.getAmountSupplied(state, asset, user);\n    }\n\n    function getInterestRates(\n        address asset,\n        uint256 extraBorrowAmount\n    )\n        external\n        view\n        returns (uint256 borrowInterestRate, uint256 supplyInterestRate)\n    {\n        Requires.requireAssetExist(state, asset);\n        (borrowInterestRate, supplyInterestRate) = LendingPool.getInterestRates(state, asset, extraBorrowAmount);\n    }\n\n    function getInsuranceBalance(address asset)\n        external\n        view\n        returns (uint256 amount)\n    {\n        Requires.requireAssetExist(state, asset);\n        amount = state.pool.insuranceBalances[asset];\n    }\n\n    ///////////////////////\n    // Relayer Functions //\n    ///////////////////////\n\n    function approveDelegate(address delegate)\n        external\n    {\n        Relayer.approveDelegate(state, delegate);\n    }\n\n    function revokeDelegate(address delegate)\n        external\n    {\n        Relayer.revokeDelegate(state, delegate);\n    }\n\n    function joinIncentiveSystem()\n        external\n    {\n        Relayer.joinIncentiveSystem(state);\n    }\n\n    function exitIncentiveSystem()\n        external\n    {\n        Relayer.exitIncentiveSystem(state);\n    }\n\n    function canMatchOrdersFrom(address relayer)\n        external\n        view\n        returns (bool canMatch)\n    {\n        canMatch = Relayer.canMatchOrdersFrom(state, relayer);\n    }\n\n    function isParticipant(address relayer)\n        external\n        view\n        returns (bool result)\n    {\n        result = Relayer.isParticipant(state, relayer);\n    }\n\n    ////////////////////////\n    // Balances Functions //\n    ////////////////////////\n\n    function balanceOf(\n        address asset,\n        address user\n    )\n        external\n        view\n        returns (uint256 balance)\n    {\n        balance = Transfer.balanceOf(state,  BalancePath.getCommonPath(user), asset);\n    }\n\n    function marketBalanceOf(\n        uint16 marketID,\n        address asset,\n        address user\n    )\n        external\n        view\n        returns (uint256 balance)\n    {\n        Requires.requireMarketIDExist(state, marketID);\n        Requires.requireMarketIDAndAssetMatch(state, marketID, asset);\n        balance = Transfer.balanceOf(state,  BalancePath.getMarketPath(user, marketID), asset);\n    }\n\n    function getMarketTransferableAmount(\n        uint16 marketID,\n        address asset,\n        address user\n    )\n        external\n        view\n        returns (uint256 amount)\n    {\n        Requires.requireMarketIDExist(state, marketID);\n        Requires.requireMarketIDAndAssetMatch(state, marketID, asset);\n        amount = CollateralAccounts.getTransferableAmount(state, marketID, user, asset);\n    }\n\n    /** fallback function to allow deposit ether into this contract */\n    function ()\n        external\n        payable\n    {\n        // deposit ${msg.value} ether for ${msg.sender}\n        Transfer.deposit(\n            state,\n            Consts.ETHEREUM_TOKEN_ADDRESS(),\n            msg.value\n        );\n    }\n\n    ////////////////////////\n    // Exchange Functions //\n    ////////////////////////\n\n    function cancelOrder(\n        Types.Order calldata order\n    )\n        external\n    {\n        Exchange.cancelOrder(state, order);\n    }\n\n    function isOrderCancelled(\n        bytes32 orderHash\n    )\n        external\n        view\n        returns(bool isCancelled)\n    {\n        isCancelled = state.exchange.cancelled[orderHash];\n    }\n\n    function matchOrders(\n        Types.MatchParams memory params\n    )\n        public\n    {\n        Exchange.matchOrders(state, params);\n    }\n\n    function getDiscountedRate(\n        address user\n    )\n        external\n        view\n        returns (uint256 rate)\n    {\n        rate = Discount.getDiscountedRate(state, user);\n    }\n\n    function getHydroTokenAddress()\n        external\n        view\n        returns (address BitFinanceTokenAddress)\n    {\n        BitFinanceTokenAddress = state.exchange.hotTokenAddress;\n    }\n\n    function getOrderFilledAmount(\n        bytes32 orderHash\n    )\n        external\n        view\n        returns (uint256 amount)\n    {\n        amount = state.exchange.filled[orderHash];\n    }\n}",
  "sourcePath": "/Users/mikovainio/WebstormProjects/bitfinance-protocol/contracts/ExternalFunctions.sol",
  "compiler": {
    "name": "solc",
    "version": "0.5.8+commit.23d335f2.Emscripten.clang"
  },
  "schemaVersion": "3.0.11",
  "updatedAt": "2020-03-02T16:59:52.997Z",
  "devdoc": {
    "methods": {}
  },
  "userdoc": {
    "methods": {
      "approveDelegate(address)": {
        "notice": "////////////////////"
      },
      "balanceOf(address,address)": {
        "notice": "/////////////////////"
      },
      "batch((uint8,bytes)[])": {
        "notice": "/////////////////////////"
      },
      "cancelOrder((address,address,address,address,uint256,uint256,uint256,bytes32))": {
        "notice": "/////////////////////"
      },
      "getAllMarketsCount()": {
        "notice": "////////////////////"
      },
      "getPoolCashableAmount(address)": {
        "notice": "////////////////////////"
      },
      "isAccountLiquidatable(address,uint16)": {
        "notice": "///////////////////////////////"
      },
      "isValidSignature(bytes32,address,(bytes32,bytes32,bytes32))": {
        "notice": "/////////////////////"
      }
    },
    "notice": "A collection of wrappers for all external methods in the protocol"
  }
}