{
  "contractName": "FeedPriceOracle",
  "abi": [
    {
      "constant": true,
      "inputs": [],
      "name": "lastBlockNumber",
      "outputs": [
        {
          "name": "",
          "type": "uint256"
        }
      ],
      "payable": false,
      "stateMutability": "view",
      "type": "function"
    },
    {
      "constant": false,
      "inputs": [],
      "name": "renounceOwnership",
      "outputs": [],
      "payable": false,
      "stateMutability": "nonpayable",
      "type": "function"
    },
    {
      "constant": true,
      "inputs": [],
      "name": "maxChangeRate",
      "outputs": [
        {
          "name": "",
          "type": "uint256"
        }
      ],
      "payable": false,
      "stateMutability": "view",
      "type": "function"
    },
    {
      "constant": true,
      "inputs": [],
      "name": "owner",
      "outputs": [
        {
          "name": "",
          "type": "address"
        }
      ],
      "payable": false,
      "stateMutability": "view",
      "type": "function"
    },
    {
      "constant": true,
      "inputs": [],
      "name": "isOwner",
      "outputs": [
        {
          "name": "",
          "type": "bool"
        }
      ],
      "payable": false,
      "stateMutability": "view",
      "type": "function"
    },
    {
      "constant": true,
      "inputs": [],
      "name": "price",
      "outputs": [
        {
          "name": "",
          "type": "uint256"
        }
      ],
      "payable": false,
      "stateMutability": "view",
      "type": "function"
    },
    {
      "constant": true,
      "inputs": [
        {
          "name": "",
          "type": "uint256"
        }
      ],
      "name": "assets",
      "outputs": [
        {
          "name": "",
          "type": "address"
        }
      ],
      "payable": false,
      "stateMutability": "view",
      "type": "function"
    },
    {
      "constant": true,
      "inputs": [],
      "name": "maxPrice",
      "outputs": [
        {
          "name": "",
          "type": "uint256"
        }
      ],
      "payable": false,
      "stateMutability": "view",
      "type": "function"
    },
    {
      "constant": true,
      "inputs": [],
      "name": "minPrice",
      "outputs": [
        {
          "name": "",
          "type": "uint256"
        }
      ],
      "payable": false,
      "stateMutability": "view",
      "type": "function"
    },
    {
      "constant": false,
      "inputs": [
        {
          "name": "newOwner",
          "type": "address"
        }
      ],
      "name": "transferOwnership",
      "outputs": [],
      "payable": false,
      "stateMutability": "nonpayable",
      "type": "function"
    },
    {
      "constant": true,
      "inputs": [],
      "name": "validBlockNumber",
      "outputs": [
        {
          "name": "",
          "type": "uint256"
        }
      ],
      "payable": false,
      "stateMutability": "view",
      "type": "function"
    },
    {
      "inputs": [
        {
          "name": "_assets",
          "type": "address[]"
        },
        {
          "name": "_validBlockNumber",
          "type": "uint256"
        },
        {
          "name": "_maxChangeRate",
          "type": "uint256"
        },
        {
          "name": "_minPrice",
          "type": "uint256"
        },
        {
          "name": "_maxPrice",
          "type": "uint256"
        }
      ],
      "payable": false,
      "stateMutability": "nonpayable",
      "type": "constructor"
    },
    {
      "anonymous": false,
      "inputs": [
        {
          "indexed": false,
          "name": "price",
          "type": "uint256"
        },
        {
          "indexed": false,
          "name": "blockNumber",
          "type": "uint256"
        }
      ],
      "name": "PriceFeed",
      "type": "event"
    },
    {
      "anonymous": false,
      "inputs": [
        {
          "indexed": true,
          "name": "previousOwner",
          "type": "address"
        },
        {
          "indexed": true,
          "name": "newOwner",
          "type": "address"
        }
      ],
      "name": "OwnershipTransferred",
      "type": "event"
    },
    {
      "constant": false,
      "inputs": [
        {
          "name": "_validBlockNumber",
          "type": "uint256"
        },
        {
          "name": "_maxChangeRate",
          "type": "uint256"
        },
        {
          "name": "_minPrice",
          "type": "uint256"
        },
        {
          "name": "_maxPrice",
          "type": "uint256"
        }
      ],
      "name": "setParams",
      "outputs": [],
      "payable": false,
      "stateMutability": "nonpayable",
      "type": "function"
    },
    {
      "constant": false,
      "inputs": [
        {
          "name": "newPrice",
          "type": "uint256"
        }
      ],
      "name": "feed",
      "outputs": [],
      "payable": false,
      "stateMutability": "nonpayable",
      "type": "function"
    },
    {
      "constant": true,
      "inputs": [
        {
          "name": "_asset",
          "type": "address"
        }
      ],
      "name": "getPrice",
      "outputs": [
        {
          "name": "",
          "type": "uint256"
        }
      ],
      "payable": false,
      "stateMutability": "view",
      "type": "function"
    }
  ],
  "bytecode": "0x60806040523480156200001157600080fd5b50604051620010b2380380620010b28339810180604052620000379190810190620002a4565b600080546001600160a01b03191633178082556040516001600160a01b039190911691907f8be0079c531659141344cd1fd0a4f28419497f9722a3daafe3b4186f6b6457e0908290a38451620000959060019060208801906200016a565b50620000aa84848484620000b560201b60201c565b505050505062000483565b620000c56200015860201b60201c565b62000107576040517f08c379a0000000000000000000000000000000000000000000000000000000008152600401620000fe90620003e9565b60405180910390fd5b8082111562000144576040517f08c379a0000000000000000000000000000000000000000000000000000000008152600401620000fe90620003d7565b600493909355600591909155600655600755565b6000546001600160a01b031633145b90565b828054828255906000526020600020908101928215620001c2579160200282015b82811115620001c257825182546001600160a01b0319166001600160a01b039091161782556020909201916001909101906200018b565b50620001d0929150620001d4565b5090565b6200016791905b80821115620001d05780546001600160a01b0319168155600101620001db565b805162000208816200045e565b92915050565b600082601f8301126200022057600080fd5b815162000237620002318262000422565b620003fb565b915081818352602084019350602081019050838560208402820111156200025d57600080fd5b60005b838110156200028d5781620002768882620001fb565b845250602092830192919091019060010162000260565b5050505092915050565b8051620002088162000478565b600080600080600060a08688031215620002bd57600080fd5b85516001600160401b03811115620002d457600080fd5b620002e2888289016200020e565b9550506020620002f58882890162000297565b9450506040620003088882890162000297565b93505060606200031b8882890162000297565b92505060806200032e8882890162000297565b9150509295509295909350565b60006200034a602b8362000443565b7f4d494e5f50524943455f4d5553545f4c4553535f4f525f455155414c5f54484181527f4e5f4d41585f5052494345000000000000000000000000000000000000000000602082015260400192915050565b6000620003ab60098362000443565b7f4e4f545f4f574e45520000000000000000000000000000000000000000000000815260200192915050565b6020808252810162000208816200033b565b6020808252810162000208816200039c565b6040518181016001600160401b03811182821017156200041a57600080fd5b604052919050565b60006001600160401b038211156200043957600080fd5b5060209081020190565b90815260200190565b60006001600160a01b03821662000208565b62000469816200044c565b81146200047557600080fd5b50565b620004698162000167565b610c1f80620004936000396000f3fe608060405234801561001057600080fd5b50600436106100ea5760003560e01c8063a035b1fe1161008c578063e45be8eb11610066578063e45be8eb14610192578063f2fde38b1461019a578063f59dfdfb146101ad578063fa259444146101c0576100ea565b8063a035b1fe1461016f578063cf35bdd014610177578063e38d6b5c1461018a576100ea565b80637ece45e8116100c85780637ece45e81461012a57806385faf6241461013d5780638da5cb5b146101455780638f32d59b1461015a576100ea565b80632552317c146100ef57806341976e091461010d578063715018a614610120575b600080fd5b6100f76101c8565b6040516101049190610b74565b60405180910390f35b6100f761011b3660046106f9565b6101ce565b610128610243565b005b61012861013836600461073d565b6102b4565b6100f7610312565b61014d610318565b6040516101049190610a88565b610162610327565b6040516101049190610a96565b6100f7610338565b61014d61018536600461071f565b61033e565b6100f7610365565b6100f761036b565b6101286101a83660046106f9565b610371565b6101286101bb36600461071f565b61041c565b6100f76105a3565b60035481565b60006101d9826105a9565b61020157604051600160e51b62461bcd0281526004016101f890610ac4565b60405180910390fd5b60045460035461021890439063ffffffff61060416565b111561023957604051600160e51b62461bcd0281526004016101f890610af4565b506002545b919050565b61024b610327565b61026a57604051600160e51b62461bcd0281526004016101f890610b34565b600080546040516001600160a01b03909116907f8be0079c531659141344cd1fd0a4f28419497f9722a3daafe3b4186f6b6457e0908390a3600080546001600160a01b0319169055565b6102bc610327565b6102db57604051600160e51b62461bcd0281526004016101f890610b34565b808211156102fe57604051600160e51b62461bcd0281526004016101f890610ab4565b600493909355600591909155600655600755565b60055481565b6000546001600160a01b031690565b6000546001600160a01b0316331490565b60025481565b6001818154811061034b57fe5b6000918252602090912001546001600160a01b0316905081565b60075481565b60065481565b610379610327565b61039857604051600160e51b62461bcd0281526004016101f890610b34565b6001600160a01b0381166103c157604051600160e51b62461bcd0281526004016101f890610b24565b600080546040516001600160a01b03808516939216917f8be0079c531659141344cd1fd0a4f28419497f9722a3daafe3b4186f6b6457e091a3600080546001600160a01b0319166001600160a01b0392909216919091179055565b610424610327565b61044357604051600160e51b62461bcd0281526004016101f890610b34565b6000811161046657604051600160e51b62461bcd0281526004016101f890610b54565b436003541061048a57604051600160e51b62461bcd0281526004016101f890610b04565b6007548111156104af57604051600160e51b62461bcd0281526004016101f890610b64565b6006548110156104d457604051600160e51b62461bcd0281526004016101f890610aa4565b6002541561055c5760006104ea82600254610634565b90506104f4610665565b81111561051a57610513610506610665565b829063ffffffff61060416565b9050610535565b61053281610526610665565b9063ffffffff61060416565b90505b60055481111561055a57604051600160e51b62461bcd0281526004016101f890610ae4565b505b60028190554360038190556040517f4771fd008104ebb997a015445d17943eac52c60cdc6df59839c5a3d0c3e40c559161059891849190610b82565b60405180910390a150565b60045481565b6000805b6001548110156105fb57826001600160a01b0316600182815481106105ce57fe5b6000918252602090912001546001600160a01b031614156105f357600191505061023e565b6001016105ad565b50600092915050565b60008282111561062957604051600160e51b62461bcd0281526004016101f890610b14565b508082035b92915050565b600061065e8261065285670de0b6b3a764000063ffffffff61067116565b9063ffffffff6106ae16565b9392505050565b670de0b6b3a764000090565b6000826106805750600061062e565b8282028284828161068d57fe5b041461065e57604051600160e51b62461bcd0281526004016101f890610b44565b60008082116106d257604051600160e51b62461bcd0281526004016101f890610ad4565b8183816106db57fe5b049392505050565b803561062e81610bc5565b803561062e81610bdc565b60006020828403121561070b57600080fd5b600061071784846106e3565b949350505050565b60006020828403121561073157600080fd5b600061071784846106ee565b6000806000806080858703121561075357600080fd5b600061075f87876106ee565b9450506020610770878288016106ee565b9350506040610781878288016106ee565b9250506060610792878288016106ee565b91505092959194509250565b6107a781610ba6565b82525050565b6107a781610bb1565b60006107c3601683610b9d565b7f50524943455f4558434545445f4d494e5f4c494d495400000000000000000000815260200192915050565b60006107fc602b83610b9d565b7f4d494e5f50524943455f4d5553545f4c4553535f4f525f455155414c5f5448418152600160a81b6a4e5f4d41585f505249434502602082015260400192915050565b600061084c600f83610b9d565b7f41535345545f4e4f545f4d415443480000000000000000000000000000000000815260200192915050565b6000610885600e83610b9d565b7f4449564944494e475f4552524f52000000000000000000000000000000000000815260200192915050565b60006108be601883610b9d565b7f50524943455f4348414e47455f524154455f4558434545440000000000000000815260200192915050565b60006108f7600d83610b9d565b7f50524943455f4558504952454400000000000000000000000000000000000000815260200192915050565b6000610930601183610b9d565b7f424c4f434b4e554d4245525f57524f4e47000000000000000000000000000000815260200192915050565b6000610969600983610b9d565b600160b91b6829aaa12fa2a92927a902815260200192915050565b6000610991600d83610b9d565b7f494e56414c49445f4f574e455200000000000000000000000000000000000000815260200192915050565b60006109ca600983610b9d565b600160b91b682727aa2fa7aba722a902815260200192915050565b60006109f2600983610b9d565b600160b91b6826aaa62fa2a92927a902815260200192915050565b6000610a1a601983610b9d565b7f50524943455f4d5553545f475245415445525f5448414e5f3000000000000000815260200192915050565b6000610a53601683610b9d565b7f50524943455f4558434545445f4d41585f4c494d495400000000000000000000815260200192915050565b6107a781610bc2565b6020810161062e828461079e565b6020810161062e82846107ad565b6020808252810161062e816107b6565b6020808252810161062e816107ef565b6020808252810161062e8161083f565b6020808252810161062e81610878565b6020808252810161062e816108b1565b6020808252810161062e816108ea565b6020808252810161062e81610923565b6020808252810161062e8161095c565b6020808252810161062e81610984565b6020808252810161062e816109bd565b6020808252810161062e816109e5565b6020808252810161062e81610a0d565b6020808252810161062e81610a46565b6020810161062e8284610a7f565b60408101610b908285610a7f565b61065e6020830184610a7f565b90815260200190565b600061062e82610bb6565b151590565b6001600160a01b031690565b90565b610bce81610ba6565b8114610bd957600080fd5b50565b610bce81610bc256fea265627a7a7230582077ce73cd59584082dc49a2bffab68d4e02c0da10869299f4b5b84872f7203c2f6c6578706572696d656e74616cf50037",
  "source": "/*\n\n    Copyright 2019 The BitFinance Protocol\n\n    Licensed under the Apache License, Version 2.0 (the \"License\");\n    you may not use this file except in compliance with the License.\n    You may obtain a copy of the License at\n\n        http://www.apache.org/licenses/LICENSE-2.0\n\n    Unless required by applicable law or agreed to in writing, software\n    distributed under the License is distributed on an \"AS IS\" BASIS,\n    WITHOUT WARRANTIES OR CONDITIONS OF ANY KIND, either express or implied.\n    See the License for the specific language governing permissions and\n    limitations under the License.\n\n*/\n\npragma solidity ^0.5.8;\npragma experimental ABIEncoderV2;\n\nimport \"../lib/Ownable.sol\";\nimport \"../lib/SafeMath.sol\";\nimport \"../lib/Decimal.sol\";\n\ncontract FeedPriceOracle is Ownable {\n    using SafeMath for uint256;\n\n    address[] public assets;\n    uint256 public price;\n    uint256 public lastBlockNumber;\n    uint256 public validBlockNumber;\n    uint256 public maxChangeRate;\n    uint256 public minPrice;\n    uint256 public maxPrice;\n\n    event PriceFeed(\n        uint256 price,\n        uint256 blockNumber\n    );\n\n    constructor (\n        address[] memory _assets,\n        uint256 _validBlockNumber,\n        uint256 _maxChangeRate,\n        uint256 _minPrice,\n        uint256 _maxPrice\n    )\n        public\n    {\n        assets = _assets;\n\n        setParams(\n            _validBlockNumber,\n            _maxChangeRate,\n            _minPrice,\n            _maxPrice\n        );\n    }\n\n    function setParams(\n        uint256 _validBlockNumber,\n        uint256 _maxChangeRate,\n        uint256 _minPrice,\n        uint256 _maxPrice\n    )\n        public\n        onlyOwner\n    {\n        require(_minPrice <= _maxPrice, \"MIN_PRICE_MUST_LESS_OR_EQUAL_THAN_MAX_PRICE\");\n        validBlockNumber = _validBlockNumber;\n        maxChangeRate = _maxChangeRate;\n        minPrice = _minPrice;\n        maxPrice = _maxPrice;\n    }\n\n    function feed(\n        uint256 newPrice\n    )\n        external\n        onlyOwner\n    {\n        require(newPrice > 0, \"PRICE_MUST_GREATER_THAN_0\");\n        require(lastBlockNumber < block.number, \"BLOCKNUMBER_WRONG\");\n        require(newPrice <= maxPrice, \"PRICE_EXCEED_MAX_LIMIT\");\n        require(newPrice >= minPrice, \"PRICE_EXCEED_MIN_LIMIT\");\n\n        if (price > 0) {\n            uint256 changeRate = Decimal.divFloor(newPrice, price);\n            if (changeRate > Decimal.one()) {\n                changeRate = changeRate.sub(Decimal.one());\n            } else {\n                changeRate = Decimal.one().sub(changeRate);\n            }\n            require(changeRate <= maxChangeRate, \"PRICE_CHANGE_RATE_EXCEED\");\n        }\n\n        price = newPrice;\n        lastBlockNumber = block.number;\n\n        emit PriceFeed(price, lastBlockNumber);\n    }\n\n    function isValidAsset(\n        address asset\n    )\n        private\n        view\n        returns (bool)\n    {\n        for (uint256 i = 0; i < assets.length; i++ ) {\n            if (assets[i] == asset) {\n                return true;\n            }\n        }\n        return false;\n    }\n\n    function getPrice(\n        address _asset\n    )\n        external\n        view\n        returns (uint256)\n    {\n        require(isValidAsset(_asset), \"ASSET_NOT_MATCH\");\n        require(block.number.sub(lastBlockNumber) <= validBlockNumber, \"PRICE_EXPIRED\");\n        return price;\n    }\n\n}",
  "sourcePath": "/Users/mikovainio/WebstormProjects/bitfinance-protocol/contracts/oracle/FeedPriceOracle.sol",
  "compiler": {
    "name": "solc",
    "version": "0.5.8+commit.23d335f2.Emscripten.clang"
  },
  "schemaVersion": "3.0.11",
  "updatedAt": "2020-03-02T16:59:53.633Z",
  "devdoc": {
    "methods": {
      "isOwner()": {
        "return": "true if `msg.sender` is the owner of the contract. "
      },
      "owner()": {
        "return": "the address of the owner. "
      },
      "renounceOwnership()": {
        "details": "Allows the current owner to relinquish control of the contract."
      },
      "transferOwnership(address)": {
        "details": "Allows the current owner to transfer control of the contract to a newOwner.",
        "params": {
          "newOwner": "The address to transfer ownership to."
        }
      }
    }
  },
  "userdoc": {
    "methods": {
      "renounceOwnership()": {
        "notice": "Renouncing to ownership will leave the contract without an owner. It will not be possible to call the functions with the `onlyOwner` modifier anymore."
      }
    }
  }
}