{
  "contractName": "LendingPoolToken",
  "abi": [
    {
      "constant": true,
      "inputs": [],
      "name": "name",
      "outputs": [
        {
          "name": "",
          "type": "string"
        }
      ],
      "payable": false,
      "stateMutability": "view",
      "type": "function"
    },
    {
      "constant": false,
      "inputs": [
        {
          "name": "spender",
          "type": "address"
        },
        {
          "name": "amount",
          "type": "uint256"
        }
      ],
      "name": "approve",
      "outputs": [
        {
          "name": "",
          "type": "bool"
        }
      ],
      "payable": false,
      "stateMutability": "nonpayable",
      "type": "function"
    },
    {
      "constant": true,
      "inputs": [],
      "name": "totalSupply",
      "outputs": [
        {
          "name": "",
          "type": "uint256"
        }
      ],
      "payable": false,
      "stateMutability": "view",
      "type": "function"
    },
    {
      "constant": false,
      "inputs": [
        {
          "name": "from",
          "type": "address"
        },
        {
          "name": "to",
          "type": "address"
        },
        {
          "name": "amount",
          "type": "uint256"
        }
      ],
      "name": "transferFrom",
      "outputs": [
        {
          "name": "",
          "type": "bool"
        }
      ],
      "payable": false,
      "stateMutability": "nonpayable",
      "type": "function"
    },
    {
      "constant": true,
      "inputs": [],
      "name": "decimals",
      "outputs": [
        {
          "name": "",
          "type": "uint8"
        }
      ],
      "payable": false,
      "stateMutability": "view",
      "type": "function"
    },
    {
      "constant": true,
      "inputs": [
        {
          "name": "owner",
          "type": "address"
        }
      ],
      "name": "balanceOf",
      "outputs": [
        {
          "name": "balance",
          "type": "uint256"
        }
      ],
      "payable": false,
      "stateMutability": "view",
      "type": "function"
    },
    {
      "constant": false,
      "inputs": [],
      "name": "renounceOwnership",
      "outputs": [],
      "payable": false,
      "stateMutability": "nonpayable",
      "type": "function"
    },
    {
      "constant": true,
      "inputs": [],
      "name": "owner",
      "outputs": [
        {
          "name": "",
          "type": "address"
        }
      ],
      "payable": false,
      "stateMutability": "view",
      "type": "function"
    },
    {
      "constant": true,
      "inputs": [],
      "name": "isOwner",
      "outputs": [
        {
          "name": "",
          "type": "bool"
        }
      ],
      "payable": false,
      "stateMutability": "view",
      "type": "function"
    },
    {
      "constant": true,
      "inputs": [],
      "name": "symbol",
      "outputs": [
        {
          "name": "",
          "type": "string"
        }
      ],
      "payable": false,
      "stateMutability": "view",
      "type": "function"
    },
    {
      "constant": false,
      "inputs": [
        {
          "name": "to",
          "type": "address"
        },
        {
          "name": "amount",
          "type": "uint256"
        }
      ],
      "name": "transfer",
      "outputs": [
        {
          "name": "",
          "type": "bool"
        }
      ],
      "payable": false,
      "stateMutability": "nonpayable",
      "type": "function"
    },
    {
      "constant": true,
      "inputs": [
        {
          "name": "owner",
          "type": "address"
        },
        {
          "name": "spender",
          "type": "address"
        }
      ],
      "name": "allowance",
      "outputs": [
        {
          "name": "",
          "type": "uint256"
        }
      ],
      "payable": false,
      "stateMutability": "view",
      "type": "function"
    },
    {
      "constant": false,
      "inputs": [
        {
          "name": "newOwner",
          "type": "address"
        }
      ],
      "name": "transferOwnership",
      "outputs": [],
      "payable": false,
      "stateMutability": "nonpayable",
      "type": "function"
    },
    {
      "inputs": [
        {
          "name": "tokenName",
          "type": "string"
        },
        {
          "name": "tokenSymbol",
          "type": "string"
        },
        {
          "name": "tokenDecimals",
          "type": "uint8"
        }
      ],
      "payable": false,
      "stateMutability": "nonpayable",
      "type": "constructor"
    },
    {
      "anonymous": false,
      "inputs": [
        {
          "indexed": true,
          "name": "user",
          "type": "address"
        },
        {
          "indexed": false,
          "name": "value",
          "type": "uint256"
        }
      ],
      "name": "Mint",
      "type": "event"
    },
    {
      "anonymous": false,
      "inputs": [
        {
          "indexed": true,
          "name": "user",
          "type": "address"
        },
        {
          "indexed": false,
          "name": "value",
          "type": "uint256"
        }
      ],
      "name": "Burn",
      "type": "event"
    },
    {
      "anonymous": false,
      "inputs": [
        {
          "indexed": true,
          "name": "previousOwner",
          "type": "address"
        },
        {
          "indexed": true,
          "name": "newOwner",
          "type": "address"
        }
      ],
      "name": "OwnershipTransferred",
      "type": "event"
    },
    {
      "anonymous": false,
      "inputs": [
        {
          "indexed": true,
          "name": "from",
          "type": "address"
        },
        {
          "indexed": true,
          "name": "to",
          "type": "address"
        },
        {
          "indexed": false,
          "name": "amount",
          "type": "uint256"
        }
      ],
      "name": "Transfer",
      "type": "event"
    },
    {
      "anonymous": false,
      "inputs": [
        {
          "indexed": true,
          "name": "owner",
          "type": "address"
        },
        {
          "indexed": true,
          "name": "spender",
          "type": "address"
        },
        {
          "indexed": false,
          "name": "amount",
          "type": "uint256"
        }
      ],
      "name": "Approval",
      "type": "event"
    },
    {
      "constant": false,
      "inputs": [
        {
          "name": "user",
          "type": "address"
        },
        {
          "name": "value",
          "type": "uint256"
        }
      ],
      "name": "mint",
      "outputs": [],
      "payable": false,
      "stateMutability": "nonpayable",
      "type": "function"
    },
    {
      "constant": false,
      "inputs": [
        {
          "name": "user",
          "type": "address"
        },
        {
          "name": "value",
          "type": "uint256"
        }
      ],
      "name": "burn",
      "outputs": [],
      "payable": false,
      "stateMutability": "nonpayable",
      "type": "function"
    }
  ],
  "bytecode": "0x60806040523480156200001157600080fd5b50604051620010de380380620010de8339810180604052620000379190810190620001e0565b600280546001600160a01b0319163317908190556040516001600160a01b0391909116906000907f8be0079c531659141344cd1fd0a4f28419497f9722a3daafe3b4186f6b6457e0908290a3825162000098906003906020860190620000cc565b508151620000ae906004906020850190620000cc565b506005805460ff191660ff9290921691909117905550620003059050565b828054600181600116156101000203166002900490600052602060002090601f016020900481019282601f106200010f57805160ff19168380011785556200013f565b828001600101855582156200013f579182015b828111156200013f57825182559160200191906001019062000122565b506200014d92915062000151565b5090565b6200016e91905b808211156200014d576000815560010162000158565b90565b600082601f8301126200018357600080fd5b81516200019a62000194826200028a565b62000263565b91508082526020830160208301858383011115620001b757600080fd5b620001c4838284620002b8565b50505092915050565b8051620001da81620002eb565b92915050565b600080600060608486031215620001f657600080fd5b83516001600160401b038111156200020d57600080fd5b6200021b8682870162000171565b93505060208401516001600160401b038111156200023857600080fd5b620002468682870162000171565b92505060406200025986828701620001cd565b9150509250925092565b6040518181016001600160401b03811182821017156200028257600080fd5b604052919050565b60006001600160401b03821115620002a157600080fd5b506020601f91909101601f19160190565b60ff1690565b60005b83811015620002d5578181015183820152602001620002bb565b83811115620002e5576000848401525b50505050565b620002f681620002b2565b81146200030257600080fd5b50565b610dc980620003156000396000f3fe608060405234801561001057600080fd5b50600436106100f55760003560e01c8063715018a6116100975780639dc29fac116100665780639dc29fac146101ca578063a9059cbb146101dd578063dd62ed3e146101f0578063f2fde38b14610203576100f5565b8063715018a61461019d5780638da5cb5b146101a55780638f32d59b146101ba57806395d89b41146101c2576100f5565b806323b872dd116100d357806323b872dd1461014d578063313ce5671461016057806340c10f191461017557806370a082311461018a576100f5565b806306fdde03146100fa578063095ea7b31461011857806318160ddd14610138575b600080fd5b610102610216565b60405161010f9190610c66565b60405180910390f35b61012b610126366004610a5c565b6102a4565b60405161010f9190610c58565b61014061030f565b60405161010f9190610ce7565b61012b61015b366004610a0f565b610315565b6101686104da565b60405161010f9190610cf5565b610188610183366004610a5c565b6104e3565b005b6101406101983660046109af565b6105a9565b6101886105c4565b6101ad610635565b60405161010f9190610c4a565b61012b610644565b610102610655565b6101886101d8366004610a5c565b6106b0565b61012b6101eb366004610a5c565b61076a565b6101406101fe3660046109d5565b610868565b6101886102113660046109af565b610893565b6003805460408051602060026001851615610100026000190190941693909304601f8101849004840282018401909252818152929183018282801561029c5780601f106102715761010080835404028352916020019161029c565b820191906000526020600020905b81548152906001019060200180831161027f57829003601f168201915b505050505081565b3360008181526001602090815260408083206001600160a01b038716808552925280832085905551919290917f8c5be1e5ebec7d5bd14f71427d1e84f3dd0314c0f7b2291e5b200ac8c7c3b925906102fd908690610ce7565b60405180910390a35060015b92915050565b60065481565b60006001600160a01b03831661034957604051600160e51b62461bcd02815260040161034090610cd7565b60405180910390fd5b6001600160a01b03841660009081526020819052604090205482111561038457604051600160e51b62461bcd02815260040161034090610ca7565b6001600160a01b03841660009081526001602090815260408083203384529091529020548211156103ca57604051600160e51b62461bcd02815260040161034090610c77565b6001600160a01b0384166000908152602081905260409020546103f3908363ffffffff61093f16565b6001600160a01b038086166000908152602081905260408082209390935590851681522054610428908363ffffffff61096a16565b6001600160a01b0380851660009081526020818152604080832094909455918716815260018252828120338252909152205461046a908363ffffffff61093f16565b6001600160a01b0380861660008181526001602090815260408083203384529091529081902093909355915190851691907fddf252ad1be2c89b69c2b068fc378daa952ba7f163c4a11628f55a4df523b3ef906104c8908690610ce7565b60405180910390a35060019392505050565b60055460ff1681565b6104eb610644565b61050a57604051600160e51b62461bcd02815260040161034090610cb7565b6001600160a01b038216600090815260208190526040902054610533908263ffffffff61096a16565b6001600160a01b03831660009081526020819052604090205560065461055f908263ffffffff61096a16565b6006556040516001600160a01b038316907f0f6798a560793a54c3bcfe86a93cde1e73087d944c0ea20544137d41213968859061059d908490610ce7565b60405180910390a25050565b6001600160a01b031660009081526020819052604090205490565b6105cc610644565b6105eb57604051600160e51b62461bcd02815260040161034090610cb7565b6002546040516000916001600160a01b0316907f8be0079c531659141344cd1fd0a4f28419497f9722a3daafe3b4186f6b6457e0908390a3600280546001600160a01b0319169055565b6002546001600160a01b031690565b6002546001600160a01b0316331490565b6004805460408051602060026001851615610100026000190190941693909304601f8101849004840282018401909252818152929183018282801561029c5780601f106102715761010080835404028352916020019161029c565b6106b8610644565b6106d757604051600160e51b62461bcd02815260040161034090610cb7565b6001600160a01b038216600090815260208190526040902054610700908263ffffffff61093f16565b6001600160a01b03831660009081526020819052604090205560065461072c908263ffffffff61093f16565b6006556040516001600160a01b038316907fcc16f5dbb4873280815c1ee09dbd06736cffcc184412cf7a71a0fdb75d397ca59061059d908490610ce7565b60006001600160a01b03831661079557604051600160e51b62461bcd02815260040161034090610cd7565b336000908152602081905260409020548211156107c757604051600160e51b62461bcd02815260040161034090610ca7565b336000908152602081905260409020546107e7908363ffffffff61093f16565b33600090815260208190526040808220929092556001600160a01b03851681522054610819908363ffffffff61096a16565b6001600160a01b0384166000818152602081905260409081902092909255905133907fddf252ad1be2c89b69c2b068fc378daa952ba7f163c4a11628f55a4df523b3ef906102fd908690610ce7565b6001600160a01b03918216600090815260016020908152604080832093909416825291909152205490565b61089b610644565b6108ba57604051600160e51b62461bcd02815260040161034090610cb7565b6001600160a01b0381166108e357604051600160e51b62461bcd02815260040161034090610c97565b6002546040516001600160a01b038084169216907f8be0079c531659141344cd1fd0a4f28419497f9722a3daafe3b4186f6b6457e090600090a3600280546001600160a01b0319166001600160a01b0392909216919091179055565b60008282111561096457604051600160e51b62461bcd02815260040161034090610c87565b50900390565b60008282018381101561099257604051600160e51b62461bcd02815260040161034090610cc7565b9392505050565b803561030981610d6f565b803561030981610d86565b6000602082840312156109c157600080fd5b60006109cd8484610999565b949350505050565b600080604083850312156109e857600080fd5b60006109f48585610999565b9250506020610a0585828601610999565b9150509250929050565b600080600060608486031215610a2457600080fd5b6000610a308686610999565b9350506020610a4186828701610999565b9250506040610a52868287016109a4565b9150509250925092565b60008060408385031215610a6f57600080fd5b6000610a7b8585610999565b9250506020610a05858286016109a4565b610a9581610d10565b82525050565b610a9581610d1b565b6000610aaf82610d03565b610ab98185610d07565b9350610ac9818560208601610d35565b610ad281610d65565b9093019392505050565b6000610ae9601483610d07565b7f414c4c4f57414e43455f4e4f545f454e4f554748000000000000000000000000815260200192915050565b6000610b22600983610d07565b600160b91b6829aaa12fa2a92927a902815260200192915050565b6000610b4a600d83610d07565b7f494e56414c49445f4f574e455200000000000000000000000000000000000000815260200192915050565b6000610b83601283610d07565b7f42414c414e43455f4e4f545f454e4f5547480000000000000000000000000000815260200192915050565b6000610bbc600983610d07565b600160b91b682727aa2fa7aba722a902815260200192915050565b6000610be4600983610d07565b600160b91b6820a2222fa2a92927a902815260200192915050565b6000610c0c601383610d07565b7f544f5f414444524553535f49535f454d50545900000000000000000000000000815260200192915050565b610a9581610d2c565b610a9581610d2f565b602081016103098284610a8c565b602081016103098284610a9b565b602080825281016109928184610aa4565b6020808252810161030981610adc565b6020808252810161030981610b15565b6020808252810161030981610b3d565b6020808252810161030981610b76565b6020808252810161030981610baf565b6020808252810161030981610bd7565b6020808252810161030981610bff565b602081016103098284610c38565b602081016103098284610c41565b5190565b90815260200190565b600061030982610d20565b151590565b6001600160a01b031690565b90565b60ff1690565b60005b83811015610d50578181015183820152602001610d38565b83811115610d5f576000848401525b50505050565b601f01601f191690565b610d7881610d10565b8114610d8357600080fd5b50565b610d7881610d2c56fea265627a7a72305820c8480e508e379f5f098f63bd7213b653412b10a5f3a0a8025cf0438eca58b31b6c6578706572696d656e74616cf50037",
  "source": "/*\n\n    Copyright 2019 The BitFinance Protocol\n\n    Licensed under the Apache License, Version 2.0 (the \"License\");\n    you may not use this file except in compliance with the License.\n    You may obtain a copy of the License at\n\n        http://www.apache.org/licenses/LICENSE-2.0\n\n    Unless required by applicable law or agreed to in writing, software\n    distributed under the License is distributed on an \"AS IS\" BASIS,\n    WITHOUT WARRANTIES OR CONDITIONS OF ANY KIND, either express or implied.\n    See the License for the specific language governing permissions and\n    limitations under the License.\n\n*/\n\npragma solidity ^0.5.8;\npragma experimental ABIEncoderV2;\n\nimport \"../lib/Ownable.sol\";\nimport \"../helper/StandardToken.sol\";\n\n/**\n * A new kind of lending pool token will be created when a new asset is registered.\n * Normalized amounts of the asset in lending pool are stored in the corresponding\n * pool token contract as balance.\n */\ncontract LendingPoolToken is StandardToken, Ownable {\n    string public name;\n    string public symbol;\n    uint8 public decimals;\n    uint256 public totalSupply;\n\n    event Mint(address indexed user, uint256 value);\n    event Burn(address indexed user, uint256 value);\n\n    constructor (\n        string memory tokenName,\n        string memory tokenSymbol,\n        uint8 tokenDecimals\n    )\n        public\n    {\n        name = tokenName;\n        symbol = tokenSymbol;\n        decimals = tokenDecimals;\n    }\n\n    function mint(\n        address user,\n        uint256 value\n    )\n        external\n        onlyOwner\n    {\n        balances[user] = balances[user].add(value);\n        totalSupply = totalSupply.add(value);\n        emit Mint(user, value);\n    }\n\n    function burn(\n        address user,\n        uint256 value\n    )\n        external\n        onlyOwner\n    {\n        balances[user] = balances[user].sub(value);\n        totalSupply = totalSupply.sub(value);\n        emit Burn(user, value);\n    }\n\n}",
  "sourcePath": "/Users/mikovainio/WebstormProjects/bitfinance-protocol/contracts/funding/LendingPoolToken.sol",
  "compiler": {
    "name": "solc",
    "version": "0.5.8+commit.23d335f2.Emscripten.clang"
  },
  "schemaVersion": "3.0.11",
  "updatedAt": "2020-03-02T16:59:53.291Z",
  "devdoc": {
    "methods": {
      "allowance(address,address)": {
        "details": "Function to check the amount of tokens that an owner allowed to a spender.",
        "params": {
          "owner": "address The address which owns the funds.",
          "spender": "address The address which will spend the funds."
        },
        "return": "A uint256 specifying the amount of tokens still available for the spender."
      },
      "approve(address,uint256)": {
        "details": "Approve the passed address to spend the specified amount of tokens on behalf of msg.sender.",
        "params": {
          "amount": "The amount of tokens to be spent.",
          "spender": "The address which will spend the funds."
        }
      },
      "balanceOf(address)": {
        "details": "Gets the balance of the specified address.",
        "params": {
          "owner": "The address to query the the balance of."
        },
        "return": "An uint256 representing the amount owned by the passed address."
      },
      "isOwner()": {
        "return": "true if `msg.sender` is the owner of the contract. "
      },
      "owner()": {
        "return": "the address of the owner. "
      },
      "renounceOwnership()": {
        "details": "Allows the current owner to relinquish control of the contract."
      },
      "transfer(address,uint256)": {
        "details": "transfer token for a specified address",
        "params": {
          "amount": "The amount to be transferred.",
          "to": "The address to transfer to."
        }
      },
      "transferFrom(address,address,uint256)": {
        "details": "Transfer tokens from one address to another",
        "params": {
          "amount": "uint256 the amount of tokens to be transferred",
          "from": "address The address which you want to send tokens from",
          "to": "address The address which you want to transfer to"
        }
      },
      "transferOwnership(address)": {
        "details": "Allows the current owner to transfer control of the contract to a newOwner.",
        "params": {
          "newOwner": "The address to transfer ownership to."
        }
      }
    }
  },
  "userdoc": {
    "methods": {
      "renounceOwnership()": {
        "notice": "Renouncing to ownership will leave the contract without an owner. It will not be possible to call the functions with the `onlyOwner` modifier anymore."
      }
    },
    "notice": "A new kind of lending pool token will be created when a new asset is registered. Normalized amounts of the asset in lending pool are stored in the corresponding pool token contract as balance."
  }
}