{
  "contractName": "MultiSigWalletWithTimelock",
  "abi": [
    {
      "constant": true,
      "inputs": [
        {
          "name": "",
          "type": "uint256"
        }
      ],
      "name": "owners",
      "outputs": [
        {
          "name": "",
          "type": "address"
        }
      ],
      "payable": false,
      "stateMutability": "view",
      "type": "function"
    },
    {
      "constant": true,
      "inputs": [
        {
          "name": "",
          "type": "address"
        }
      ],
      "name": "isOwner",
      "outputs": [
        {
          "name": "",
          "type": "bool"
        }
      ],
      "payable": false,
      "stateMutability": "view",
      "type": "function"
    },
    {
      "constant": true,
      "inputs": [
        {
          "name": "",
          "type": "uint256"
        },
        {
          "name": "",
          "type": "address"
        }
      ],
      "name": "confirmations",
      "outputs": [
        {
          "name": "",
          "type": "bool"
        }
      ],
      "payable": false,
      "stateMutability": "view",
      "type": "function"
    },
    {
      "constant": true,
      "inputs": [
        {
          "name": "",
          "type": "uint256"
        }
      ],
      "name": "unlockTimes",
      "outputs": [
        {
          "name": "",
          "type": "uint256"
        }
      ],
      "payable": false,
      "stateMutability": "view",
      "type": "function"
    },
    {
      "constant": true,
      "inputs": [
        {
          "name": "",
          "type": "uint256"
        }
      ],
      "name": "emergencyCalls",
      "outputs": [
        {
          "name": "selector",
          "type": "bytes32"
        },
        {
          "name": "paramsBytesCount",
          "type": "uint256"
        }
      ],
      "payable": false,
      "stateMutability": "view",
      "type": "function"
    },
    {
      "constant": true,
      "inputs": [
        {
          "name": "",
          "type": "uint256"
        }
      ],
      "name": "transactions",
      "outputs": [
        {
          "name": "destination",
          "type": "address"
        },
        {
          "name": "value",
          "type": "uint256"
        },
        {
          "name": "data",
          "type": "bytes"
        },
        {
          "name": "executed",
          "type": "bool"
        }
      ],
      "payable": false,
      "stateMutability": "view",
      "type": "function"
    },
    {
      "constant": true,
      "inputs": [],
      "name": "transactionCount",
      "outputs": [
        {
          "name": "",
          "type": "uint256"
        }
      ],
      "payable": false,
      "stateMutability": "view",
      "type": "function"
    },
    {
      "constant": true,
      "inputs": [],
      "name": "lockSeconds",
      "outputs": [
        {
          "name": "",
          "type": "uint256"
        }
      ],
      "payable": false,
      "stateMutability": "view",
      "type": "function"
    },
    {
      "constant": true,
      "inputs": [],
      "name": "MAX_OWNER_COUNT",
      "outputs": [
        {
          "name": "",
          "type": "uint256"
        }
      ],
      "payable": false,
      "stateMutability": "view",
      "type": "function"
    },
    {
      "constant": true,
      "inputs": [],
      "name": "required",
      "outputs": [
        {
          "name": "",
          "type": "uint256"
        }
      ],
      "payable": false,
      "stateMutability": "view",
      "type": "function"
    },
    {
      "inputs": [
        {
          "name": "_owners",
          "type": "address[]"
        },
        {
          "name": "_required",
          "type": "uint256"
        }
      ],
      "payable": false,
      "stateMutability": "nonpayable",
      "type": "constructor"
    },
    {
      "payable": true,
      "stateMutability": "payable",
      "type": "fallback"
    },
    {
      "anonymous": false,
      "inputs": [
        {
          "indexed": true,
          "name": "sender",
          "type": "address"
        },
        {
          "indexed": true,
          "name": "transactionId",
          "type": "uint256"
        }
      ],
      "name": "Confirmation",
      "type": "event"
    },
    {
      "anonymous": false,
      "inputs": [
        {
          "indexed": true,
          "name": "sender",
          "type": "address"
        },
        {
          "indexed": true,
          "name": "transactionId",
          "type": "uint256"
        }
      ],
      "name": "Revocation",
      "type": "event"
    },
    {
      "anonymous": false,
      "inputs": [
        {
          "indexed": true,
          "name": "transactionId",
          "type": "uint256"
        }
      ],
      "name": "Submission",
      "type": "event"
    },
    {
      "anonymous": false,
      "inputs": [
        {
          "indexed": true,
          "name": "transactionId",
          "type": "uint256"
        }
      ],
      "name": "Execution",
      "type": "event"
    },
    {
      "anonymous": false,
      "inputs": [
        {
          "indexed": true,
          "name": "transactionId",
          "type": "uint256"
        }
      ],
      "name": "ExecutionFailure",
      "type": "event"
    },
    {
      "anonymous": false,
      "inputs": [
        {
          "indexed": true,
          "name": "sender",
          "type": "address"
        },
        {
          "indexed": false,
          "name": "value",
          "type": "uint256"
        }
      ],
      "name": "Deposit",
      "type": "event"
    },
    {
      "anonymous": false,
      "inputs": [
        {
          "indexed": true,
          "name": "owner",
          "type": "address"
        }
      ],
      "name": "OwnerAddition",
      "type": "event"
    },
    {
      "anonymous": false,
      "inputs": [
        {
          "indexed": true,
          "name": "owner",
          "type": "address"
        }
      ],
      "name": "OwnerRemoval",
      "type": "event"
    },
    {
      "anonymous": false,
      "inputs": [
        {
          "indexed": false,
          "name": "required",
          "type": "uint256"
        }
      ],
      "name": "RequirementChange",
      "type": "event"
    },
    {
      "anonymous": false,
      "inputs": [
        {
          "indexed": true,
          "name": "transactionId",
          "type": "uint256"
        },
        {
          "indexed": false,
          "name": "confirmationTime",
          "type": "uint256"
        }
      ],
      "name": "UnlockTimeSet",
      "type": "event"
    },
    {
      "anonymous": false,
      "inputs": [
        {
          "indexed": false,
          "name": "lockSeconds",
          "type": "uint256"
        }
      ],
      "name": "LockSecondsChange",
      "type": "event"
    },
    {
      "constant": true,
      "inputs": [],
      "name": "getEmergencyCallsCount",
      "outputs": [
        {
          "name": "count",
          "type": "uint256"
        }
      ],
      "payable": false,
      "stateMutability": "view",
      "type": "function"
    },
    {
      "constant": false,
      "inputs": [
        {
          "name": "owner",
          "type": "address"
        }
      ],
      "name": "addOwner",
      "outputs": [],
      "payable": false,
      "stateMutability": "nonpayable",
      "type": "function"
    },
    {
      "constant": false,
      "inputs": [
        {
          "name": "owner",
          "type": "address"
        }
      ],
      "name": "removeOwner",
      "outputs": [],
      "payable": false,
      "stateMutability": "nonpayable",
      "type": "function"
    },
    {
      "constant": false,
      "inputs": [
        {
          "name": "owner",
          "type": "address"
        },
        {
          "name": "newOwner",
          "type": "address"
        }
      ],
      "name": "replaceOwner",
      "outputs": [],
      "payable": false,
      "stateMutability": "nonpayable",
      "type": "function"
    },
    {
      "constant": false,
      "inputs": [
        {
          "name": "_required",
          "type": "uint256"
        }
      ],
      "name": "changeRequirement",
      "outputs": [],
      "payable": false,
      "stateMutability": "nonpayable",
      "type": "function"
    },
    {
      "constant": false,
      "inputs": [
        {
          "name": "_lockSeconds",
          "type": "uint256"
        }
      ],
      "name": "changeLockSeconds",
      "outputs": [],
      "payable": false,
      "stateMutability": "nonpayable",
      "type": "function"
    },
    {
      "constant": false,
      "inputs": [
        {
          "name": "destination",
          "type": "address"
        },
        {
          "name": "value",
          "type": "uint256"
        },
        {
          "name": "data",
          "type": "bytes"
        }
      ],
      "name": "submitTransaction",
      "outputs": [
        {
          "name": "transactionId",
          "type": "uint256"
        }
      ],
      "payable": false,
      "stateMutability": "nonpayable",
      "type": "function"
    },
    {
      "constant": false,
      "inputs": [
        {
          "name": "transactionId",
          "type": "uint256"
        }
      ],
      "name": "confirmTransaction",
      "outputs": [],
      "payable": false,
      "stateMutability": "nonpayable",
      "type": "function"
    },
    {
      "constant": false,
      "inputs": [
        {
          "name": "transactionId",
          "type": "uint256"
        }
      ],
      "name": "revokeConfirmation",
      "outputs": [],
      "payable": false,
      "stateMutability": "nonpayable",
      "type": "function"
    },
    {
      "constant": false,
      "inputs": [
        {
          "name": "transactionId",
          "type": "uint256"
        }
      ],
      "name": "executeTransaction",
      "outputs": [],
      "payable": false,
      "stateMutability": "nonpayable",
      "type": "function"
    },
    {
      "constant": true,
      "inputs": [
        {
          "name": "transactionId",
          "type": "uint256"
        }
      ],
      "name": "isConfirmed",
      "outputs": [
        {
          "name": "",
          "type": "bool"
        }
      ],
      "payable": false,
      "stateMutability": "view",
      "type": "function"
    },
    {
      "constant": true,
      "inputs": [
        {
          "name": "transactionId",
          "type": "uint256"
        }
      ],
      "name": "getConfirmationCount",
      "outputs": [
        {
          "name": "count",
          "type": "uint256"
        }
      ],
      "payable": false,
      "stateMutability": "view",
      "type": "function"
    },
    {
      "constant": true,
      "inputs": [
        {
          "name": "pending",
          "type": "bool"
        },
        {
          "name": "executed",
          "type": "bool"
        }
      ],
      "name": "getTransactionCount",
      "outputs": [
        {
          "name": "count",
          "type": "uint256"
        }
      ],
      "payable": false,
      "stateMutability": "view",
      "type": "function"
    },
    {
      "constant": true,
      "inputs": [],
      "name": "getOwners",
      "outputs": [
        {
          "name": "",
          "type": "address[]"
        }
      ],
      "payable": false,
      "stateMutability": "view",
      "type": "function"
    },
    {
      "constant": true,
      "inputs": [
        {
          "name": "transactionId",
          "type": "uint256"
        }
      ],
      "name": "getConfirmations",
      "outputs": [
        {
          "name": "_confirmations",
          "type": "address[]"
        }
      ],
      "payable": false,
      "stateMutability": "view",
      "type": "function"
    }
  ],
  "bytecode": "0x60806040526203f4806000553480156200001857600080fd5b50604051620024dc380380620024dc83398101806040526200003e91908101906200036a565b81518160328211806200005057508181115b806200005a575080155b8062000064575081155b15620000a7576040517f08c379a00000000000000000000000000000000000000000000000000000000081526004016200009e90620004b6565b60405180910390fd5b60005b8451811015620001a65760036000868381518110620000c557fe5b6020908102919091018101516001600160a01b031682528101919091526040016000205460ff16806200011e575060006001600160a01b03168582815181106200010b57fe5b60200260200101516001600160a01b0316145b1562000158576040517f08c379a00000000000000000000000000000000000000000000000000000000081526004016200009e90620004a4565b6001600360008784815181106200016b57fe5b6020908102919091018101516001600160a01b03168252810191909152604001600020805460ff1916911515919091179055600101620000aa565b508351620001bc9060059060208701906200022d565b5060068390556040805180820190915260089080620001de6060820162000497565b60408051601f1981840301815291815281516020928301208352918101919091528254600181810185556000948552938290208351600290920201908155910151910155506200055592505050565b82805482825590600052602060002090810192821562000285579160200282015b828111156200028557825182546001600160a01b0319166001600160a01b039091161782556020909201916001909101906200024e565b506200029392915062000297565b5090565b620002be91905b80821115620002935780546001600160a01b03191681556001016200029e565b90565b8051620002ce8162000530565b92915050565b600082601f830112620002e657600080fd5b8151620002fd620002f782620004ef565b620004c8565b915081818352602084019350602081019050838560208402820111156200032357600080fd5b60005b838110156200035357816200033c8882620002c1565b845250602092830192919091019060010162000326565b5050505092915050565b8051620002ce816200054a565b600080604083850312156200037e57600080fd5b82516001600160401b038111156200039557600080fd5b620003a385828601620002d4565b9250506020620003b6858286016200035d565b9150509250929050565b6000620003cf600b8362000510565b7f4f574e45525f4552524f52000000000000000000000000000000000000000000815260200192915050565b60006200040a60258362000519565b7f7365744d61726b6574426f72726f7755736162696c6974792875696e7431362c81527f626f6f6c29000000000000000000000000000000000000000000000000000000602082015260250192915050565b60006200046b60178362000510565b7f56414c49445f524551554952454d454e545f4552524f52000000000000000000815260200192915050565b6000620002ce82620003fb565b60208082528101620002ce81620003c0565b60208082528101620002ce816200045c565b6040518181016001600160401b0381118282101715620004e757600080fd5b604052919050565b60006001600160401b038211156200050657600080fd5b5060209081020190565b90815260200190565b919050565b60006001600160a01b038216620002ce565b6200053b816200051e565b81146200054757600080fd5b50565b6200053b81620002be565b611f7780620005656000396000f3fe6080604052600436106101665760003560e01c80639ace38c2116100d1578063c01a8c841161008a578063d74f8edd11610064578063d74f8edd1461047f578063dc8452cd14610494578063e20056e6146104a9578063ee22610b146104c957610166565b8063c01a8c841461042a578063c0af02271461044a578063c64274741461045f57610166565b80639ace38c21461036e578063a0e67e2b1461039e578063b5dc40c3146103c0578063b77bf600146103e0578063ba51a6df146103f5578063bfa6fddb1461041557610166565b80637065cb48116101235780637065cb48146102a057806376ac947a146102c0578063784547a7146102e057806386384afc146103005780638b51d13f1461032e5780638c22d5d31461034e57610166565b8063025e7c27146101b0578063173825d9146101e657806320ea8d86146102065780632f54bf6e146102265780633411c81c146102535780635474152514610273575b34156101ae57336001600160a01b03167fe1fffcc4923d04b559f4d29a8bfc6cda04eb5b0d3c460751c2402c5c5cc9109c346040516101a59190611e91565b60405180910390a25b005b3480156101bc57600080fd5b506101d06101cb36600461198d565b6104e9565b6040516101dd9190611d64565b60405180910390f35b3480156101f257600080fd5b506101ae610201366004611895565b610510565b34801561021257600080fd5b506101ae61022136600461198d565b6106b1565b34801561023257600080fd5b50610246610241366004611895565b6107a9565b6040516101dd9190611dc8565b34801561025f57600080fd5b5061024661026e3660046119ab565b6107be565b34801561027f57600080fd5b5061029361028e36600461195d565b6107de565b6040516101dd9190611e91565b3480156102ac57600080fd5b506101ae6102bb366004611895565b61084a565b3480156102cc57600080fd5b506102936102db36600461198d565b6109b0565b3480156102ec57600080fd5b506102466102fb36600461198d565b6109c2565b34801561030c57600080fd5b5061032061031b36600461198d565b610a4c565b6040516101dd929190611dd6565b34801561033a57600080fd5b5061029361034936600461198d565b610a77565b34801561035a57600080fd5b506101ae61036936600461198d565b610ae6565b34801561037a57600080fd5b5061038e61038936600461198d565b610b48565b6040516101dd9493929190611d72565b3480156103aa57600080fd5b506103b3610c04565b6040516101dd9190611db7565b3480156103cc57600080fd5b506103b36103db36600461198d565b610c67565b3480156103ec57600080fd5b50610293610dde565b34801561040157600080fd5b506101ae61041036600461198d565b610de4565b34801561042157600080fd5b50610293610e8c565b34801561043657600080fd5b506101ae61044536600461198d565b610e92565b34801561045657600080fd5b5061029361101d565b34801561046b57600080fd5b5061029361047a3660046118f5565b611023565b34801561048b57600080fd5b50610293611199565b3480156104a057600080fd5b5061029361119e565b3480156104b557600080fd5b506101ae6104c43660046118bb565b6111a4565b3480156104d557600080fd5b506101ae6104e436600461198d565b611363565b600581815481106104f657fe5b6000918252602090912001546001600160a01b0316905081565b33301461053b57604051600160e51b62461bcd02815260040161053290611e31565b60405180910390fd5b6001600160a01b038116600090815260036020526040902054819060ff1661057857604051600160e51b62461bcd02815260040161053290611e51565b6001600160a01b0382166000908152600360205260408120805460ff191690555b6005546000190181101561064c57826001600160a01b0316600582815481106105be57fe5b6000918252602090912001546001600160a01b03161415610644576005805460001981019081106105eb57fe5b600091825260209091200154600580546001600160a01b03909216918390811061061157fe5b9060005260206000200160006101000a8154816001600160a01b0302191690836001600160a01b0316021790555061064c565b600101610599565b506005805460001901906106609082611752565b5060055460065411156106795760055461067990610de4565b6040516001600160a01b038316907f8001553a916ef2f495d26a907cc54d96ed840d7bda71e73194bf5a9df7a76b9090600090a25050565b3360008181526003602052604090205460ff166106e357604051600160e51b62461bcd02815260040161053290611e51565b60008281526002602090815260408083203380855292529091205483919060ff1661072357604051600160e51b62461bcd02815260040161053290611df1565b600084815260016020526040902060030154849060ff161561075a57604051600160e51b62461bcd02815260040161053290611e41565b6000858152600260209081526040808320338085529252808320805460ff191690555187927ff6a317157440607f36269043eb55f1287a5a19ba2216afeab88cd46cbcfb88e991a35050505050565b60036020526000908152604090205460ff1681565b600260209081526000928352604080842090915290825290205460ff1681565b6000805b6007548110156108435783801561080b575060008181526001602052604090206003015460ff16155b8061082f575082801561082f575060008181526001602052604090206003015460ff165b1561083b576001820191505b6001016107e2565b5092915050565b33301461086c57604051600160e51b62461bcd02815260040161053290611e31565b6001600160a01b038116600090815260036020526040902054819060ff16156108aa57604051600160e51b62461bcd02815260040161053290611e01565b816001600160a01b0381166108d457604051600160e51b62461bcd02815260040161053290611e71565b60058054905060010160065460328211806108ee57508181115b806108f7575080155b80610900575081155b1561092057604051600160e51b62461bcd02815260040161053290611e81565b6001600160a01b038516600081815260036020526040808220805460ff1916600190811790915560058054918201815583527f036b6384b5eca791c62761152d0c79bb0604c104a5fb6f4eb0703f3154bb3db00180546001600160a01b03191684179055517ff39e6e1eb0edcf53c221607b54b00cd28f3196fed0a24994dc308b8f611b682d9190a25050505050565b60046020526000908152604090205481565b600080805b600554811015610a4057600084815260026020526040812060058054919291849081106109f057fe5b60009182526020808320909101546001600160a01b0316835282019290925260400190205460ff1615610a24576001820191505b6006548210610a3857600192505050610a47565b6001016109c7565b5060009150505b919050565b60088181548110610a5957fe5b60009182526020909120600290910201805460019091015490915082565b6000805b600554811015610ae05760008381526002602052604081206005805491929184908110610aa457fe5b60009182526020808320909101546001600160a01b0316835282019290925260400190205460ff1615610ad8576001820191505b600101610a7b565b50919050565b333014610b0857604051600160e51b62461bcd02815260040161053290611e31565b60008190556040517f884d6758bafbcb4b5e2e0393178ca1f3da3dd380a54ce05ab60aa59756db9dc190610b3d908390611e91565b60405180910390a150565b6001602081815260009283526040928390208054818401546002808401805488516101009882161598909802600019011691909104601f81018690048602870186019097528686526001600160a01b039092169590949293830182828015610bf15780601f10610bc657610100808354040283529160200191610bf1565b820191906000526020600020905b815481529060010190602001808311610bd457829003601f168201915b5050506003909301549192505060ff1684565b60606005805480602002602001604051908101604052809291908181526020018280548015610c5c57602002820191906000526020600020905b81546001600160a01b03168152600190910190602001808311610c3e575b505050505090505b90565b606080600580549050604051908082528060200260200182016040528015610c99578160200160208202803883390190505b5090506000805b600554811015610d5c5760008581526002602052604081206005805491929184908110610cc957fe5b60009182526020808320909101546001600160a01b0316835282019290925260400190205460ff1615610d545760058181548110610d0357fe5b9060005260206000200160009054906101000a90046001600160a01b0316838381518110610d2d57fe5b60200260200101906001600160a01b031690816001600160a01b0316815250506001820191505b600101610ca0565b81604051908082528060200260200182016040528015610d86578160200160208202803883390190505b509350600090505b81811015610dd657828181518110610da257fe5b6020026020010151848281518110610db657fe5b6001600160a01b0390921660209283029190910190910152600101610d8e565b505050919050565b60075481565b333014610e0657604051600160e51b62461bcd02815260040161053290611e31565b600554816032821180610e1857508181115b80610e21575080155b80610e2a575081155b15610e4a57604051600160e51b62461bcd02815260040161053290611e81565b60068390556040517fa3f1ee9126a074d9326c682f561767f710e927faa811f7a99829d49dc421797a90610e7f908590611e91565b60405180910390a1505050565b60005481565b3360008181526003602052604090205460ff16610ec457604051600160e51b62461bcd02815260040161053290611e51565b60008281526001602052604090205482906001600160a01b0316610efd57604051600160e51b62461bcd02815260040161053290611e21565b60008381526002602090815260408083203380855292529091205484919060ff1615610f3e57604051600160e51b62461bcd02815260040161053290611e61565b6000858152600260209081526040808320338085529252808320805460ff191660011790555187927f4a504a94899432a9846e1aa406dceb1bcfd538bb839071d49d1e5e23f5be30ef91a3610f92856109c2565b8015610faa5750600085815260046020526040902054155b8015610fbc5750610fba85611507565b155b15611016576000805486825260046020526040918290204290910190819055905186907f280af6a3ba059a74f0e894262aa07f2c4d0de1e231882263c0d7dcda111b1a449061100c908490611e91565b60405180910390a2505b5050505050565b60085490565b3360008181526003602052604081205490919060ff1661105857604051600160e51b62461bcd02815260040161053290611e51565b856001600160a01b03811661108257604051600160e51b62461bcd02815260040161053290611e71565b60075492506040518060800160405280886001600160a01b0316815260200187815260200186868080601f016020809104026020016040519081016040528093929190818152602001838380828437600092018290525093855250505060209182018190528581526001808352604091829020845181546001600160a01b0319166001600160a01b039091161781558484015191810191909155908301518051919261113692600285019290910190611776565b50606091909101516003909101805460ff191691151591909117905560078054600101905560405183907fc0ba8fe4b176c1714197d43b9cc6bcf797a4a7461c5fe8d0ef6e184ae7601e5190600090a261118f83610e92565b5050949350505050565b603281565b60065481565b3330146111c657604051600160e51b62461bcd02815260040161053290611e31565b6001600160a01b038216600090815260036020526040902054829060ff1661120357604051600160e51b62461bcd02815260040161053290611e51565b6001600160a01b038216600090815260036020526040902054829060ff161561124157604051600160e51b62461bcd02815260040161053290611e01565b60005b6005548110156112c957846001600160a01b03166005828154811061126557fe5b6000918252602090912001546001600160a01b031614156112c157836005828154811061128e57fe5b9060005260206000200160006101000a8154816001600160a01b0302191690836001600160a01b031602179055506112c9565b600101611244565b506001600160a01b03808516600081815260036020526040808220805460ff1990811690915593871682528082208054909416600117909355915190917f8001553a916ef2f495d26a907cc54d96ed840d7bda71e73194bf5a9df7a76b9091a26040516001600160a01b038416907ff39e6e1eb0edcf53c221607b54b00cd28f3196fed0a24994dc308b8f611b682d90600090a250505050565b3360008181526003602052604090205460ff1661139557604051600160e51b62461bcd02815260040161053290611e51565b600082815260016020526040902060030154829060ff16156113cc57604051600160e51b62461bcd02815260040161053290611e41565b6000838152600460205260409020544210156113fd57604051600160e51b62461bcd02815260040161053290611e11565b611406836109c2565b1561150257600083815260016020819052604080832060038101805460ff19168417905580549281015491519093926001600160a01b0316919061144e906002860190611d51565b60006040518083038185875af1925050503d806000811461148b576040519150601f19603f3d011682016040523d82523d6000602084013e611490565b606091505b5050905080156114ca5760405185907f33e13ecb54c3076d8e8bb8c2881800a4d972b792045ffae98fdf46df365fed7590600090a2611016565b60405185907f526441bb6c1aba3c9a4a6ca1d6545da9c2333c8c48343ef398eb858d72b7923690600090a250600301805460ff191690555b505050565b60008181526001602081815260408084206002908101805483519581161561010002600019011691909104601f81018490048402850184019092528184526060939290919083018282801561159d5780601f106115725761010080835404028352916020019161159d565b820191906000526020600020905b81548152906001019060200180831161158057829003601f168201915b50939450600093505050505b600854811015610a40576115bb6117f4565b600882815481106115c857fe5b90600052602060002090600202016040518060400160405290816000820154815260200160018201548152505090508060200151600401835114801561161057506004835110155b801561165a57508260008151811061162457fe5b602001015160f81c60f81b6001600160f81b031916816000015160006020811061164a57fe5b1a60f81b6001600160f81b031916145b80156116a457508260018151811061166e57fe5b602001015160f81c60f81b6001600160f81b031916816000015160016020811061169457fe5b1a60f81b6001600160f81b031916145b80156116ee5750826002815181106116b857fe5b602001015160f81c60f81b6001600160f81b03191681600001516002602081106116de57fe5b1a60f81b6001600160f81b031916145b801561173857508260038151811061170257fe5b602001015160f81c60f81b6001600160f81b031916816000015160036020811061172857fe5b1a60f81b6001600160f81b031916145b156117495760019350505050610a47565b506001016115a9565b8154818355818111156115025760008381526020902061150291810190830161180b565b828054600181600116156101000203166002900490600052602060002090601f016020900481019282601f106117b757805160ff19168380011785556117e4565b828001600101855582156117e4579182015b828111156117e45782518255916020019190600101906117c9565b506117f092915061180b565b5090565b604080518082019091526000808252602082015290565b610c6491905b808211156117f05760008155600101611811565b803561183081611f14565b92915050565b803561183081611f2b565b60008083601f84011261185357600080fd5b50813567ffffffffffffffff81111561186b57600080fd5b60208301915083600182028301111561188357600080fd5b9250929050565b803561183081611f34565b6000602082840312156118a757600080fd5b60006118b38484611825565b949350505050565b600080604083850312156118ce57600080fd5b60006118da8585611825565b92505060206118eb85828601611825565b9150509250929050565b6000806000806060858703121561190b57600080fd5b60006119178787611825565b94505060206119288782880161188a565b935050604085013567ffffffffffffffff81111561194557600080fd5b61195187828801611841565b95989497509550505050565b6000806040838503121561197057600080fd5b600061197c8585611836565b92505060206118eb85828601611836565b60006020828403121561199f57600080fd5b60006118b3848461188a565b600080604083850312156119be57600080fd5b60006118da858561188a565b60006119d683836119de565b505060200190565b6119e781611ebe565b82525050565b60006119f882611eb1565b611a028185611eb5565b9350611a0d83611e9f565b8060005b83811015611a3b578151611a2588826119ca565b9750611a3083611e9f565b925050600101611a11565b509495945050505050565b6119e781611ec9565b6119e781610c64565b6000611a6382611eb1565b611a6d8185611eb5565b9350611a7d818560208601611eda565b611a8681611f0a565b9093019392505050565b600081546001811660008114611aad5760018114611ad057611b0f565b607f6002830416611abe8187610a47565b60ff1984168152955085019250611b0f565b60028204611ade8187610a47565b9550611ae985611ea5565b60005b82811015611b0857815488820152600190910190602001611aec565b5050850192505b505092915050565b6000611b24600f83611eb5565b7f434f4e4649524d45445f4552524f520000000000000000000000000000000000815260200192915050565b6000611b5d601a83611eb5565b7f4f574e45525f444f45535f4e4f545f45584953545f4552524f52000000000000815260200192915050565b6000611b96601a83611eb5565b7f5452414e53414354494f4e5f4e4545445f544f5f554e4c4f434b000000000000815260200192915050565b6000611bcf601883611eb5565b7f5452414e53414354494f4e5f4558495354535f4552524f520000000000000000815260200192915050565b6000611c08601183611eb5565b7f4f4e4c595f57414c4c45545f4552524f52000000000000000000000000000000815260200192915050565b6000611c41601283611eb5565b7f4e4f545f45584543555445445f4552524f520000000000000000000000000000815260200192915050565b6000611c7a601283611eb5565b7f4f574e45525f4558495354535f4552524f520000000000000000000000000000815260200192915050565b6000611cb3601383611eb5565b7f4e4f545f434f4e4649524d45445f4552524f5200000000000000000000000000815260200192915050565b6000611cec600e83611eb5565b7f4e4f545f4e554c4c5f4552524f52000000000000000000000000000000000000815260200192915050565b6000611d25601783611eb5565b7f56414c49445f524551554952454d454e545f4552524f52000000000000000000815260200192915050565b6000611d5d8284611a90565b9392505050565b6020810161183082846119de565b60808101611d8082876119de565b611d8d6020830186611a4f565b8181036040830152611d9f8185611a58565b9050611dae6060830184611a46565b95945050505050565b60208082528101611d5d81846119ed565b602081016118308284611a46565b60408101611de48285611a4f565b611d5d6020830184611a4f565b6020808252810161183081611b17565b6020808252810161183081611b50565b6020808252810161183081611b89565b6020808252810161183081611bc2565b6020808252810161183081611bfb565b6020808252810161183081611c34565b6020808252810161183081611c6d565b6020808252810161183081611ca6565b6020808252810161183081611cdf565b6020808252810161183081611d18565b602081016118308284611a4f565b60200190565b60009081526020902090565b5190565b90815260200190565b600061183082611ece565b151590565b6001600160a01b031690565b60005b83811015611ef5578181015183820152602001611edd565b83811115611f04576000848401525b50505050565b601f01601f191690565b611f1d81611ebe565b8114611f2857600080fd5b50565b611f1d81611ec9565b611f1d81610c6456fea265627a7a72305820985557cf12aa55584cd0575bc2b4d90178b4e3688fc5758589c7c916276e44166c6578706572696d656e74616cf50037",
  "source": "/*\n\n    Copyright 2019 The BitFinanceProtocol\n\n    Licensed under the Apache License, Version 2.0 (the \"License\");\n    you may not use this file except in compliance with the License.\n    You may obtain a copy of the License at\n\n        http://www.apache.org/licenses/LICENSE-2.0\n\n    Unless required by applicable law or agreed to in writing, software\n    distributed under the License is distributed on an \"AS IS\" BASIS,\n    WITHOUT WARRANTIES OR CONDITIONS OF ANY KIND, either express or implied.\n    See the License for the specific language governing permissions and\n    limitations under the License.\n\n*/\n\npragma solidity 0.5.8;\npragma experimental ABIEncoderV2;\n\ncontract MultiSigWalletWithTimelock {\n\n    uint256 constant public MAX_OWNER_COUNT = 50;\n    uint256 public lockSeconds = 259200;\n\n    event Confirmation(address indexed sender, uint256 indexed transactionId);\n    event Revocation(address indexed sender, uint256 indexed transactionId);\n    event Submission(uint256 indexed transactionId);\n    event Execution(uint256 indexed transactionId);\n    event ExecutionFailure(uint256 indexed transactionId);\n    event Deposit(address indexed sender, uint256 value);\n    event OwnerAddition(address indexed owner);\n    event OwnerRemoval(address indexed owner);\n    event RequirementChange(uint256 required);\n    event UnlockTimeSet(uint256 indexed transactionId, uint256 confirmationTime);\n    event LockSecondsChange(uint256 lockSeconds);\n\n    mapping (uint256 => Transaction) public transactions;\n    mapping (uint256 => mapping (address => bool)) public confirmations;\n    mapping (address => bool) public isOwner;\n    mapping (uint256 => uint256) public unlockTimes;\n\n    address[] public owners;\n    uint256 public required;\n    uint256 public transactionCount;\n\n    struct Transaction {\n        address destination;\n        uint256 value;\n        bytes data;\n        bool executed;\n    }\n\n    struct EmergencyCall {\n        bytes32 selector;\n        uint256 paramsBytesCount;\n    }\n\n    // Functions bypass the time lock process\n    EmergencyCall[] public emergencyCalls;\n\n    modifier onlyWallet() {\n        if (msg.sender != address(this))\n            revert(\"ONLY_WALLET_ERROR\");\n        _;\n    }\n\n    modifier ownerDoesNotExist(address owner) {\n        if (isOwner[owner])\n            revert(\"OWNER_DOES_NOT_EXIST_ERROR\");\n        _;\n    }\n\n    modifier ownerExists(address owner) {\n        if (!isOwner[owner])\n            revert(\"OWNER_EXISTS_ERROR\");\n        _;\n    }\n\n    modifier transactionExists(uint256 transactionId) {\n        if (transactions[transactionId].destination == address(0))\n            revert(\"TRANSACTION_EXISTS_ERROR\");\n        _;\n    }\n\n    modifier confirmed(uint256 transactionId, address owner) {\n        if (!confirmations[transactionId][owner])\n            revert(\"CONFIRMED_ERROR\");\n        _;\n    }\n\n    modifier notConfirmed(uint256 transactionId, address owner) {\n        if (confirmations[transactionId][owner])\n            revert(\"NOT_CONFIRMED_ERROR\");\n        _;\n    }\n\n    modifier notExecuted(uint256 transactionId) {\n        if (transactions[transactionId].executed)\n            revert(\"NOT_EXECUTED_ERROR\");\n        _;\n    }\n\n    modifier notNull(address _address) {\n        if (_address == address(0))\n            revert(\"NOT_NULL_ERROR\");\n        _;\n    }\n\n    modifier validRequirement(uint256 ownerCount, uint256 _required) {\n        if (ownerCount > MAX_OWNER_COUNT || _required > ownerCount || _required == 0 || ownerCount == 0)\n            revert(\"VALID_REQUIREMENT_ERROR\");\n        _;\n    }\n\n    /** @dev Fallback function allows to deposit ether. */\n    function() external payable {\n        if (msg.value > 0) {\n            emit Deposit(msg.sender, msg.value);\n        }\n    }\n\n    /** @dev Contract constructor sets initial owners and required number of confirmations.\n      * @param _owners List of initial owners.\n      * @param _required Number of required confirmations.\n      */\n    constructor(address[] memory _owners, uint256 _required)\n        public\n        validRequirement(_owners.length, _required)\n    {\n        for (uint256 i = 0; i < _owners.length; i++) {\n            if (isOwner[_owners[i]] || _owners[i] == address(0)) {\n                revert(\"OWNER_ERROR\");\n            }\n\n            isOwner[_owners[i]] = true;\n        }\n\n        owners = _owners;\n        required = _required;\n\n        // initialzie Emergency calls\n        emergencyCalls.push(\n            EmergencyCall({\n                selector: keccak256(abi.encodePacked(\"setMarketBorrowUsability(uint16,bool)\")),\n                paramsBytesCount: 64\n            })\n        );\n    }\n\n    function getEmergencyCallsCount()\n        external\n        view\n        returns (uint256 count)\n    {\n        return emergencyCalls.length;\n    }\n\n    /** @dev Allows to add a new owner. Transaction has to be sent by wallet.\n      * @param owner Address of new owner.\n      */\n    function addOwner(address owner)\n        external\n        onlyWallet\n        ownerDoesNotExist(owner)\n        notNull(owner)\n        validRequirement(owners.length + 1, required)\n    {\n        isOwner[owner] = true;\n        owners.push(owner);\n        emit OwnerAddition(owner);\n    }\n\n    /** @dev Allows to remove an owner. Transaction has to be sent by wallet.\n      * @param owner Address of owner.\n      */\n    function removeOwner(address owner)\n        external\n        onlyWallet\n        ownerExists(owner)\n    {\n        isOwner[owner] = false;\n        for (uint256 i = 0; i < owners.length - 1; i++) {\n            if (owners[i] == owner) {\n                owners[i] = owners[owners.length - 1];\n                break;\n            }\n        }\n\n        owners.length -= 1;\n\n        if (required > owners.length) {\n            changeRequirement(owners.length);\n        }\n\n        emit OwnerRemoval(owner);\n    }\n\n    /** @dev Allows to replace an owner with a new owner. Transaction has to be sent by wallet.\n      * @param owner Address of owner to be replaced.\n      * @param owner Address of new owner.\n      */\n    function replaceOwner(address owner, address newOwner)\n        external\n        onlyWallet\n        ownerExists(owner)\n        ownerDoesNotExist(newOwner)\n    {\n        for (uint256 i = 0; i < owners.length; i++) {\n            if (owners[i] == owner) {\n                owners[i] = newOwner;\n                break;\n            }\n        }\n\n        isOwner[owner] = false;\n        isOwner[newOwner] = true;\n        emit OwnerRemoval(owner);\n        emit OwnerAddition(newOwner);\n    }\n\n    /** @dev Allows to change the number of required confirmations. Transaction has to be sent by wallet.\n      * @param _required Number of required confirmations.\n      */\n    function changeRequirement(uint256 _required)\n        public\n        onlyWallet\n        validRequirement(owners.length, _required)\n    {\n        required = _required;\n        emit RequirementChange(_required);\n    }\n\n    /** @dev Changes the duration of the time lock for transactions.\n      * @param _lockSeconds Duration needed after a transaction is confirmed and before it becomes executable, in seconds.\n      */\n    function changeLockSeconds(uint256 _lockSeconds)\n        external\n        onlyWallet\n    {\n        lockSeconds = _lockSeconds;\n        emit LockSecondsChange(_lockSeconds);\n    }\n\n    /** @dev Allows an owner to submit and confirm a transaction.\n      * @param destination Transaction target address.\n      * @param value Transaction ether value.\n      * @param data Transaction data payload.\n      * @return Returns transaction ID.\n      */\n    function submitTransaction(address destination, uint256 value, bytes calldata data)\n        external\n        ownerExists(msg.sender)\n        notNull(destination)\n        returns (uint256 transactionId)\n    {\n        transactionId = transactionCount;\n        transactions[transactionId] = Transaction({\n            destination: destination,\n            value: value,\n            data: data,\n            executed: false\n        });\n        transactionCount += 1;\n        emit Submission(transactionId);\n        confirmTransaction(transactionId);\n    }\n\n    /** @dev Allows an owner to confirm a transaction.\n      * @param transactionId Transaction ID.\n      */\n    function confirmTransaction(uint256 transactionId)\n        public\n        ownerExists(msg.sender)\n        transactionExists(transactionId)\n        notConfirmed(transactionId, msg.sender)\n    {\n        confirmations[transactionId][msg.sender] = true;\n        emit Confirmation(msg.sender, transactionId);\n\n        if (isConfirmed(transactionId) && unlockTimes[transactionId] == 0 && !isEmergencyCall(transactionId)) {\n            uint256 unlockTime = block.timestamp + lockSeconds;\n            unlockTimes[transactionId] = unlockTime;\n            emit UnlockTimeSet(transactionId, unlockTime);\n        }\n    }\n\n    function isEmergencyCall(uint256 transactionId)\n        internal\n        view\n        returns (bool)\n    {\n        bytes memory data = transactions[transactionId].data;\n\n        for (uint256 i = 0; i < emergencyCalls.length; i++) {\n            EmergencyCall memory emergencyCall = emergencyCalls[i];\n\n            if (\n                data.length == emergencyCall.paramsBytesCount + 4 &&\n                data.length >= 4 &&\n                emergencyCall.selector[0] == data[0] &&\n                emergencyCall.selector[1] == data[1] &&\n                emergencyCall.selector[2] == data[2] &&\n                emergencyCall.selector[3] == data[3]\n            ) {\n                return true;\n            }\n        }\n\n        return false;\n    }\n\n    /** @dev Allows an owner to revoke a confirmation for a transaction.\n      * @param transactionId Transaction ID.\n      */\n    function revokeConfirmation(uint256 transactionId)\n        external\n        ownerExists(msg.sender)\n        confirmed(transactionId, msg.sender)\n        notExecuted(transactionId)\n    {\n        confirmations[transactionId][msg.sender] = false;\n        emit Revocation(msg.sender, transactionId);\n    }\n\n    /** @dev Allows anyone to execute a confirmed transaction.\n      * @param transactionId Transaction ID.\n      */\n    function executeTransaction(uint256 transactionId)\n        external\n        ownerExists(msg.sender)\n        notExecuted(transactionId)\n    {\n        require(\n            block.timestamp >= unlockTimes[transactionId],\n            \"TRANSACTION_NEED_TO_UNLOCK\"\n        );\n\n        if (isConfirmed(transactionId)) {\n            Transaction storage transaction = transactions[transactionId];\n            transaction.executed = true;\n            (bool success, ) = transaction.destination.call.value(transaction.value)(transaction.data);\n            if (success)\n                emit Execution(transactionId);\n            else {\n                emit ExecutionFailure(transactionId);\n                transaction.executed = false;\n            }\n        }\n    }\n\n    /** @dev Returns the confirmation status of a transaction.\n      * @param transactionId Transaction ID.\n      * @return Confirmation status.\n      */\n    function isConfirmed(uint256 transactionId)\n        public\n        view\n        returns (bool)\n    {\n        uint256 count = 0;\n\n        for (uint256 i = 0; i < owners.length; i++) {\n            if (confirmations[transactionId][owners[i]]) {\n                count += 1;\n            }\n\n            if (count >= required) {\n                return true;\n            }\n        }\n\n        return false;\n    }\n\n    /* Web3 call functions */\n\n    /** @dev Returns number of confirmations of a transaction.\n      * @param transactionId Transaction ID.\n      * @return Number of confirmations.\n      */\n    function getConfirmationCount(uint256 transactionId)\n        external\n        view\n        returns (uint256 count)\n    {\n        for (uint256 i = 0; i < owners.length; i++) {\n            if (confirmations[transactionId][owners[i]]) {\n                count += 1;\n            }\n        }\n    }\n\n    /** @dev Returns total number of transactions after filers are applied.\n      * @param pending Include pending transactions.\n      * @param executed Include executed transactions.\n      * @return Total number of transactions after filters are applied.\n      */\n    function getTransactionCount(bool pending, bool executed)\n        external\n        view\n        returns (uint256 count)\n    {\n        for (uint256 i = 0; i < transactionCount; i++) {\n            if (pending && !transactions[i].executed || executed && transactions[i].executed) {\n                count += 1;\n            }\n        }\n    }\n\n    /** @dev Returns list of owners.\n      * @return List of owner addresses.\n      */\n    function getOwners()\n        external\n        view\n        returns (address[] memory)\n    {\n        return owners;\n    }\n\n    /** @dev Returns array with owner addresses, which confirmed transaction.\n      * @param transactionId Transaction ID.\n      * @return Returns array of owner addresses.\n      */\n    function getConfirmations(uint256 transactionId)\n        external\n        view\n        returns (address[] memory _confirmations)\n    {\n        address[] memory confirmationsTemp = new address[](owners.length);\n        uint256 count = 0;\n        uint256 i;\n\n        for (i = 0; i < owners.length; i++) {\n            if (confirmations[transactionId][owners[i]]) {\n                confirmationsTemp[count] = owners[i];\n                count += 1;\n            }\n        }\n\n        _confirmations = new address[](count);\n\n        for (i = 0; i < count; i++) {\n            _confirmations[i] = confirmationsTemp[i];\n        }\n    }\n}",
  "sourcePath": "/Users/mikovainio/WebstormProjects/bitfinance-protocol/contracts/wallet/MultiSigWalletWithTimelock.sol",
  "compiler": {
    "name": "solc",
    "version": "0.5.8+commit.23d335f2.Emscripten.clang"
  },
  "schemaVersion": "3.0.11",
  "updatedAt": "2020-03-02T16:59:53.649Z",
  "devdoc": {
    "methods": {
      "addOwner(address)": {
        "details": "Allows to add a new owner. Transaction has to be sent by wallet.",
        "params": {
          "owner": "Address of new owner."
        }
      },
      "changeLockSeconds(uint256)": {
        "details": "Changes the duration of the time lock for transactions.",
        "params": {
          "_lockSeconds": "Duration needed after a transaction is confirmed and before it becomes executable, in seconds."
        }
      },
      "changeRequirement(uint256)": {
        "details": "Allows to change the number of required confirmations. Transaction has to be sent by wallet.",
        "params": {
          "_required": "Number of required confirmations."
        }
      },
      "confirmTransaction(uint256)": {
        "details": "Allows an owner to confirm a transaction.",
        "params": {
          "transactionId": "Transaction ID."
        }
      },
      "constructor": {
        "details": "Contract constructor sets initial owners and required number of confirmations.",
        "params": {
          "_owners": "List of initial owners.",
          "_required": "Number of required confirmations."
        }
      },
      "executeTransaction(uint256)": {
        "details": "Allows anyone to execute a confirmed transaction.",
        "params": {
          "transactionId": "Transaction ID."
        }
      },
      "getConfirmationCount(uint256)": {
        "details": "Returns number of confirmations of a transaction.",
        "params": {
          "transactionId": "Transaction ID."
        },
        "return": "Number of confirmations."
      },
      "getConfirmations(uint256)": {
        "details": "Returns array with owner addresses, which confirmed transaction.",
        "params": {
          "transactionId": "Transaction ID."
        },
        "return": "Returns array of owner addresses."
      },
      "getOwners()": {
        "details": "Returns list of owners.",
        "return": "List of owner addresses."
      },
      "getTransactionCount(bool,bool)": {
        "details": "Returns total number of transactions after filers are applied.",
        "params": {
          "executed": "Include executed transactions.",
          "pending": "Include pending transactions."
        },
        "return": "Total number of transactions after filters are applied."
      },
      "isConfirmed(uint256)": {
        "details": "Returns the confirmation status of a transaction.",
        "params": {
          "transactionId": "Transaction ID."
        },
        "return": "Confirmation status."
      },
      "removeOwner(address)": {
        "details": "Allows to remove an owner. Transaction has to be sent by wallet.",
        "params": {
          "owner": "Address of owner."
        }
      },
      "replaceOwner(address,address)": {
        "details": "Allows to replace an owner with a new owner. Transaction has to be sent by wallet.",
        "params": {
          "owner": "Address of new owner."
        }
      },
      "revokeConfirmation(uint256)": {
        "details": "Allows an owner to revoke a confirmation for a transaction.",
        "params": {
          "transactionId": "Transaction ID."
        }
      },
      "submitTransaction(address,uint256,bytes)": {
        "details": "Allows an owner to submit and confirm a transaction.",
        "params": {
          "data": "Transaction data payload.",
          "destination": "Transaction target address.",
          "value": "Transaction ether value."
        },
        "return": "Returns transaction ID."
      }
    }
  },
  "userdoc": {
    "methods": {}
  }
}