{
  "contractName": "Operations",
  "abi": [
    {
      "constant": false,
      "inputs": [],
      "name": "renounceOwnership",
      "outputs": [],
      "payable": false,
      "stateMutability": "nonpayable",
      "type": "function"
    },
    {
      "constant": true,
      "inputs": [],
      "name": "owner",
      "outputs": [
        {
          "name": "",
          "type": "address"
        }
      ],
      "payable": false,
      "stateMutability": "view",
      "type": "function"
    },
    {
      "constant": true,
      "inputs": [],
      "name": "isOwner",
      "outputs": [
        {
          "name": "",
          "type": "bool"
        }
      ],
      "payable": false,
      "stateMutability": "view",
      "type": "function"
    },
    {
      "constant": false,
      "inputs": [
        {
          "name": "newOwner",
          "type": "address"
        }
      ],
      "name": "transferOwnership",
      "outputs": [],
      "payable": false,
      "stateMutability": "nonpayable",
      "type": "function"
    },
    {
      "anonymous": false,
      "inputs": [
        {
          "indexed": true,
          "name": "previousOwner",
          "type": "address"
        },
        {
          "indexed": true,
          "name": "newOwner",
          "type": "address"
        }
      ],
      "name": "OwnershipTransferred",
      "type": "event"
    },
    {
      "constant": false,
      "inputs": [
        {
          "components": [
            {
              "name": "baseAsset",
              "type": "address"
            },
            {
              "name": "quoteAsset",
              "type": "address"
            },
            {
              "name": "liquidateRate",
              "type": "uint256"
            },
            {
              "name": "withdrawRate",
              "type": "uint256"
            },
            {
              "name": "auctionRatioStart",
              "type": "uint256"
            },
            {
              "name": "auctionRatioPerBlock",
              "type": "uint256"
            },
            {
              "name": "borrowEnable",
              "type": "bool"
            }
          ],
          "name": "market",
          "type": "tuple"
        }
      ],
      "name": "createMarket",
      "outputs": [],
      "payable": false,
      "stateMutability": "nonpayable",
      "type": "function"
    },
    {
      "constant": false,
      "inputs": [
        {
          "name": "marketID",
          "type": "uint16"
        },
        {
          "name": "newAuctionRatioStart",
          "type": "uint256"
        },
        {
          "name": "newAuctionRatioPerBlock",
          "type": "uint256"
        },
        {
          "name": "newLiquidateRate",
          "type": "uint256"
        },
        {
          "name": "newWithdrawRate",
          "type": "uint256"
        }
      ],
      "name": "updateMarket",
      "outputs": [],
      "payable": false,
      "stateMutability": "nonpayable",
      "type": "function"
    },
    {
      "constant": false,
      "inputs": [
        {
          "name": "marketID",
          "type": "uint16"
        },
        {
          "name": "usability",
          "type": "bool"
        }
      ],
      "name": "setMarketBorrowUsability",
      "outputs": [],
      "payable": false,
      "stateMutability": "nonpayable",
      "type": "function"
    },
    {
      "constant": false,
      "inputs": [
        {
          "name": "asset",
          "type": "address"
        },
        {
          "name": "oracleAddress",
          "type": "address"
        },
        {
          "name": "interestModelAddress",
          "type": "address"
        },
        {
          "name": "poolTokenName",
          "type": "string"
        },
        {
          "name": "poolTokenSymbol",
          "type": "string"
        },
        {
          "name": "poolTokenDecimals",
          "type": "uint8"
        }
      ],
      "name": "createAsset",
      "outputs": [],
      "payable": false,
      "stateMutability": "nonpayable",
      "type": "function"
    },
    {
      "constant": false,
      "inputs": [
        {
          "name": "asset",
          "type": "address"
        },
        {
          "name": "oracleAddress",
          "type": "address"
        },
        {
          "name": "interestModelAddress",
          "type": "address"
        }
      ],
      "name": "updateAsset",
      "outputs": [],
      "payable": false,
      "stateMutability": "nonpayable",
      "type": "function"
    },
    {
      "constant": false,
      "inputs": [
        {
          "name": "newConfig",
          "type": "bytes32"
        }
      ],
      "name": "updateDiscountConfig",
      "outputs": [],
      "payable": false,
      "stateMutability": "nonpayable",
      "type": "function"
    },
    {
      "constant": false,
      "inputs": [
        {
          "name": "newInitiatorRewardRatio",
          "type": "uint256"
        }
      ],
      "name": "updateAuctionInitiatorRewardRatio",
      "outputs": [],
      "payable": false,
      "stateMutability": "nonpayable",
      "type": "function"
    },
    {
      "constant": false,
      "inputs": [
        {
          "name": "newInsuranceRatio",
          "type": "uint256"
        }
      ],
      "name": "updateInsuranceRatio",
      "outputs": [],
      "payable": false,
      "stateMutability": "nonpayable",
      "type": "function"
    }
  ],
  "bytecode": "0x60806040819052600080546001600160a01b03191633178082556001600160a01b0316917f8be0079c531659141344cd1fd0a4f28419497f9722a3daafe3b4186f6b6457e0908290a3610e67806100576000396000f3fe608060405234801561001057600080fd5b50600436106100b45760003560e01c80638f32d59b116100715780638f32d59b1461012d578063a6fc919114610142578063bb6d583814610155578063c747fcc014610168578063ddf1f0f41461017b578063f2fde38b1461018e576100b4565b806321028767146100b95780633b481b0a146100ce578063715018a6146100e1578063762a4862146100e957806386e4d973146100fc5780638da5cb5b1461010f575b600080fd5b6100cc6100c7366004610a0a565b6101a1565b005b6100cc6100dc3660046108d3565b61024d565b6100cc6102f9565b6100cc6100f7366004610886565b61036a565b6100cc61010a3660046109b2565b610407565b61011761049e565b6040516101249190610bcc565b60405180910390f35b6101356104ad565b6040516101249190610bda565b6100cc610150366004610994565b6104be565b6100cc610163366004610994565b610522565b6100cc610176366004610994565b610586565b6100cc6101893660046109d0565b6105ea565b6100cc61019c366004610860565b610684565b6101a96104ad565b6101d157604051600160e51b62461bcd0281526004016101c890610bf8565b60405180910390fd5b604051600160e01b63db9ad4c702815273__OperationsComponent___________________9063db9ad4c7906102169060019089908990899089908990600401610d26565b60006040518083038186803b15801561022e57600080fd5b505af4158015610242573d6000803e3d6000fd5b505050505050505050565b6102556104ad565b61027457604051600160e51b62461bcd0281526004016101c890610bf8565b604051600160e31b6313cafdf102815273__OperationsComponent___________________90639e57ef88906102bf906001908c908c908c908c908c908c908c908c90600401610c46565b60006040518083038186803b1580156102d757600080fd5b505af41580156102eb573d6000803e3d6000fd5b505050505050505050505050565b6103016104ad565b61032057604051600160e51b62461bcd0281526004016101c890610bf8565b600080546040516001600160a01b03909116907f8be0079c531659141344cd1fd0a4f28419497f9722a3daafe3b4186f6b6457e0908390a3600080546001600160a01b0319169055565b6103726104ad565b61039157604051600160e51b62461bcd0281526004016101c890610bf8565b604051600160e01b632241a75b02815273__OperationsComponent___________________90632241a75b906103d290600190879087908790600401610c08565b60006040518083038186803b1580156103ea57600080fd5b505af41580156103fe573d6000803e3d6000fd5b50505050505050565b61040f6104ad565b61042e57604051600160e51b62461bcd0281526004016101c890610bf8565b604051600160e11b630893a49102815273__OperationsComponent___________________9063112749229061046b906001908590600401610ce2565b60006040518083038186803b15801561048357600080fd5b505af4158015610497573d6000803e3d6000fd5b5050505050565b6000546001600160a01b031690565b6000546001600160a01b0316331490565b6104c66104ad565b6104e557604051600160e51b62461bcd0281526004016101c890610bf8565b604051600160e01b63fd9dbeeb02815273__OperationsComponent___________________9063fd9dbeeb9061046b906001908590600401610cc0565b61052a6104ad565b61054957604051600160e51b62461bcd0281526004016101c890610bf8565b604051600160e01b63e78e90d702815273__OperationsComponent___________________9063e78e90d79061046b906001908590600401610cc0565b61058e6104ad565b6105ad57604051600160e51b62461bcd0281526004016101c890610bf8565b604051600160e01b635b23795502815273__OperationsComponent___________________90635b2379559061046b906001908590600401610cc0565b6105f26104ad565b61061157604051600160e51b62461bcd0281526004016101c890610bf8565b604051600160e01b637fd4687102815273__OperationsComponent___________________90637fd46871906106509060019086908690600401610cfe565b60006040518083038186803b15801561066857600080fd5b505af415801561067c573d6000803e3d6000fd5b505050505050565b61068c6104ad565b6106ab57604051600160e51b62461bcd0281526004016101c890610bf8565b6001600160a01b0381166106d457604051600160e51b62461bcd0281526004016101c890610be8565b600080546040516001600160a01b03808516939216917f8be0079c531659141344cd1fd0a4f28419497f9722a3daafe3b4186f6b6457e091a3600080546001600160a01b0319166001600160a01b0392909216919091179055565b803561073a81610df2565b92915050565b803561073a81610e09565b803561073a81610e12565b60008083601f84011261076857600080fd5b50813567ffffffffffffffff81111561078057600080fd5b60208301915083600182028301111561079857600080fd5b9250929050565b600060e082840312156107b157600080fd5b6107bb60e0610d80565b905060006107c9848461072f565b82525060206107da8484830161072f565b60208301525060406107ee8482850161074b565b60408301525060606108028482850161074b565b60608301525060806108168482850161074b565b60808301525060a061082a8482850161074b565b60a08301525060c061083e84828501610740565b60c08301525092915050565b803561073a81610e1b565b803561073a81610e24565b60006020828403121561087257600080fd5b600061087e848461072f565b949350505050565b60008060006060848603121561089b57600080fd5b60006108a7868661072f565b93505060206108b88682870161072f565b92505060406108c98682870161072f565b9150509250925092565b60008060008060008060008060c0898b0312156108ef57600080fd5b60006108fb8b8b61072f565b985050602061090c8b828c0161072f565b975050604061091d8b828c0161072f565b965050606089013567ffffffffffffffff81111561093a57600080fd5b6109468b828c01610756565b9550955050608089013567ffffffffffffffff81111561096557600080fd5b6109718b828c01610756565b935093505060a06109848b828c01610855565b9150509295985092959890939650565b6000602082840312156109a657600080fd5b600061087e848461074b565b600060e082840312156109c457600080fd5b600061087e848461079f565b600080604083850312156109e357600080fd5b60006109ef858561084a565b9250506020610a0085828601610740565b9150509250929050565b600080600080600060a08688031215610a2257600080fd5b6000610a2e888861084a565b9550506020610a3f8882890161074b565b9450506040610a508882890161074b565b9350506060610a618882890161074b565b9250506080610a728882890161074b565b9150509295509295909350565b610a8881610db0565b82525050565b610a8881610dbb565b610a8881610dc0565b6000610aac8385610da7565b9350610ab9838584610ddc565b610ac283610de8565b9093019392505050565b6000610ad9600d83610da7565b7f494e56414c49445f4f574e455200000000000000000000000000000000000000815260200192915050565b6000610b12600983610da7565b600160b91b682727aa2fa7aba722a902815260200192915050565b805160e0830190610b3e8482610a7f565b506020820151610b516020850182610a7f565b506040820151610b646040850182610a97565b506060820151610b776060850182610a97565b506080820151610b8a6080850182610a97565b5060a0820151610b9d60a0850182610a97565b5060c0820151610bb060c0850182610a8e565b50505050565b9052565b610a8881610dc3565b610a8881610dd6565b6020810161073a8284610a7f565b6020810161073a8284610a8e565b6020808252810161073a81610acc565b6020808252810161073a81610b05565b60808101610c168287610bb6565b610c236020830186610a7f565b610c306040830185610a7f565b610c3d6060830184610a7f565b95945050505050565b60e08101610c54828c610bb6565b610c61602083018b610a7f565b610c6e604083018a610a7f565b610c7b6060830189610a7f565b8181036080830152610c8e818789610aa0565b905081810360a0830152610ca3818587610aa0565b9050610cb260c0830184610bc3565b9a9950505050505050505050565b60408101610cce8285610bb6565b610cdb6020830184610a97565b9392505050565b6101008101610cf18285610bb6565b610cdb6020830184610b2d565b60608101610d0c8286610bb6565b610d196020830185610bba565b61087e6040830184610a8e565b60c08101610d348289610bb6565b610d416020830188610bba565b610d4e6040830187610a97565b610d5b6060830186610a97565b610d686080830185610a97565b610d7560a0830184610a97565b979650505050505050565b60405181810167ffffffffffffffff81118282101715610d9f57600080fd5b604052919050565b90815260200190565b600061073a82610dca565b151590565b90565b61ffff1690565b6001600160a01b031690565b60ff1690565b82818337506000910152565b601f01601f191690565b610dfb81610db0565b8114610e0657600080fd5b50565b610dfb81610dbb565b610dfb81610dc0565b610dfb81610dc3565b610dfb81610dd656fea265627a7a72305820a99682479a2cb912b021cc5891e13123d4ad38c2c66c735830c24d6062022f926c6578706572696d656e74616cf50037",
  "source": "/*\n\n    Copyright 2019 The BitFinance Protocol\n\n    Licensed under the Apache License, Version 2.0 (the \"License\");\n    you may not use this file except in compliance with the License.\n    You may obtain a copy of the License at\n\n        http://www.apache.org/licenses/LICENSE-2.0\n\n    Unless required by applicable law or agreed to in writing, software\n    distributed under the License is distributed on an \"AS IS\" BASIS,\n    WITHOUT WARRANTIES OR CONDITIONS OF ANY KIND, either express or implied.\n    See the License for the specific language governing permissions and\n    limitations under the License.\n\n*/\n\npragma solidity ^0.5.8;\npragma experimental ABIEncoderV2;\n\nimport \"./GlobalStore.sol\";\nimport \"./lib/Ownable.sol\";\nimport \"./lib/Types.sol\";\nimport \"./components/OperationsComponent.sol\";\n\n/**\n * Admin operations\n */\ncontract Operations is Ownable, GlobalStore {\n\n    function createMarket(\n        Types.Market memory market\n    )\n        public\n        onlyOwner\n    {\n        OperationsComponent.createMarket(state, market);\n    }\n\n    function updateMarket(\n        uint16 marketID,\n        uint256 newAuctionRatioStart,\n        uint256 newAuctionRatioPerBlock,\n        uint256 newLiquidateRate,\n        uint256 newWithdrawRate\n    )\n        external\n        onlyOwner\n    {\n        OperationsComponent.updateMarket(\n            state,\n            marketID,\n            newAuctionRatioStart,\n            newAuctionRatioPerBlock,\n            newLiquidateRate,\n            newWithdrawRate\n        );\n    }\n\n    function setMarketBorrowUsability(\n        uint16 marketID,\n        bool   usability\n    )\n        external\n        onlyOwner\n    {\n        OperationsComponent.setMarketBorrowUsability(\n            state,\n            marketID,\n            usability\n        );\n    }\n\n    function createAsset(\n        address asset,\n        address oracleAddress,\n        address interestModelAddress,\n        string calldata poolTokenName,\n        string calldata poolTokenSymbol,\n        uint8 poolTokenDecimals\n    )\n        external\n        onlyOwner\n    {\n        OperationsComponent.createAsset(\n            state,\n            asset,\n            oracleAddress,\n            interestModelAddress,\n            poolTokenName,\n            poolTokenSymbol,\n            poolTokenDecimals\n        );\n    }\n\n    function updateAsset(\n        address asset,\n        address oracleAddress,\n        address interestModelAddress\n    )\n        external\n        onlyOwner\n    {\n        OperationsComponent.updateAsset(\n            state,\n            asset,\n            oracleAddress,\n            interestModelAddress\n        );\n    }\n\n    /**\n     * @param newConfig A data blob representing the new discount config. Details on format above.\n     */\n    function updateDiscountConfig(\n        bytes32 newConfig\n    )\n        external\n        onlyOwner\n    {\n        OperationsComponent.updateDiscountConfig(\n            state,\n            newConfig\n        );\n    }\n\n    function updateAuctionInitiatorRewardRatio(\n        uint256 newInitiatorRewardRatio\n    )\n        external\n        onlyOwner\n    {\n        OperationsComponent.updateAuctionInitiatorRewardRatio(\n            state,\n            newInitiatorRewardRatio\n        );\n    }\n\n    function updateInsuranceRatio(\n        uint256 newInsuranceRatio\n    )\n        external\n        onlyOwner\n    {\n        OperationsComponent.updateInsuranceRatio(\n            state,\n            newInsuranceRatio\n        );\n    }\n}",
  "sourcePath": "/Users/mikovainio/WebstormProjects/bitfinance-protocol/contracts/Operations.sol",
  "compiler": {
    "name": "solc",
    "version": "0.5.8+commit.23d335f2.Emscripten.clang"
  },
  "schemaVersion": "3.0.11",
  "updatedAt": "2020-03-02T16:59:53.041Z",
  "devdoc": {
    "methods": {
      "isOwner()": {
        "return": "true if `msg.sender` is the owner of the contract. "
      },
      "owner()": {
        "return": "the address of the owner. "
      },
      "renounceOwnership()": {
        "details": "Allows the current owner to relinquish control of the contract."
      },
      "transferOwnership(address)": {
        "details": "Allows the current owner to transfer control of the contract to a newOwner.",
        "params": {
          "newOwner": "The address to transfer ownership to."
        }
      },
      "updateDiscountConfig(bytes32)": {
        "params": {
          "newConfig": "A data blob representing the new discount config. Details on format above."
        }
      }
    }
  },
  "userdoc": {
    "methods": {
      "renounceOwnership()": {
        "notice": "Renouncing to ownership will leave the contract without an owner. It will not be possible to call the functions with the `onlyOwner` modifier anymore."
      }
    },
    "notice": "Admin operations"
  }
}