{
  "contractName": "PriceOracle",
  "abi": [
    {
      "constant": true,
      "inputs": [
        {
          "name": "",
          "type": "address"
        }
      ],
      "name": "tokenPrices",
      "outputs": [
        {
          "name": "",
          "type": "uint256"
        }
      ],
      "payable": false,
      "stateMutability": "view",
      "type": "function"
    },
    {
      "constant": false,
      "inputs": [],
      "name": "renounceOwnership",
      "outputs": [],
      "payable": false,
      "stateMutability": "nonpayable",
      "type": "function"
    },
    {
      "constant": true,
      "inputs": [],
      "name": "owner",
      "outputs": [
        {
          "name": "",
          "type": "address"
        }
      ],
      "payable": false,
      "stateMutability": "view",
      "type": "function"
    },
    {
      "constant": true,
      "inputs": [],
      "name": "isOwner",
      "outputs": [
        {
          "name": "",
          "type": "bool"
        }
      ],
      "payable": false,
      "stateMutability": "view",
      "type": "function"
    },
    {
      "constant": false,
      "inputs": [
        {
          "name": "newOwner",
          "type": "address"
        }
      ],
      "name": "transferOwnership",
      "outputs": [],
      "payable": false,
      "stateMutability": "nonpayable",
      "type": "function"
    },
    {
      "anonymous": false,
      "inputs": [
        {
          "indexed": true,
          "name": "previousOwner",
          "type": "address"
        },
        {
          "indexed": true,
          "name": "newOwner",
          "type": "address"
        }
      ],
      "name": "OwnershipTransferred",
      "type": "event"
    },
    {
      "constant": false,
      "inputs": [
        {
          "name": "asset",
          "type": "address"
        },
        {
          "name": "price",
          "type": "uint256"
        }
      ],
      "name": "setPrice",
      "outputs": [],
      "payable": false,
      "stateMutability": "nonpayable",
      "type": "function"
    },
    {
      "constant": true,
      "inputs": [
        {
          "name": "asset",
          "type": "address"
        }
      ],
      "name": "getPrice",
      "outputs": [
        {
          "name": "",
          "type": "uint256"
        }
      ],
      "payable": false,
      "stateMutability": "view",
      "type": "function"
    }
  ],
  "bytecode": "0x60806040819052600080546001600160a01b03191633178082556001600160a01b0316917f8be0079c531659141344cd1fd0a4f28419497f9722a3daafe3b4186f6b6457e0908290a3610496806100576000396000f3fe608060405234801561001057600080fd5b506004361061007c5760003560e01c8063715018a61161005b578063715018a6146100d25780638da5cb5b146100da5780638f32d59b146100ef578063f2fde38b146101045761007c565b8062e4768b14610081578063204120bc1461009657806341976e09146100bf575b600080fd5b61009461008f36600461030e565b610117565b005b6100a96100a43660046102e8565b610163565b6040516100b69190610406565b60405180910390f35b6100a96100cd3660046102e8565b610175565b610094610190565b6100e2610201565b6040516100b691906103ca565b6100f7610210565b6040516100b691906103d8565b6100946101123660046102e8565b610221565b61011f610210565b61014757604051600160e51b62461bcd02815260040161013e906103f6565b60405180910390fd5b6001600160a01b03909116600090815260016020526040902055565b60016020526000908152604090205481565b6001600160a01b031660009081526001602052604090205490565b610198610210565b6101b757604051600160e51b62461bcd02815260040161013e906103f6565b600080546040516001600160a01b03909116907f8be0079c531659141344cd1fd0a4f28419497f9722a3daafe3b4186f6b6457e0908390a3600080546001600160a01b0319169055565b6000546001600160a01b031690565b6000546001600160a01b0316331490565b610229610210565b61024857604051600160e51b62461bcd02815260040161013e906103f6565b6001600160a01b03811661027157604051600160e51b62461bcd02815260040161013e906103e6565b600080546040516001600160a01b03808516939216917f8be0079c531659141344cd1fd0a4f28419497f9722a3daafe3b4186f6b6457e091a3600080546001600160a01b0319166001600160a01b0392909216919091179055565b80356102d78161043c565b92915050565b80356102d781610453565b6000602082840312156102fa57600080fd5b600061030684846102cc565b949350505050565b6000806040838503121561032157600080fd5b600061032d85856102cc565b925050602061033e858286016102dd565b9150509250929050565b6103518161041d565b82525050565b61035181610428565b600061036d600d83610414565b7f494e56414c49445f4f574e455200000000000000000000000000000000000000815260200192915050565b60006103a6600983610414565b600160b91b682727aa2fa7aba722a902815260200192915050565b61035181610439565b602081016102d78284610348565b602081016102d78284610357565b602080825281016102d781610360565b602080825281016102d781610399565b602081016102d782846103c1565b90815260200190565b60006102d78261042d565b151590565b6001600160a01b031690565b90565b6104458161041d565b811461045057600080fd5b50565b6104458161043956fea265627a7a7230582078a31f449b6b9d53b7db7d7eb3f80a6e2f68991aa46717b00c0b9dc2175ede6a6c6578706572696d656e74616cf50037",
  "source": "/*\n\n    Copyright 2019 The BitFinance Protocol\n\n    Licensed under the Apache License, Version 2.0 (the \"License\");\n    you may not use this file except in compliance with the License.\n    You may obtain a copy of the License at\n\n        http://www.apache.org/licenses/LICENSE-2.0\n\n    Unless required by applicable law or agreed to in writing, software\n    distributed under the License is distributed on an \"AS IS\" BASIS,\n    WITHOUT WARRANTIES OR CONDITIONS OF ANY KIND, either express or implied.\n    See the License for the specific language governing permissions and\n    limitations under the License.\n\n*/\n\npragma solidity ^0.5.8;\npragma experimental ABIEncoderV2;\n\nimport \"../lib/Ownable.sol\";\n\n/**\n * A simple static oracle for test purpose.\n */\ncontract PriceOracle is Ownable {\n\n    // token price to ether price\n    mapping(address => uint256) public tokenPrices;\n\n    // price decimals is 18\n    function setPrice(\n        address asset,\n        uint256 price\n    ) external onlyOwner {\n        tokenPrices[asset] = price;\n    }\n\n    function getPrice(\n        address asset\n    )\n        external\n        view\n        returns (uint256)\n    {\n        return tokenPrices[asset];\n    }\n}",
  "sourcePath": "/Users/mikovainio/WebstormProjects/bitfinance-protocol/contracts/helper/PriceOracle.sol",
  "compiler": {
    "name": "solc",
    "version": "0.5.8+commit.23d335f2.Emscripten.clang"
  },
  "schemaVersion": "3.0.11",
  "updatedAt": "2020-03-02T16:59:53.297Z",
  "devdoc": {
    "methods": {
      "isOwner()": {
        "return": "true if `msg.sender` is the owner of the contract. "
      },
      "owner()": {
        "return": "the address of the owner. "
      },
      "renounceOwnership()": {
        "details": "Allows the current owner to relinquish control of the contract."
      },
      "transferOwnership(address)": {
        "details": "Allows the current owner to transfer control of the contract to a newOwner.",
        "params": {
          "newOwner": "The address to transfer ownership to."
        }
      }
    }
  },
  "userdoc": {
    "methods": {
      "renounceOwnership()": {
        "notice": "Renouncing to ownership will leave the contract without an owner. It will not be possible to call the functions with the `onlyOwner` modifier anymore."
      }
    },
    "notice": "A simple static oracle for test purpose."
  }
}