{
  "contractName": "PriceOracleProxy",
  "abi": [
    {
      "constant": true,
      "inputs": [],
      "name": "sourceAssetAddress",
      "outputs": [
        {
          "name": "",
          "type": "address"
        }
      ],
      "payable": false,
      "stateMutability": "view",
      "type": "function"
    },
    {
      "constant": true,
      "inputs": [],
      "name": "asset",
      "outputs": [
        {
          "name": "",
          "type": "address"
        }
      ],
      "payable": false,
      "stateMutability": "view",
      "type": "function"
    },
    {
      "constant": true,
      "inputs": [],
      "name": "decimal",
      "outputs": [
        {
          "name": "",
          "type": "uint256"
        }
      ],
      "payable": false,
      "stateMutability": "view",
      "type": "function"
    },
    {
      "constant": true,
      "inputs": [],
      "name": "sourceOracleAddress",
      "outputs": [
        {
          "name": "",
          "type": "address"
        }
      ],
      "payable": false,
      "stateMutability": "view",
      "type": "function"
    },
    {
      "constant": true,
      "inputs": [],
      "name": "sourceAssetDecimal",
      "outputs": [
        {
          "name": "",
          "type": "uint256"
        }
      ],
      "payable": false,
      "stateMutability": "view",
      "type": "function"
    },
    {
      "inputs": [
        {
          "name": "_asset",
          "type": "address"
        },
        {
          "name": "_decimal",
          "type": "uint256"
        },
        {
          "name": "_sourceOracleAddress",
          "type": "address"
        },
        {
          "name": "_sourceAssetAddress",
          "type": "address"
        },
        {
          "name": "_sourceAssetDecimal",
          "type": "uint256"
        }
      ],
      "payable": false,
      "stateMutability": "nonpayable",
      "type": "constructor"
    },
    {
      "constant": true,
      "inputs": [
        {
          "name": "_asset",
          "type": "address"
        }
      ],
      "name": "getPrice",
      "outputs": [
        {
          "name": "",
          "type": "uint256"
        }
      ],
      "payable": false,
      "stateMutability": "view",
      "type": "function"
    },
    {
      "constant": true,
      "inputs": [],
      "name": "getCurrentPrice",
      "outputs": [
        {
          "name": "",
          "type": "uint256"
        }
      ],
      "payable": false,
      "stateMutability": "view",
      "type": "function"
    }
  ],
  "bytecode": "0x608060405234801561001057600080fd5b5060405160a0806105e4833981018060405261002f9190810190610097565b600080546001600160a01b03199081166001600160a01b039788161790915560019490945560028054851693861693909317909255600380549093169316929092179055600455610140565b805161008681610120565b92915050565b805161008681610137565b600080600080600060a086880312156100af57600080fd5b60006100bb888861007b565b95505060206100cc8882890161008c565b94505060406100dd8882890161007b565b93505060606100ee8882890161007b565b92505060806100ff8882890161008c565b9150509295509295909350565b60006001600160a01b038216610086565b90565b6101298161010c565b811461013457600080fd5b50565b6101298161011d565b6104958061014f6000396000f3fe608060405234801561001057600080fd5b506004361061007d5760003560e01c806376809ce31161005b57806376809ce3146100c8578063c70cdcfa146100d0578063eb91d37e146100d8578063ff865ec8146100e05761007d565b80630a9d5a381461008257806338d52e0f146100a057806341976e09146100a8575b600080fd5b61008a6100e8565b60405161009791906103d2565b60405180910390f35b61008a6100f7565b6100bb6100b63660046102dc565b610106565b6040516100979190610410565b6100bb61014e565b61008a610154565b6100bb610163565b6100bb610172565b6003546001600160a01b031681565b6000546001600160a01b031681565b600080546001600160a01b0383811691161461014057604051600160e51b62461bcd028152600401610137906103e0565b60405180910390fd5b610148610178565b92915050565b60015481565b6002546001600160a01b031681565b600061016d610178565b905090565b60045481565b600254600354604051600160e01b6341976e0902815260009283926001600160a01b03918216926341976e09926101b39216906004016103d2565b60206040518083038186803b1580156101cb57600080fd5b505afa1580156101df573d6000803e3d6000fd5b505050506040513d601f19601f820116820180604052506102039190810190610302565b9050600454600154106102325760045460015461022b91839103600a0a63ffffffff61024d16565b905061016d565b60015460045461014891839103600a0a63ffffffff61028216565b600080821161027157604051600160e51b62461bcd028152600401610137906103f0565b81838161027a57fe5b049392505050565b60008261029157506000610148565b8282028284828161029e57fe5b04146102bf57604051600160e51b62461bcd02815260040161013790610400565b9392505050565b80356101488161043b565b805161014881610452565b6000602082840312156102ee57600080fd5b60006102fa84846102c6565b949350505050565b60006020828403121561031457600080fd5b60006102fa84846102d1565b61032981610427565b82525050565b600061033c600f8361041e565b7f41535345545f4e4f545f4d415443480000000000000000000000000000000000815260200192915050565b6000610375600e8361041e565b7f4449564944494e475f4552524f52000000000000000000000000000000000000815260200192915050565b60006103ae60098361041e565b600160b91b6826aaa62fa2a92927a902815260200192915050565b61032981610438565b602081016101488284610320565b602080825281016101488161032f565b6020808252810161014881610368565b60208082528101610148816103a1565b6020810161014882846103c9565b90815260200190565b60006001600160a01b038216610148565b90565b61044481610427565b811461044f57600080fd5b50565b6104448161043856fea265627a7a72305820d54651fb9506e71b065dbe9bd5ef8686e1fbe865c5ec0558813500abc9d034a66c6578706572696d656e74616cf50037",
  "source": "/*\n\n    Copyright 2019 The BitFinance Protocol\n\n    Licensed under the Apache License, Version 2.0 (the \"License\");\n    you may not use this file except in compliance with the License.\n    You may obtain a copy of the License at\n\n        http://www.apache.org/licenses/LICENSE-2.0\n\n    Unless required by applicable law or agreed to in writing, software\n    distributed under the License is distributed on an \"AS IS\" BASIS,\n    WITHOUT WARRANTIES OR CONDITIONS OF ANY KIND, either express or implied.\n    See the License for the specific language governing permissions and\n    limitations under the License.\n\n*/\n\npragma solidity ^0.5.8;\npragma experimental ABIEncoderV2;\n\nimport \"../interfaces/IPriceOracle.sol\";\nimport \"../lib/SafeMath.sol\";\n\ncontract PriceOracleProxy {\n    using SafeMath for uint256;\n\n    address public asset;\n    uint256 public decimal;\n    address public sourceOracleAddress;\n    address public sourceAssetAddress;\n    uint256 public sourceAssetDecimal;\n\n    constructor (\n        address _asset,\n        uint256 _decimal,\n        address _sourceOracleAddress,\n        address _sourceAssetAddress,\n        uint256 _sourceAssetDecimal\n    )\n        public\n    {\n        asset = _asset;\n        decimal = _decimal;\n        sourceOracleAddress = _sourceOracleAddress;\n        sourceAssetAddress = _sourceAssetAddress;\n        sourceAssetDecimal = _sourceAssetDecimal;\n    }\n\n    function _getPrice()\n        internal\n        view\n        returns (uint256)\n    {\n        uint256 price = IPriceOracle(sourceOracleAddress).getPrice(sourceAssetAddress);\n\n        if (decimal >= sourceAssetDecimal) {\n            price = price.div(10 ** (decimal - sourceAssetDecimal));\n        } else {\n            price = price.mul(10 ** (sourceAssetDecimal - decimal));\n        }\n\n        return price;\n    }\n\n    function getPrice(\n        address _asset\n    )\n        external\n        view\n        returns (uint256)\n    {\n        require(_asset == asset, \"ASSET_NOT_MATCH\");\n        return _getPrice();\n    }\n\n    function getCurrentPrice()\n        external\n        view\n        returns (uint256)\n    {\n        return _getPrice();\n    }\n}",
  "sourcePath": "/Users/mikovainio/WebstormProjects/bitfinance-protocol/contracts/oracle/PriceOracleProxy.sol",
  "compiler": {
    "name": "solc",
    "version": "0.5.8+commit.23d335f2.Emscripten.clang"
  },
  "schemaVersion": "3.0.11",
  "updatedAt": "2020-03-02T16:59:53.641Z",
  "devdoc": {
    "methods": {}
  },
  "userdoc": {
    "methods": {}
  }
}