{
  "contractName": "StableCoinInterestModel",
  "abi": [
    {
      "constant": true,
      "inputs": [
        {
          "name": "borrowRatio",
          "type": "uint256"
        }
      ],
      "name": "polynomialInterestModel",
      "outputs": [
        {
          "name": "",
          "type": "uint256"
        }
      ],
      "payable": false,
      "stateMutability": "pure",
      "type": "function"
    }
  ],
  "bytecode": "0x608060405234801561001057600080fd5b50610164806100206000396000f3fe608060405234801561001057600080fd5b506004361061002b5760003560e01c806369e8a15f14610030575b600080fd5b61004361003e3660046100cd565b610059565b6040516100509190610102565b60405180910390f35b600080670de0b6b3a76400008311610071578261007b565b670de0b6b3a76400005b66b1a2bc2ec500006064670de0b6b3a764000092800283900480028390048080029390930460370204600a6004939093029290920491909101019392505050565b80356100c781610113565b92915050565b6000602082840312156100df57600080fd5b60006100eb84846100bc565b949350505050565b6100fc81610110565b82525050565b602081016100c782846100f3565b90565b61011c81610110565b811461012757600080fd5b5056fea265627a7a72305820432a09b7550bf7d0c37321595f64cd95458b80d894cf751f639ec78d3c6b0e856c6578706572696d656e74616cf50037",
  "source": "/*\n\n    Copyright 2019 The BitFinance Protocol\n\n    Licensed under the Apache License, Version 2.0 (the \"License\");\n    you may not use this file except in compliance with the License.\n    You may obtain a copy of the License at\n\n        http://www.apache.org/licenses/LICENSE-2.0\n\n    Unless required by applicable law or agreed to in writing, software\n    distributed under the License is distributed on an \"AS IS\" BASIS,\n    WITHOUT WARRANTIES OR CONDITIONS OF ANY KIND, either express or implied.\n    See the License for the specific language governing permissions and\n    limitations under the License.\n\n*/\n\npragma solidity ^0.5.8;\npragma experimental ABIEncoderV2;\n\ncontract StableCoinInterestModel {\n    uint256 constant BASE = 10**18;\n\n    /**\n     * @param borrowRatio a decimal with 18 decimals\n     */\n    function polynomialInterestModel(uint256 borrowRatio) external pure returns(uint256) {\n        // 0.05 + 0.4 * r**4 + 0.55 * r**8\n\n        // the valid range of borrowRatio is [0, 1]\n\n        uint256 r = borrowRatio > BASE ? BASE : borrowRatio;\n        uint256 r2 = r * r / BASE;\n        uint256 r4 = r2 * r2 / BASE;\n        uint256 r8 = r4 * r4 / BASE;\n\n        return (5 * BASE / 100) + (4 * r4 / 10) + (55 * r8 / 100);\n    }\n}",
  "sourcePath": "/Users/mikovainio/WebstormProjects/bitfinance-protocol/contracts/funding/StableCoinInterestModel.sol",
  "compiler": {
    "name": "solc",
    "version": "0.5.8+commit.23d335f2.Emscripten.clang"
  },
  "schemaVersion": "3.0.11",
  "updatedAt": "2020-03-02T16:59:53.295Z",
  "devdoc": {
    "methods": {
      "polynomialInterestModel(uint256)": {
        "params": {
          "borrowRatio": "a decimal with 18 decimals"
        }
      }
    }
  },
  "userdoc": {
    "methods": {}
  }
}