{
  "contractName": "StandardToken",
  "abi": [
    {
      "anonymous": false,
      "inputs": [
        {
          "indexed": true,
          "name": "from",
          "type": "address"
        },
        {
          "indexed": true,
          "name": "to",
          "type": "address"
        },
        {
          "indexed": false,
          "name": "amount",
          "type": "uint256"
        }
      ],
      "name": "Transfer",
      "type": "event"
    },
    {
      "anonymous": false,
      "inputs": [
        {
          "indexed": true,
          "name": "owner",
          "type": "address"
        },
        {
          "indexed": true,
          "name": "spender",
          "type": "address"
        },
        {
          "indexed": false,
          "name": "amount",
          "type": "uint256"
        }
      ],
      "name": "Approval",
      "type": "event"
    },
    {
      "constant": false,
      "inputs": [
        {
          "name": "to",
          "type": "address"
        },
        {
          "name": "amount",
          "type": "uint256"
        }
      ],
      "name": "transfer",
      "outputs": [
        {
          "name": "",
          "type": "bool"
        }
      ],
      "payable": false,
      "stateMutability": "nonpayable",
      "type": "function"
    },
    {
      "constant": true,
      "inputs": [
        {
          "name": "owner",
          "type": "address"
        }
      ],
      "name": "balanceOf",
      "outputs": [
        {
          "name": "balance",
          "type": "uint256"
        }
      ],
      "payable": false,
      "stateMutability": "view",
      "type": "function"
    },
    {
      "constant": false,
      "inputs": [
        {
          "name": "from",
          "type": "address"
        },
        {
          "name": "to",
          "type": "address"
        },
        {
          "name": "amount",
          "type": "uint256"
        }
      ],
      "name": "transferFrom",
      "outputs": [
        {
          "name": "",
          "type": "bool"
        }
      ],
      "payable": false,
      "stateMutability": "nonpayable",
      "type": "function"
    },
    {
      "constant": false,
      "inputs": [
        {
          "name": "spender",
          "type": "address"
        },
        {
          "name": "amount",
          "type": "uint256"
        }
      ],
      "name": "approve",
      "outputs": [
        {
          "name": "",
          "type": "bool"
        }
      ],
      "payable": false,
      "stateMutability": "nonpayable",
      "type": "function"
    },
    {
      "constant": true,
      "inputs": [
        {
          "name": "owner",
          "type": "address"
        },
        {
          "name": "spender",
          "type": "address"
        }
      ],
      "name": "allowance",
      "outputs": [
        {
          "name": "",
          "type": "uint256"
        }
      ],
      "payable": false,
      "stateMutability": "view",
      "type": "function"
    }
  ],
  "bytecode": "0x608060405234801561001057600080fd5b50610699806100206000396000f3fe608060405234801561001057600080fd5b50600436106100575760003560e01c8063095ea7b31461005c57806323b872dd1461009c57806370a08231146100d2578063a9059cbb1461010a578063dd62ed3e14610136575b600080fd5b6100886004803603604081101561007257600080fd5b506001600160a01b038135169060200135610164565b604080519115158252519081900360200190f35b610088600480360360608110156100b257600080fd5b506001600160a01b038135811691602081013590911690604001356101ca565b6100f8600480360360208110156100e857600080fd5b50356001600160a01b0316610418565b60408051918252519081900360200190f35b6100886004803603604081101561012057600080fd5b506001600160a01b038135169060200135610433565b6100f86004803603604081101561014c57600080fd5b506001600160a01b03813581169160200135166105a0565b3360008181526001602090815260408083206001600160a01b038716808552908352818420869055815186815291519394909390927f8c5be1e5ebec7d5bd14f71427d1e84f3dd0314c0f7b2291e5b200ac8c7c3b925928290030190a350600192915050565b60006001600160a01b03831661022a5760408051600160e51b62461bcd02815260206004820152601360248201527f544f5f414444524553535f49535f454d50545900000000000000000000000000604482015290519081900360640190fd5b6001600160a01b0384166000908152602081905260409020548211156102925760408051600160e51b62461bcd0281526020600482015260126024820152600160731b710848298829c868abe9c9ea8be8a9c9eaa8e902604482015290519081900360640190fd5b6001600160a01b038416600090815260016020908152604080832033845290915290205482111561030d5760408051600160e51b62461bcd02815260206004820152601460248201527f414c4c4f57414e43455f4e4f545f454e4f554748000000000000000000000000604482015290519081900360640190fd5b6001600160a01b038416600090815260208190526040902054610336908363ffffffff6105cb16565b6001600160a01b03808616600090815260208190526040808220939093559085168152205461036b908363ffffffff61061a16565b6001600160a01b038085166000908152602081815260408083209490945591871681526001825282812033825290915220546103ad908363ffffffff6105cb16565b6001600160a01b03808616600081815260016020908152604080832033845282529182902094909455805186815290519287169391927fddf252ad1be2c89b69c2b068fc378daa952ba7f163c4a11628f55a4df523b3ef929181900390910190a35060019392505050565b6001600160a01b031660009081526020819052604090205490565b60006001600160a01b0383166104935760408051600160e51b62461bcd02815260206004820152601360248201527f544f5f414444524553535f49535f454d50545900000000000000000000000000604482015290519081900360640190fd5b336000908152602081905260409020548211156104f25760408051600160e51b62461bcd0281526020600482015260126024820152600160731b710848298829c868abe9c9ea8be8a9c9eaa8e902604482015290519081900360640190fd5b33600090815260208190526040902054610512908363ffffffff6105cb16565b33600090815260208190526040808220929092556001600160a01b03851681522054610544908363ffffffff61061a16565b6001600160a01b038416600081815260208181526040918290209390935580518581529051919233927fddf252ad1be2c89b69c2b068fc378daa952ba7f163c4a11628f55a4df523b3ef9281900390910190a350600192915050565b6001600160a01b03918216600090815260016020908152604080832093909416825291909152205490565b6000828211156106145760408051600160e51b62461bcd0281526020600482015260096024820152600160b91b6829aaa12fa2a92927a902604482015290519081900360640190fd5b50900390565b6000828201838110156106665760408051600160e51b62461bcd0281526020600482015260096024820152600160b91b6820a2222fa2a92927a902604482015290519081900360640190fd5b939250505056fea165627a7a72305820e4cf97acbcf896a2b0cade2d39b520cdbe5185d2d9dd863f5340f6bcb597430f0029",
  "source": "/*\n\n    Copyright 2019 The BitFinance Protocol\n\n    Licensed under the Apache License, Version 2.0 (the \"License\");\n    you may not use this file except in compliance with the License.\n    You may obtain a copy of the License at\n\n        http://www.apache.org/licenses/LICENSE-2.0\n\n    Unless required by applicable law or agreed to in writing, software\n    distributed under the License is distributed on an \"AS IS\" BASIS,\n    WITHOUT WARRANTIES OR CONDITIONS OF ANY KIND, either express or implied.\n    See the License for the specific language governing permissions and\n    limitations under the License.\n\n*/\n\npragma solidity 0.5.8;\n\nimport \"../lib/SafeMath.sol\";\n\n/**\n * Standard ERC20 token\n */\ncontract StandardToken {\n    using SafeMath for uint256;\n\n    mapping(address => uint256) balances;\n    mapping (address => mapping (address => uint256)) internal allowed;\n\n    event Transfer(address indexed from, address indexed to, uint256 amount);\n    event Approval(address indexed owner, address indexed spender, uint256 amount);\n\n    /**\n    * @dev transfer token for a specified address\n    * @param to The address to transfer to.\n    * @param amount The amount to be transferred.\n    */\n    function transfer(\n        address to,\n        uint256 amount\n    )\n        public\n        returns (bool)\n    {\n        require(to != address(0), \"TO_ADDRESS_IS_EMPTY\");\n        require(amount <= balances[msg.sender], \"BALANCE_NOT_ENOUGH\");\n\n        balances[msg.sender] = balances[msg.sender].sub(amount);\n        balances[to] = balances[to].add(amount);\n        emit Transfer(msg.sender, to, amount);\n        return true;\n    }\n\n    /**\n    * @dev Gets the balance of the specified address.\n    * @param owner The address to query the the balance of.\n    * @return An uint256 representing the amount owned by the passed address.\n    */\n    function balanceOf(address owner) public view returns (uint256 balance) {\n        return balances[owner];\n    }\n\n    /**\n    * @dev Transfer tokens from one address to another\n    * @param from address The address which you want to send tokens from\n    * @param to address The address which you want to transfer to\n    * @param amount uint256 the amount of tokens to be transferred\n    */\n    function transferFrom(\n        address from,\n        address to,\n        uint256 amount\n    )\n        public\n        returns (bool)\n    {\n        require(to != address(0), \"TO_ADDRESS_IS_EMPTY\");\n        require(amount <= balances[from], \"BALANCE_NOT_ENOUGH\");\n        require(amount <= allowed[from][msg.sender], \"ALLOWANCE_NOT_ENOUGH\");\n\n        balances[from] = balances[from].sub(amount);\n        balances[to] = balances[to].add(amount);\n        allowed[from][msg.sender] = allowed[from][msg.sender].sub(amount);\n        emit Transfer(from, to, amount);\n        return true;\n    }\n\n    /**\n    * @dev Approve the passed address to spend the specified amount of tokens on behalf of msg.sender.\n    * @param spender The address which will spend the funds.\n    * @param amount The amount of tokens to be spent.\n    */\n    function approve(\n        address spender,\n        uint256 amount\n    )\n        public\n        returns (bool)\n    {\n        allowed[msg.sender][spender] = amount;\n        emit Approval(msg.sender, spender, amount);\n        return true;\n    }\n\n    /**\n    * @dev Function to check the amount of tokens that an owner allowed to a spender.\n    * @param owner address The address which owns the funds.\n    * @param spender address The address which will spend the funds.\n    * @return A uint256 specifying the amount of tokens still available for the spender.\n    */\n    function allowance(\n        address owner,\n        address spender\n    )\n        public\n        view\n        returns (uint256)\n    {\n        return allowed[owner][spender];\n    }\n}",
  "sourcePath": "/Users/mikovainio/WebstormProjects/bitfinance-protocol/contracts/helper/StandardToken.sol",
  "compiler": {
    "name": "solc",
    "version": "0.5.8+commit.23d335f2.Emscripten.clang"
  },
  "schemaVersion": "3.0.11",
  "updatedAt": "2020-03-02T16:59:53.298Z",
  "devdoc": {
    "methods": {
      "allowance(address,address)": {
        "details": "Function to check the amount of tokens that an owner allowed to a spender.",
        "params": {
          "owner": "address The address which owns the funds.",
          "spender": "address The address which will spend the funds."
        },
        "return": "A uint256 specifying the amount of tokens still available for the spender."
      },
      "approve(address,uint256)": {
        "details": "Approve the passed address to spend the specified amount of tokens on behalf of msg.sender.",
        "params": {
          "amount": "The amount of tokens to be spent.",
          "spender": "The address which will spend the funds."
        }
      },
      "balanceOf(address)": {
        "details": "Gets the balance of the specified address.",
        "params": {
          "owner": "The address to query the the balance of."
        },
        "return": "An uint256 representing the amount owned by the passed address."
      },
      "transfer(address,uint256)": {
        "details": "transfer token for a specified address",
        "params": {
          "amount": "The amount to be transferred.",
          "to": "The address to transfer to."
        }
      },
      "transferFrom(address,address,uint256)": {
        "details": "Transfer tokens from one address to another",
        "params": {
          "amount": "uint256 the amount of tokens to be transferred",
          "from": "address The address which you want to send tokens from",
          "to": "address The address which you want to transfer to"
        }
      }
    }
  },
  "userdoc": {
    "methods": {},
    "notice": "Standard ERC20 token"
  }
}