{
  "contractName": "TestMath",
  "abi": [
    {
      "constant": true,
      "inputs": [
        {
          "name": "a",
          "type": "uint256"
        },
        {
          "name": "b",
          "type": "uint256"
        },
        {
          "name": "c",
          "type": "uint256"
        }
      ],
      "name": "isRoundingError",
      "outputs": [
        {
          "name": "",
          "type": "bool"
        }
      ],
      "payable": false,
      "stateMutability": "pure",
      "type": "function"
    },
    {
      "constant": true,
      "inputs": [
        {
          "name": "a",
          "type": "uint256"
        },
        {
          "name": "b",
          "type": "uint256"
        },
        {
          "name": "c",
          "type": "uint256"
        }
      ],
      "name": "getPartialAmountFloor",
      "outputs": [
        {
          "name": "",
          "type": "uint256"
        }
      ],
      "payable": false,
      "stateMutability": "pure",
      "type": "function"
    },
    {
      "constant": true,
      "inputs": [
        {
          "name": "a",
          "type": "uint256"
        },
        {
          "name": "b",
          "type": "uint256"
        }
      ],
      "name": "min",
      "outputs": [
        {
          "name": "",
          "type": "uint256"
        }
      ],
      "payable": false,
      "stateMutability": "pure",
      "type": "function"
    }
  ],
  "bytecode": "0x608060405234801561001057600080fd5b50610325806100206000396000f3fe608060405234801561001057600080fd5b50600436106100415760003560e01c806314df96ee14610046578063422752bf146100835780637ae2b5c7146100be575b600080fd5b61006f6004803603606081101561005c57600080fd5b50803590602081013590604001356100e1565b604080519115158252519081900360200190f35b6100ac6004803603606081101561009957600080fd5b50803590602081013590604001356100f6565b60408051918252519081900360200190f35b6100ac600480360360408110156100d457600080fd5b5080359060200135610103565b60006100ee848484610118565b949350505050565b60006100ee84848461014c565b600061010f83836101c1565b90505b92915050565b600061012484836101d7565b61014261013a61013487866101d7565b86610238565b6103e86101d7565b1015949350505050565b6000610159848484610118565b156101ae5760408051600160e51b62461bcd02815260206004820152600e60248201527f524f554e44494e475f4552524f52000000000000000000000000000000000000604482015290519081900360640190fd5b6100ee6101bb85846101d7565b8461028f565b60008183106101d0578161010f565b5090919050565b6000826101e657506000610112565b828202828482816101f357fe5b041461010f5760408051600160e51b62461bcd0281526020600482015260096024820152600160b91b6826aaa62fa2a92927a902604482015290519081900360640190fd5b60008161027e5760408051600160e51b62461bcd0281526020600482015260096024820152600160b91b6826a7a22fa2a92927a902604482015290519081900360640190fd5b81838161028757fe5b069392505050565b60008082116102e85760408051600160e51b62461bcd02815260206004820152600e60248201527f4449564944494e475f4552524f52000000000000000000000000000000000000604482015290519081900360640190fd5b8183816102f157fe5b04939250505056fea165627a7a723058202d6c7f8ceeccac100f73acb8add1cd8fef974d7cb11840c771d113ec215c90660029",
  "source": "/*\n\n    Copyright 2019 The BitFinance Protocol\n\n    Licensed under the Apache License, Version 2.0 (the \"License\");\n    you may not use this file except in compliance with the License.\n    You may obtain a copy of the License at\n\n        http://www.apache.org/licenses/LICENSE-2.0\n\n    Unless required by applicable law or agreed to in writing, software\n    distributed under the License is distributed on an \"AS IS\" BASIS,\n    WITHOUT WARRANTIES OR CONDITIONS OF ANY KIND, either express or implied.\n    See the License for the specific language governing permissions and\n    limitations under the License.\n\n*/\n\npragma solidity 0.5.8;\n\nimport \"../lib/SafeMath.sol\";\n\n/**\n * Test wrapper\n */\ncontract TestMath {\n    function isRoundingError(\n        uint256 a,\n        uint256 b,\n        uint256 c\n    )\n        public\n        pure\n        returns (bool)\n    {\n        return SafeMath.isRoundingError(a, b, c);\n    }\n\n    function getPartialAmountFloor(\n        uint256 a,\n        uint256 b,\n        uint256 c\n    )\n        public\n        pure\n        returns (uint256)\n    {\n        return SafeMath.getPartialAmountFloor(a, b, c);\n    }\n\n    function min(\n        uint256 a,\n        uint256 b\n    )\n        public\n        pure\n        returns (uint256)\n    {\n        return SafeMath.min(a, b);\n    }\n}",
  "sourcePath": "/Users/mikovainio/WebstormProjects/bitfinance-protocol/contracts/helper/TestMath.sol",
  "compiler": {
    "name": "solc",
    "version": "0.5.8+commit.23d335f2.Emscripten.clang"
  },
  "schemaVersion": "3.0.11",
  "updatedAt": "2020-03-02T16:59:53.311Z",
  "devdoc": {
    "methods": {}
  },
  "userdoc": {
    "methods": {},
    "notice": "Test wrapper"
  }
}