{
  "contractName": "TestSafeERC20",
  "abi": [
    {
      "constant": true,
      "inputs": [],
      "name": "tokenAddress",
      "outputs": [
        {
          "name": "",
          "type": "address"
        }
      ],
      "payable": false,
      "stateMutability": "view",
      "type": "function"
    },
    {
      "inputs": [],
      "payable": false,
      "stateMutability": "nonpayable",
      "type": "constructor"
    },
    {
      "constant": false,
      "inputs": [
        {
          "name": "to",
          "type": "address"
        },
        {
          "name": "amount",
          "type": "uint256"
        }
      ],
      "name": "transfer",
      "outputs": [],
      "payable": false,
      "stateMutability": "nonpayable",
      "type": "function"
    }
  ],
  "bytecode": "0x608060405234801561001057600080fd5b50601260405161001f906100ba565b60ff909116604080830191909152606080835260049083018190527f74657374000000000000000000000000000000000000000000000000000000006080840181905260a06020850181905284019190915260c0830152519081900360e001906000f080158015610094573d6000803e3d6000fd5b50600080546001600160a01b0319166001600160a01b03929092169190911790556100c7565b610a5f8061026983390190565b610193806100d66000396000f3fe608060405234801561001057600080fd5b50600436106100365760003560e01c80639d76ea581461003b578063a9059cbb1461005f575b600080fd5b61004361008d565b604080516001600160a01b039092168252519081900360200190f35b61008b6004803603604081101561007557600080fd5b506001600160a01b03813516906020013561009c565b005b6000546001600160a01b031681565b6000546100b3906001600160a01b031683836100b7565b5050565b60008051600451602451600160e01b63a9059cbb0260005285600452846024526020600060446000808b5af16000518460005283600452826024526000811160203d141660003d1417600183141695505050505050806101615760408051600160e51b62461bcd02815260206004820152601460248201527f544f4b454e5f5452414e534645525f4552524f52000000000000000000000000604482015290519081900360640190fd5b5050505056fea165627a7a723058208869f2236e37f24a3f70f138b6206e621b499c67883e98fefc1f6971f67dfc40002960806040526004805460ff191660121790556b050a66d97430c80d1800000060055534801561002d57600080fd5b50604051610a5f380380610a5f8339810180604052606081101561005057600080fd5b81019080805164010000000081111561006857600080fd5b8201602081018481111561007b57600080fd5b815164010000000081118282018710171561009557600080fd5b505092919060200180516401000000008111156100b157600080fd5b820160208101848111156100c457600080fd5b81516401000000008111828201871017156100de57600080fd5b5050602091820151855191945092506100fd9160029190860190610140565b508151610111906003906020850190610140565b506004805460ff191660ff929092169190911790555050600554336000908152602081905260409020556101db565b828054600181600116156101000203166002900490600052602060002090601f016020900481019282601f1061018157805160ff19168380011785556101ae565b828001600101855582156101ae579182015b828111156101ae578251825591602001919060010190610193565b506101ba9291506101be565b5090565b6101d891905b808211156101ba57600081556001016101c4565b90565b610875806101ea6000396000f3fe608060405234801561001057600080fd5b50600436106100935760003560e01c8063313ce56711610066578063313ce567146101a557806370a08231146101c357806395d89b41146101e9578063a9059cbb146101f1578063dd62ed3e1461021d57610093565b806306fdde0314610098578063095ea7b31461011557806318160ddd1461015557806323b872dd1461016f575b600080fd5b6100a061024b565b6040805160208082528351818301528351919283929083019185019080838360005b838110156100da5781810151838201526020016100c2565b50505050905090810190601f1680156101075780820380516001836020036101000a031916815260200191505b509250505060405180910390f35b6101416004803603604081101561012b57600080fd5b506001600160a01b0381351690602001356102d6565b604080519115158252519081900360200190f35b61015d61033c565b60408051918252519081900360200190f35b6101416004803603606081101561018557600080fd5b506001600160a01b03813581169160208101359091169060400135610342565b6101ad610590565b6040805160ff9092168252519081900360200190f35b61015d600480360360208110156101d957600080fd5b50356001600160a01b0316610599565b6100a06105b4565b6101416004803603604081101561020757600080fd5b506001600160a01b03813516906020013561060f565b61015d6004803603604081101561023357600080fd5b506001600160a01b038135811691602001351661077c565b6002805460408051602060018416156101000260001901909316849004601f810184900484028201840190925281815292918301828280156102ce5780601f106102a3576101008083540402835291602001916102ce565b820191906000526020600020905b8154815290600101906020018083116102b157829003601f168201915b505050505081565b3360008181526001602090815260408083206001600160a01b038716808552908352818420869055815186815291519394909390927f8c5be1e5ebec7d5bd14f71427d1e84f3dd0314c0f7b2291e5b200ac8c7c3b925928290030190a350600192915050565b60055481565b60006001600160a01b0383166103a25760408051600160e51b62461bcd02815260206004820152601360248201527f544f5f414444524553535f49535f454d50545900000000000000000000000000604482015290519081900360640190fd5b6001600160a01b03841660009081526020819052604090205482111561040a5760408051600160e51b62461bcd0281526020600482015260126024820152600160731b710848298829c868abe9c9ea8be8a9c9eaa8e902604482015290519081900360640190fd5b6001600160a01b03841660009081526001602090815260408083203384529091529020548211156104855760408051600160e51b62461bcd02815260206004820152601460248201527f414c4c4f57414e43455f4e4f545f454e4f554748000000000000000000000000604482015290519081900360640190fd5b6001600160a01b0384166000908152602081905260409020546104ae908363ffffffff6107a716565b6001600160a01b0380861660009081526020819052604080822093909355908516815220546104e3908363ffffffff6107f616565b6001600160a01b03808516600090815260208181526040808320949094559187168152600182528281203382529091522054610525908363ffffffff6107a716565b6001600160a01b03808616600081815260016020908152604080832033845282529182902094909455805186815290519287169391927fddf252ad1be2c89b69c2b068fc378daa952ba7f163c4a11628f55a4df523b3ef929181900390910190a35060019392505050565b60045460ff1681565b6001600160a01b031660009081526020819052604090205490565b6003805460408051602060026001851615610100026000190190941693909304601f810184900484028201840190925281815292918301828280156102ce5780601f106102a3576101008083540402835291602001916102ce565b60006001600160a01b03831661066f5760408051600160e51b62461bcd02815260206004820152601360248201527f544f5f414444524553535f49535f454d50545900000000000000000000000000604482015290519081900360640190fd5b336000908152602081905260409020548211156106ce5760408051600160e51b62461bcd0281526020600482015260126024820152600160731b710848298829c868abe9c9ea8be8a9c9eaa8e902604482015290519081900360640190fd5b336000908152602081905260409020546106ee908363ffffffff6107a716565b33600090815260208190526040808220929092556001600160a01b03851681522054610720908363ffffffff6107f616565b6001600160a01b038416600081815260208181526040918290209390935580518581529051919233927fddf252ad1be2c89b69c2b068fc378daa952ba7f163c4a11628f55a4df523b3ef9281900390910190a350600192915050565b6001600160a01b03918216600090815260016020908152604080832093909416825291909152205490565b6000828211156107f05760408051600160e51b62461bcd0281526020600482015260096024820152600160b91b6829aaa12fa2a92927a902604482015290519081900360640190fd5b50900390565b6000828201838110156108425760408051600160e51b62461bcd0281526020600482015260096024820152600160b91b6820a2222fa2a92927a902604482015290519081900360640190fd5b939250505056fea165627a7a72305820b8e0ed61e7bb27f345e3545b3cd9f71c697792d20577c90f267cbbedc079e43e0029",
  "source": "/*\n\n    Copyright 2019 The BitFinance Protocol\n\n    Licensed under the Apache License, Version 2.0 (the \"License\");\n    you may not use this file except in compliance with the License.\n    You may obtain a copy of the License at\n\n        http://www.apache.org/licenses/LICENSE-2.0\n\n    Unless required by applicable law or agreed to in writing, software\n    distributed under the License is distributed on an \"AS IS\" BASIS,\n    WITHOUT WARRANTIES OR CONDITIONS OF ANY KIND, either express or implied.\n    See the License for the specific language governing permissions and\n    limitations under the License.\n\n*/\n\npragma solidity 0.5.8;\n\nimport \"../lib/SafeERC20.sol\";\nimport \"./TestToken.sol\";\n\n/**\n * Test wrapper\n */\ncontract TestSafeERC20 {\n    address public tokenAddress;\n\n    constructor ()\n        public\n    {\n        tokenAddress = address(new TestToken(\"test\", \"test\", 18));\n    }\n\n    // transfer token out\n    function transfer(\n        address to,\n        uint256 amount\n    )\n        public\n    {\n        SafeERC20.safeTransfer(tokenAddress, to, amount);\n    }\n}",
  "sourcePath": "/Users/mikovainio/WebstormProjects/bitfinance-protocol/contracts/helper/TestSafeERC20.sol",
  "compiler": {
    "name": "solc",
    "version": "0.5.8+commit.23d335f2.Emscripten.clang"
  },
  "schemaVersion": "3.0.11",
  "updatedAt": "2020-03-02T16:59:53.315Z",
  "devdoc": {
    "methods": {}
  },
  "userdoc": {
    "methods": {},
    "notice": "Test wrapper"
  }
}